{
	"ERC6551Account.sol": {
		"ExampleERC6551Account": {
			"abi": [
				{
					"inputs": [
						{
							"internalType": "uint256",
							"name": "_size",
							"type": "uint256"
						},
						{
							"internalType": "uint256",
							"name": "_start",
							"type": "uint256"
						},
						{
							"internalType": "uint256",
							"name": "_end",
							"type": "uint256"
						}
					],
					"name": "InvalidCodeAtRange",
					"type": "error"
				},
				{
					"inputs": [
						{
							"internalType": "address",
							"name": "to",
							"type": "address"
						},
						{
							"internalType": "uint256",
							"name": "value",
							"type": "uint256"
						},
						{
							"internalType": "bytes",
							"name": "data",
							"type": "bytes"
						}
					],
					"name": "executeCall",
					"outputs": [
						{
							"internalType": "bytes",
							"name": "result",
							"type": "bytes"
						}
					],
					"stateMutability": "payable",
					"type": "function"
				},
				{
					"inputs": [
						{
							"internalType": "address",
							"name": "_to",
							"type": "address"
						},
						{
							"internalType": "address",
							"name": "_tokenAddr",
							"type": "address"
						},
						{
							"internalType": "uint256",
							"name": "_amount",
							"type": "uint256"
						}
					],
					"name": "executeCallTransferToken",
					"outputs": [
						{
							"internalType": "bool",
							"name": "",
							"type": "bool"
						}
					],
					"stateMutability": "nonpayable",
					"type": "function"
				},
				{
					"inputs": [
						{
							"internalType": "bytes32",
							"name": "hash",
							"type": "bytes32"
						},
						{
							"internalType": "bytes",
							"name": "signature",
							"type": "bytes"
						}
					],
					"name": "isValidSignature",
					"outputs": [
						{
							"internalType": "bytes4",
							"name": "magicValue",
							"type": "bytes4"
						}
					],
					"stateMutability": "view",
					"type": "function"
				},
				{
					"inputs": [],
					"name": "owner",
					"outputs": [
						{
							"internalType": "address",
							"name": "",
							"type": "address"
						}
					],
					"stateMutability": "view",
					"type": "function"
				},
				{
					"inputs": [
						{
							"internalType": "bytes4",
							"name": "interfaceId",
							"type": "bytes4"
						}
					],
					"name": "supportsInterface",
					"outputs": [
						{
							"internalType": "bool",
							"name": "",
							"type": "bool"
						}
					],
					"stateMutability": "pure",
					"type": "function"
				},
				{
					"inputs": [],
					"name": "token",
					"outputs": [
						{
							"internalType": "uint256",
							"name": "chainId",
							"type": "uint256"
						},
						{
							"internalType": "address",
							"name": "tokenContract",
							"type": "address"
						},
						{
							"internalType": "uint256",
							"name": "tokenId",
							"type": "uint256"
						}
					],
					"stateMutability": "view",
					"type": "function"
				},
				{
					"stateMutability": "payable",
					"type": "receive"
				}
			],
			"devdoc": {
				"kind": "dev",
				"methods": {
					"executeCall(address,uint256,bytes)": {
						"details": "Executes `call` on address `to`, with value `value` and calldata `data`. MUST revert and bubble up errors if call fails. By default, token bound accounts MUST allow the owner of the ERC-721 token which owns the account to execute arbitrary calls using `executeCall`. Token bound accounts MAY implement additional authorization mechanisms which limit the ability of the ERC-721 token holder to execute calls. Token bound accounts MAY implement additional execution functions which grant execution permissions to other non-owner accounts.",
						"returns": {
							"result": "The result of the call"
						}
					},
					"isValidSignature(bytes32,bytes)": {
						"details": "Should return whether the signature provided is valid for the provided data",
						"params": {
							"hash": "Hash of the data to be signed",
							"signature": "Signature byte array associated with _data"
						}
					},
					"owner()": {
						"details": "Returns the owner of the ERC-721 token which controls the account if the token exists. This is value is obtained by calling `ownerOf` on the ERC-721 contract.",
						"returns": {
							"_0": "Address of the owner of the ERC-721 token which owns the account"
						}
					},
					"supportsInterface(bytes4)": {
						"details": "Returns true if this contract implements the interface defined by `interfaceId`. See the corresponding https://eips.ethereum.org/EIPS/eip-165#how-interfaces-are-identified[EIP section] to learn more about how these ids are created. This function call must use less than 30 000 gas."
					},
					"token()": {
						"details": "Returns identifier of the ERC-721 token which owns the account The return value of this function MUST be constant - it MUST NOT change over time.",
						"returns": {
							"chainId": "The EIP-155 ID of the chain the ERC-721 token exists on",
							"tokenContract": "The contract address of the ERC-721 token",
							"tokenId": "The ID of the ERC-721 token"
						}
					}
				},
				"version": 1
			},
			"evm": {
				"assembly": "    /* \"ERC6551Account.sol\":398:2569  contract ExampleERC6551Account is IERC165, IERC1271, IERC6551Account {... */\n  mstore(0x40, 0x80)\n  callvalue\n  dup1\n  iszero\n  tag_1\n  jumpi\n  0x00\n  dup1\n  revert\ntag_1:\n  pop\n  dataSize(sub_0)\n  dup1\n  dataOffset(sub_0)\n  0x00\n  codecopy\n  0x00\n  return\nstop\n\nsub_0: assembly {\n        /* \"ERC6551Account.sol\":398:2569  contract ExampleERC6551Account is IERC165, IERC1271, IERC6551Account {... */\n      mstore(0x40, 0x80)\n      jumpi(tag_1, lt(calldatasize, 0x04))\n      shr(0xe0, calldataload(0x00))\n      dup1\n      0x01ffc9a7\n      eq\n      tag_3\n      jumpi\n      dup1\n      0x1626ba7e\n      eq\n      tag_4\n      jumpi\n      dup1\n      0x7d6ad95d\n      eq\n      tag_5\n      jumpi\n      dup1\n      0x8da5cb5b\n      eq\n      tag_6\n      jumpi\n      dup1\n      0x9e5d4c49\n      eq\n      tag_7\n      jumpi\n      dup1\n      0xfc0c546a\n      eq\n      tag_8\n      jumpi\n      jump(tag_2)\n    tag_1:\n      jumpi(tag_2, calldatasize)\n      stop\n    tag_2:\n      0x00\n      dup1\n      revert\n        /* \"ERC6551Account.sol\":1974:2178  function supportsInterface(bytes4 interfaceId) public pure returns (bool) {... */\n    tag_3:\n      callvalue\n      dup1\n      iszero\n      tag_11\n      jumpi\n      0x00\n      dup1\n      revert\n    tag_11:\n      pop\n      tag_12\n      0x04\n      dup1\n      calldatasize\n      sub\n      dup2\n      add\n      swap1\n      tag_13\n      swap2\n      swap1\n      tag_14\n      jump\t// in\n    tag_13:\n      tag_15\n      jump\t// in\n    tag_12:\n      mload(0x40)\n      tag_16\n      swap2\n      swap1\n      tag_17\n      jump\t// in\n    tag_16:\n      mload(0x40)\n      dup1\n      swap2\n      sub\n      swap1\n      return\n        /* \"ERC6551Account.sol\":2184:2567  function isValidSignature(bytes32 hash, bytes memory signature)... */\n    tag_4:\n      callvalue\n      dup1\n      iszero\n      tag_18\n      jumpi\n      0x00\n      dup1\n      revert\n    tag_18:\n      pop\n      tag_19\n      0x04\n      dup1\n      calldatasize\n      sub\n      dup2\n      add\n      swap1\n      tag_20\n      swap2\n      swap1\n      tag_21\n      jump\t// in\n    tag_20:\n      tag_22\n      jump\t// in\n    tag_19:\n      mload(0x40)\n      tag_23\n      swap2\n      swap1\n      tag_24\n      jump\t// in\n    tag_23:\n      mload(0x40)\n      dup1\n      swap2\n      sub\n      swap1\n      return\n        /* \"ERC6551Account.sol\":1337:1699  function executeCallTransferToken(... */\n    tag_5:\n      callvalue\n      dup1\n      iszero\n      tag_25\n      jumpi\n      0x00\n      dup1\n      revert\n    tag_25:\n      pop\n      tag_26\n      0x04\n      dup1\n      calldatasize\n      sub\n      dup2\n      add\n      swap1\n      tag_27\n      swap2\n      swap1\n      tag_28\n      jump\t// in\n    tag_27:\n      tag_29\n      jump\t// in\n    tag_26:\n      mload(0x40)\n      tag_30\n      swap2\n      swap1\n      tag_17\n      jump\t// in\n    tag_30:\n      mload(0x40)\n      dup1\n      swap2\n      sub\n      swap1\n      return\n        /* \"ERC6551Account.sol\":1705:1968  function owner() public view returns (address) {... */\n    tag_6:\n      callvalue\n      dup1\n      iszero\n      tag_31\n      jumpi\n      0x00\n      dup1\n      revert\n    tag_31:\n      pop\n      tag_32\n      tag_33\n      jump\t// in\n    tag_32:\n      mload(0x40)\n      tag_34\n      swap2\n      swap1\n      tag_35\n      jump\t// in\n    tag_34:\n      mload(0x40)\n      dup1\n      swap2\n      sub\n      swap1\n      return\n        /* \"ERC6551Account.sol\":508:926  function executeCall(... */\n    tag_7:\n      tag_36\n      0x04\n      dup1\n      calldatasize\n      sub\n      dup2\n      add\n      swap1\n      tag_37\n      swap2\n      swap1\n      tag_38\n      jump\t// in\n    tag_37:\n      tag_39\n      jump\t// in\n    tag_36:\n      mload(0x40)\n      tag_40\n      swap2\n      swap1\n      tag_41\n      jump\t// in\n    tag_40:\n      mload(0x40)\n      dup1\n      swap2\n      sub\n      swap1\n      return\n        /* \"ERC6551Account.sol\":932:1331  function token()... */\n    tag_8:\n      callvalue\n      dup1\n      iszero\n      tag_42\n      jumpi\n      0x00\n      dup1\n      revert\n    tag_42:\n      pop\n      tag_43\n      tag_44\n      jump\t// in\n    tag_43:\n      mload(0x40)\n      tag_45\n      swap4\n      swap3\n      swap2\n      swap1\n      tag_46\n      jump\t// in\n    tag_45:\n      mload(0x40)\n      dup1\n      swap2\n      sub\n      swap1\n      return\n        /* \"ERC6551Account.sol\":1974:2178  function supportsInterface(bytes4 interfaceId) public pure returns (bool) {... */\n    tag_15:\n        /* \"ERC6551Account.sol\":2042:2046  bool */\n      0x00\n        /* \"ERC6551Account.sol\":2081:2106  type(IERC165).interfaceId */\n      0x01ffc9a700000000000000000000000000000000000000000000000000000000\n        /* \"ERC6551Account.sol\":2066:2106  interfaceId == type(IERC165).interfaceId */\n      not(0xffffffffffffffffffffffffffffffffffffffffffffffffffffffff)\n      and\n        /* \"ERC6551Account.sol\":2066:2077  interfaceId */\n      dup3\n        /* \"ERC6551Account.sol\":2066:2106  interfaceId == type(IERC165).interfaceId */\n      not(0xffffffffffffffffffffffffffffffffffffffffffffffffffffffff)\n      and\n      eq\n        /* \"ERC6551Account.sol\":2066:2170  interfaceId == type(IERC165).interfaceId ||... */\n      dup1\n      tag_48\n      jumpi\n      pop\n        /* \"ERC6551Account.sol\":2137:2170  type(IERC6551Account).interfaceId */\n      0xeff4d37800000000000000000000000000000000000000000000000000000000\n        /* \"ERC6551Account.sol\":2122:2170  interfaceId == type(IERC6551Account).interfaceId */\n      not(0xffffffffffffffffffffffffffffffffffffffffffffffffffffffff)\n      and\n        /* \"ERC6551Account.sol\":2122:2133  interfaceId */\n      dup3\n        /* \"ERC6551Account.sol\":2122:2170  interfaceId == type(IERC6551Account).interfaceId */\n      not(0xffffffffffffffffffffffffffffffffffffffffffffffffffffffff)\n      and\n      eq\n        /* \"ERC6551Account.sol\":2066:2170  interfaceId == type(IERC165).interfaceId ||... */\n    tag_48:\n        /* \"ERC6551Account.sol\":2058:2171  return (interfaceId == type(IERC165).interfaceId ||... */\n      swap1\n      pop\n        /* \"ERC6551Account.sol\":1974:2178  function supportsInterface(bytes4 interfaceId) public pure returns (bool) {... */\n      swap2\n      swap1\n      pop\n      jump\t// out\n        /* \"ERC6551Account.sol\":2184:2567  function isValidSignature(bytes32 hash, bytes memory signature)... */\n    tag_22:\n        /* \"ERC6551Account.sol\":2295:2312  bytes4 magicValue */\n      0x00\n        /* \"ERC6551Account.sol\":2328:2340  bool isValid */\n      dup1\n        /* \"ERC6551Account.sol\":2343:2451  SignatureChecker.isValidSignatureNow(... */\n      tag_50\n        /* \"ERC6551Account.sol\":2393:2400  owner() */\n      tag_51\n        /* \"ERC6551Account.sol\":2393:2398  owner */\n      tag_33\n        /* \"ERC6551Account.sol\":2393:2400  owner() */\n      jump\t// in\n    tag_51:\n        /* \"ERC6551Account.sol\":2414:2418  hash */\n      dup6\n        /* \"ERC6551Account.sol\":2432:2441  signature */\n      dup6\n        /* \"ERC6551Account.sol\":2343:2379  SignatureChecker.isValidSignatureNow */\n      tag_52\n        /* \"ERC6551Account.sol\":2343:2451  SignatureChecker.isValidSignatureNow(... */\n      jump\t// in\n    tag_50:\n        /* \"ERC6551Account.sol\":2328:2451  bool isValid = SignatureChecker.isValidSignatureNow(... */\n      swap1\n      pop\n        /* \"ERC6551Account.sol\":2466:2473  isValid */\n      dup1\n        /* \"ERC6551Account.sol\":2462:2541  if (isValid) {... */\n      iszero\n      tag_53\n      jumpi\n        /* \"ERC6551Account.sol\":2496:2530  IERC1271.isValidSignature.selector */\n      shl(0xe0, 0x1626ba7e)\n        /* \"ERC6551Account.sol\":2489:2530  return IERC1271.isValidSignature.selector */\n      swap2\n      pop\n      pop\n      jump(tag_49)\n        /* \"ERC6551Account.sol\":2462:2541  if (isValid) {... */\n    tag_53:\n        /* \"ERC6551Account.sol\":2551:2560  return \"\" */\n      0x00\n      swap2\n      pop\n      pop\n        /* \"ERC6551Account.sol\":2184:2567  function isValidSignature(bytes32 hash, bytes memory signature)... */\n    tag_49:\n      swap3\n      swap2\n      pop\n      pop\n      jump\t// out\n        /* \"ERC6551Account.sol\":1337:1699  function executeCallTransferToken(... */\n    tag_29:\n        /* \"ERC6551Account.sol\":1469:1473  bool */\n      0x00\n        /* \"ERC6551Account.sol\":1507:1514  owner() */\n      tag_55\n        /* \"ERC6551Account.sol\":1507:1512  owner */\n      tag_33\n        /* \"ERC6551Account.sol\":1507:1514  owner() */\n      jump\t// in\n    tag_55:\n        /* \"ERC6551Account.sol\":1493:1514  msg.sender == owner() */\n      0xffffffffffffffffffffffffffffffffffffffff\n      and\n        /* \"ERC6551Account.sol\":1493:1503  msg.sender */\n      caller\n        /* \"ERC6551Account.sol\":1493:1514  msg.sender == owner() */\n      0xffffffffffffffffffffffffffffffffffffffff\n      and\n      eq\n        /* \"ERC6551Account.sol\":1485:1528  require(msg.sender == owner(), \"not owner\") */\n      tag_56\n      jumpi\n      mload(0x40)\n      0x08c379a000000000000000000000000000000000000000000000000000000000\n      dup2\n      mstore\n      0x04\n      add\n      tag_57\n      swap1\n      tag_58\n      jump\t// in\n    tag_57:\n      mload(0x40)\n      dup1\n      swap2\n      sub\n      swap1\n      revert\n    tag_56:\n        /* \"ERC6551Account.sol\":1538:1550  bool success */\n      0x00\n        /* \"ERC6551Account.sol\":1577:1587  _tokenAddr */\n      dup4\n        /* \"ERC6551Account.sol\":1570:1597  IERC20(_tokenAddr).transfer */\n      0xffffffffffffffffffffffffffffffffffffffff\n      and\n      0xa9059cbb\n        /* \"ERC6551Account.sol\":1598:1601  _to */\n      dup7\n        /* \"ERC6551Account.sol\":1603:1610  _amount */\n      dup6\n        /* \"ERC6551Account.sol\":1570:1611  IERC20(_tokenAddr).transfer(_to, _amount) */\n      mload(0x40)\n      dup4\n      0xffffffff\n      and\n      0xe0\n      shl\n      dup2\n      mstore\n      0x04\n      add\n      tag_59\n      swap3\n      swap2\n      swap1\n      tag_60\n      jump\t// in\n    tag_59:\n      0x20\n      mload(0x40)\n      dup1\n      dup4\n      sub\n      dup2\n      0x00\n      dup8\n      gas\n      call\n      iszero\n      dup1\n      iszero\n      tag_62\n      jumpi\n      returndatasize\n      0x00\n      dup1\n      returndatacopy\n      revert(0x00, returndatasize)\n    tag_62:\n      pop\n      pop\n      pop\n      pop\n      mload(0x40)\n      returndatasize\n      not(0x1f)\n      0x1f\n      dup3\n      add\n      and\n      dup3\n      add\n      dup1\n      0x40\n      mstore\n      pop\n      dup2\n      add\n      swap1\n      tag_63\n      swap2\n      swap1\n      tag_64\n      jump\t// in\n    tag_63:\n        /* \"ERC6551Account.sol\":1560:1611  success = IERC20(_tokenAddr).transfer(_to, _amount) */\n      swap1\n      pop\n        /* \"ERC6551Account.sol\":1626:1633  success */\n      dup1\n        /* \"ERC6551Account.sol\":1621:1672  if (!success) {... */\n      tag_65\n      jumpi\n        /* \"ERC6551Account.sol\":1656:1661  false */\n      0x00\n        /* \"ERC6551Account.sol\":1649:1661  return false */\n      swap2\n      pop\n      pop\n      jump(tag_54)\n        /* \"ERC6551Account.sol\":1621:1672  if (!success) {... */\n    tag_65:\n        /* \"ERC6551Account.sol\":1688:1692  true */\n      0x01\n        /* \"ERC6551Account.sol\":1681:1692  return true */\n      swap2\n      pop\n      pop\n        /* \"ERC6551Account.sol\":1337:1699  function executeCallTransferToken(... */\n    tag_54:\n      swap4\n      swap3\n      pop\n      pop\n      pop\n      jump\t// out\n        /* \"ERC6551Account.sol\":1705:1968  function owner() public view returns (address) {... */\n    tag_33:\n        /* \"ERC6551Account.sol\":1743:1750  address */\n      0x00\n        /* \"ERC6551Account.sol\":1763:1778  uint256 chainId */\n      dup1\n        /* \"ERC6551Account.sol\":1780:1801  address tokenContract */\n      0x00\n        /* \"ERC6551Account.sol\":1803:1818  uint256 tokenId */\n      dup1\n        /* \"ERC6551Account.sol\":1822:1826  this */\n      address\n        /* \"ERC6551Account.sol\":1822:1845  this... */\n      0xffffffffffffffffffffffffffffffffffffffff\n      and\n      0xfc0c546a\n        /* \"ERC6551Account.sol\":1822:1847  this... */\n      mload(0x40)\n      dup2\n      0xffffffff\n      and\n      0xe0\n      shl\n      dup2\n      mstore\n      0x04\n      add\n      0x60\n      mload(0x40)\n      dup1\n      dup4\n      sub\n      dup2\n      dup7\n      gas\n      staticcall\n      iszero\n      dup1\n      iszero\n      tag_68\n      jumpi\n      returndatasize\n      0x00\n      dup1\n      returndatacopy\n      revert(0x00, returndatasize)\n    tag_68:\n      pop\n      pop\n      pop\n      pop\n      mload(0x40)\n      returndatasize\n      not(0x1f)\n      0x1f\n      dup3\n      add\n      and\n      dup3\n      add\n      dup1\n      0x40\n      mstore\n      pop\n      dup2\n      add\n      swap1\n      tag_69\n      swap2\n      swap1\n      tag_70\n      jump\t// in\n    tag_69:\n        /* \"ERC6551Account.sol\":1762:1847  (uint256 chainId, address tokenContract, uint256 tokenId) = this... */\n      swap3\n      pop\n      swap3\n      pop\n      swap3\n      pop\n        /* \"ERC6551Account.sol\":1872:1885  block.chainid */\n      chainid\n        /* \"ERC6551Account.sol\":1861:1868  chainId */\n      dup4\n        /* \"ERC6551Account.sol\":1861:1885  chainId != block.chainid */\n      eq\n        /* \"ERC6551Account.sol\":1857:1904  if (chainId != block.chainid) return address(0) */\n      tag_71\n      jumpi\n        /* \"ERC6551Account.sol\":1902:1903  0 */\n      0x00\n        /* \"ERC6551Account.sol\":1887:1904  return address(0) */\n      swap4\n      pop\n      pop\n      pop\n      pop\n      jump(tag_66)\n        /* \"ERC6551Account.sol\":1857:1904  if (chainId != block.chainid) return address(0) */\n    tag_71:\n        /* \"ERC6551Account.sol\":1930:1943  tokenContract */\n      dup2\n        /* \"ERC6551Account.sol\":1922:1952  IERC721(tokenContract).ownerOf */\n      0xffffffffffffffffffffffffffffffffffffffff\n      and\n      0x6352211e\n        /* \"ERC6551Account.sol\":1953:1960  tokenId */\n      dup3\n        /* \"ERC6551Account.sol\":1922:1961  IERC721(tokenContract).ownerOf(tokenId) */\n      mload(0x40)\n      dup3\n      0xffffffff\n      and\n      0xe0\n      shl\n      dup2\n      mstore\n      0x04\n      add\n      tag_72\n      swap2\n      swap1\n      tag_73\n      jump\t// in\n    tag_72:\n      0x20\n      mload(0x40)\n      dup1\n      dup4\n      sub\n      dup2\n      dup7\n      gas\n      staticcall\n      iszero\n      dup1\n      iszero\n      tag_75\n      jumpi\n      returndatasize\n      0x00\n      dup1\n      returndatacopy\n      revert(0x00, returndatasize)\n    tag_75:\n      pop\n      pop\n      pop\n      pop\n      mload(0x40)\n      returndatasize\n      not(0x1f)\n      0x1f\n      dup3\n      add\n      and\n      dup3\n      add\n      dup1\n      0x40\n      mstore\n      pop\n      dup2\n      add\n      swap1\n      tag_76\n      swap2\n      swap1\n      tag_77\n      jump\t// in\n    tag_76:\n        /* \"ERC6551Account.sol\":1915:1961  return IERC721(tokenContract).ownerOf(tokenId) */\n      swap4\n      pop\n      pop\n      pop\n      pop\n        /* \"ERC6551Account.sol\":1705:1968  function owner() public view returns (address) {... */\n    tag_66:\n      swap1\n      jump\t// out\n        /* \"ERC6551Account.sol\":508:926  function executeCall(... */\n    tag_39:\n        /* \"ERC6551Account.sol\":633:652  bytes memory result */\n      0x60\n        /* \"ERC6551Account.sol\":685:692  owner() */\n      tag_79\n        /* \"ERC6551Account.sol\":685:690  owner */\n      tag_33\n        /* \"ERC6551Account.sol\":685:692  owner() */\n      jump\t// in\n    tag_79:\n        /* \"ERC6551Account.sol\":672:692  tx.origin == owner() */\n      0xffffffffffffffffffffffffffffffffffffffff\n      and\n        /* \"ERC6551Account.sol\":672:681  tx.origin */\n      origin\n        /* \"ERC6551Account.sol\":672:692  tx.origin == owner() */\n      0xffffffffffffffffffffffffffffffffffffffff\n      and\n      eq\n        /* \"ERC6551Account.sol\":664:712  require(tx.origin == owner(), \"Not token owner\") */\n      tag_80\n      jumpi\n      mload(0x40)\n      0x08c379a000000000000000000000000000000000000000000000000000000000\n      dup2\n      mstore\n      0x04\n      add\n      tag_81\n      swap1\n      tag_82\n      jump\t// in\n    tag_81:\n      mload(0x40)\n      dup1\n      swap2\n      sub\n      swap1\n      revert\n    tag_80:\n        /* \"ERC6551Account.sol\":723:735  bool success */\n      0x00\n        /* \"ERC6551Account.sol\":765:767  to */\n      dup6\n        /* \"ERC6551Account.sol\":765:772  to.call */\n      0xffffffffffffffffffffffffffffffffffffffff\n      and\n        /* \"ERC6551Account.sol\":780:785  value */\n      dup6\n        /* \"ERC6551Account.sol\":787:791  data */\n      dup6\n      dup6\n        /* \"ERC6551Account.sol\":765:792  to.call{value: value}(data) */\n      mload(0x40)\n      tag_83\n      swap3\n      swap2\n      swap1\n      tag_84\n      jump\t// in\n    tag_83:\n      0x00\n      mload(0x40)\n      dup1\n      dup4\n      sub\n      dup2\n      dup6\n      dup8\n      gas\n      call\n      swap3\n      pop\n      pop\n      pop\n      returndatasize\n      dup1\n      0x00\n      dup2\n      eq\n      tag_87\n      jumpi\n      mload(0x40)\n      swap2\n      pop\n      and(add(returndatasize, 0x3f), not(0x1f))\n      dup3\n      add\n      0x40\n      mstore\n      returndatasize\n      dup3\n      mstore\n      returndatasize\n      0x00\n      0x20\n      dup5\n      add\n      returndatacopy\n      jump(tag_86)\n    tag_87:\n      0x60\n      swap2\n      pop\n    tag_86:\n      pop\n        /* \"ERC6551Account.sol\":745:792  (success, result) = to.call{value: value}(data) */\n      dup1\n      swap4\n      pop\n      dup2\n      swap3\n      pop\n      pop\n      pop\n        /* \"ERC6551Account.sol\":808:815  success */\n      dup1\n        /* \"ERC6551Account.sol\":803:920  if (!success) {... */\n      tag_88\n      jumpi\n        /* \"ERC6551Account.sol\":888:894  result */\n      dup2\n        /* \"ERC6551Account.sol\":882:895  mload(result) */\n      mload\n        /* \"ERC6551Account.sol\":877:879  32 */\n      0x20\n        /* \"ERC6551Account.sol\":869:875  result */\n      dup4\n        /* \"ERC6551Account.sol\":865:880  add(result, 32) */\n      add\n        /* \"ERC6551Account.sol\":858:896  revert(add(result, 32), mload(result)) */\n      revert\n        /* \"ERC6551Account.sol\":803:920  if (!success) {... */\n    tag_88:\n        /* \"ERC6551Account.sol\":654:926  {... */\n      pop\n        /* \"ERC6551Account.sol\":508:926  function executeCall(... */\n      swap5\n      swap4\n      pop\n      pop\n      pop\n      pop\n      jump\t// out\n        /* \"ERC6551Account.sol\":932:1331  function token()... */\n    tag_44:\n        /* \"ERC6551Account.sol\":1009:1024  uint256 chainId */\n      0x00\n        /* \"ERC6551Account.sol\":1038:1059  address tokenContract */\n      dup1\n        /* \"ERC6551Account.sol\":1073:1088  uint256 tokenId */\n      0x00\n        /* \"ERC6551Account.sol\":1113:1127  uint256 length */\n      dup1\n        /* \"ERC6551Account.sol\":1138:1142  this */\n      address\n        /* \"ERC6551Account.sol\":1130:1155  address(this).code.length */\n      0xffffffffffffffffffffffffffffffffffffffff\n      and\n      extcodesize\n        /* \"ERC6551Account.sol\":1113:1155  uint256 length = address(this).code.length */\n      swap1\n      pop\n        /* \"ERC6551Account.sol\":1212:1265  Bytecode.codeAt(address(this), length - 0x60, length) */\n      tag_90\n        /* \"ERC6551Account.sol\":1236:1240  this */\n      address\n        /* \"ERC6551Account.sol\":1252:1256  0x60 */\n      0x60\n        /* \"ERC6551Account.sol\":1243:1249  length */\n      dup4\n        /* \"ERC6551Account.sol\":1243:1256  length - 0x60 */\n      tag_91\n      swap2\n      swap1\n      tag_92\n      jump\t// in\n    tag_91:\n        /* \"ERC6551Account.sol\":1258:1264  length */\n      dup4\n        /* \"ERC6551Account.sol\":1212:1227  Bytecode.codeAt */\n      tag_93\n        /* \"ERC6551Account.sol\":1212:1265  Bytecode.codeAt(address(this), length - 0x60, length) */\n      jump\t// in\n    tag_90:\n        /* \"ERC6551Account.sol\":1184:1324  abi.decode(... */\n      dup1\n      0x20\n      add\n      swap1\n      mload\n      dup2\n      add\n      swap1\n      tag_94\n      swap2\n      swap1\n      tag_95\n      jump\t// in\n    tag_94:\n        /* \"ERC6551Account.sol\":1165:1324  return... */\n      swap4\n      pop\n      swap4\n      pop\n      swap4\n      pop\n      pop\n        /* \"ERC6551Account.sol\":932:1331  function token()... */\n      swap1\n      swap2\n      swap3\n      jump\t// out\n        /* \"@openzeppelin/contracts/utils/cryptography/SignatureChecker.sol\":1014:1380  function isValidSignatureNow(address signer, bytes32 hash, bytes memory signature) internal view returns (bool) {... */\n    tag_52:\n        /* \"@openzeppelin/contracts/utils/cryptography/SignatureChecker.sol\":1120:1124  bool */\n      0x00\n        /* \"@openzeppelin/contracts/utils/cryptography/SignatureChecker.sol\":1137:1154  address recovered */\n      dup1\n        /* \"@openzeppelin/contracts/utils/cryptography/SignatureChecker.sol\":1156:1180  ECDSA.RecoverError error */\n      0x00\n        /* \"@openzeppelin/contracts/utils/cryptography/SignatureChecker.sol\":1184:1217  ECDSA.tryRecover(hash, signature) */\n      tag_97\n        /* \"@openzeppelin/contracts/utils/cryptography/SignatureChecker.sol\":1201:1205  hash */\n      dup6\n        /* \"@openzeppelin/contracts/utils/cryptography/SignatureChecker.sol\":1207:1216  signature */\n      dup6\n        /* \"@openzeppelin/contracts/utils/cryptography/SignatureChecker.sol\":1184:1200  ECDSA.tryRecover */\n      tag_98\n        /* \"@openzeppelin/contracts/utils/cryptography/SignatureChecker.sol\":1184:1217  ECDSA.tryRecover(hash, signature) */\n      jump\t// in\n    tag_97:\n        /* \"@openzeppelin/contracts/utils/cryptography/SignatureChecker.sol\":1136:1217  (address recovered, ECDSA.RecoverError error) = ECDSA.tryRecover(hash, signature) */\n      swap2\n      pop\n      swap2\n      pop\n        /* \"@openzeppelin/contracts/utils/cryptography/SignatureChecker.sol\":1256:1282  ECDSA.RecoverError.NoError */\n      0x00\n        /* \"@openzeppelin/contracts/utils/cryptography/SignatureChecker.sol\":1247:1282  error == ECDSA.RecoverError.NoError */\n      0x04\n      dup2\n      gt\n      iszero\n      tag_99\n      jumpi\n      tag_100\n      tag_101\n      jump\t// in\n    tag_100:\n    tag_99:\n        /* \"@openzeppelin/contracts/utils/cryptography/SignatureChecker.sol\":1247:1252  error */\n      dup2\n        /* \"@openzeppelin/contracts/utils/cryptography/SignatureChecker.sol\":1247:1282  error == ECDSA.RecoverError.NoError */\n      0x04\n      dup2\n      gt\n      iszero\n      tag_102\n      jumpi\n      tag_103\n      tag_101\n      jump\t// in\n    tag_103:\n    tag_102:\n      eq\n        /* \"@openzeppelin/contracts/utils/cryptography/SignatureChecker.sol\":1247:1305  error == ECDSA.RecoverError.NoError && recovered == signer */\n      dup1\n      iszero\n      tag_104\n      jumpi\n      pop\n        /* \"@openzeppelin/contracts/utils/cryptography/SignatureChecker.sol\":1299:1305  signer */\n      dup6\n        /* \"@openzeppelin/contracts/utils/cryptography/SignatureChecker.sol\":1286:1305  recovered == signer */\n      0xffffffffffffffffffffffffffffffffffffffff\n      and\n        /* \"@openzeppelin/contracts/utils/cryptography/SignatureChecker.sol\":1286:1295  recovered */\n      dup3\n        /* \"@openzeppelin/contracts/utils/cryptography/SignatureChecker.sol\":1286:1305  recovered == signer */\n      0xffffffffffffffffffffffffffffffffffffffff\n      and\n      eq\n        /* \"@openzeppelin/contracts/utils/cryptography/SignatureChecker.sol\":1247:1305  error == ECDSA.RecoverError.NoError && recovered == signer */\n    tag_104:\n        /* \"@openzeppelin/contracts/utils/cryptography/SignatureChecker.sol\":1246:1373  (error == ECDSA.RecoverError.NoError && recovered == signer) ||... */\n      dup1\n      tag_105\n      jumpi\n      pop\n        /* \"@openzeppelin/contracts/utils/cryptography/SignatureChecker.sol\":1322:1373  isValidERC1271SignatureNow(signer, hash, signature) */\n      tag_106\n        /* \"@openzeppelin/contracts/utils/cryptography/SignatureChecker.sol\":1349:1355  signer */\n      dup7\n        /* \"@openzeppelin/contracts/utils/cryptography/SignatureChecker.sol\":1357:1361  hash */\n      dup7\n        /* \"@openzeppelin/contracts/utils/cryptography/SignatureChecker.sol\":1363:1372  signature */\n      dup7\n        /* \"@openzeppelin/contracts/utils/cryptography/SignatureChecker.sol\":1322:1348  isValidERC1271SignatureNow */\n      tag_107\n        /* \"@openzeppelin/contracts/utils/cryptography/SignatureChecker.sol\":1322:1373  isValidERC1271SignatureNow(signer, hash, signature) */\n      jump\t// in\n    tag_106:\n        /* \"@openzeppelin/contracts/utils/cryptography/SignatureChecker.sol\":1246:1373  (error == ECDSA.RecoverError.NoError && recovered == signer) ||... */\n    tag_105:\n        /* \"@openzeppelin/contracts/utils/cryptography/SignatureChecker.sol\":1227:1373  return... */\n      swap3\n      pop\n      pop\n      pop\n        /* \"@openzeppelin/contracts/utils/cryptography/SignatureChecker.sol\":1014:1380  function isValidSignatureNow(address signer, bytes32 hash, bytes memory signature) internal view returns (bool) {... */\n      swap4\n      swap3\n      pop\n      pop\n      pop\n      jump\t// out\n        /* \"Bytecode.sol\":1793:2739  function codeAt(address _addr, uint256 _start, uint256 _end) internal view returns (bytes memory oCode) {... */\n    tag_93:\n        /* \"Bytecode.sol\":1877:1895  bytes memory oCode */\n      0x60\n        /* \"Bytecode.sol\":1903:1916  uint256 csize */\n      0x00\n        /* \"Bytecode.sol\":1919:1934  codeSize(_addr) */\n      tag_109\n        /* \"Bytecode.sol\":1928:1933  _addr */\n      dup6\n        /* \"Bytecode.sol\":1919:1927  codeSize */\n      tag_110\n        /* \"Bytecode.sol\":1919:1934  codeSize(_addr) */\n      jump\t// in\n    tag_109:\n        /* \"Bytecode.sol\":1903:1934  uint256 csize = codeSize(_addr) */\n      swap1\n      pop\n        /* \"Bytecode.sol\":1953:1954  0 */\n      0x00\n        /* \"Bytecode.sol\":1944:1949  csize */\n      dup2\n        /* \"Bytecode.sol\":1944:1954  csize == 0 */\n      sub\n        /* \"Bytecode.sol\":1940:1972  if (csize == 0) return bytes(\"\") */\n      tag_111\n      jumpi\n        /* \"Bytecode.sol\":1963:1972  bytes(\"\") */\n      mload(0x40)\n      dup1\n      0x20\n      add\n      0x40\n      mstore\n      dup1\n      0x00\n      dup2\n      mstore\n      pop\n        /* \"Bytecode.sol\":1956:1972  return bytes(\"\") */\n      swap2\n      pop\n      pop\n      jump(tag_108)\n        /* \"Bytecode.sol\":1940:1972  if (csize == 0) return bytes(\"\") */\n    tag_111:\n        /* \"Bytecode.sol\":1992:1997  csize */\n      dup1\n        /* \"Bytecode.sol\":1983:1989  _start */\n      dup5\n        /* \"Bytecode.sol\":1983:1997  _start > csize */\n      gt\n        /* \"Bytecode.sol\":1979:2015  if (_start > csize) return bytes(\"\") */\n      iszero\n      tag_112\n      jumpi\n        /* \"Bytecode.sol\":2006:2015  bytes(\"\") */\n      mload(0x40)\n      dup1\n      0x20\n      add\n      0x40\n      mstore\n      dup1\n      0x00\n      dup2\n      mstore\n      pop\n        /* \"Bytecode.sol\":1999:2015  return bytes(\"\") */\n      swap2\n      pop\n      pop\n      jump(tag_108)\n        /* \"Bytecode.sol\":1979:2015  if (_start > csize) return bytes(\"\") */\n    tag_112:\n        /* \"Bytecode.sol\":2032:2038  _start */\n      dup4\n        /* \"Bytecode.sol\":2025:2029  _end */\n      dup4\n        /* \"Bytecode.sol\":2025:2038  _end < _start */\n      lt\n        /* \"Bytecode.sol\":2021:2086  if (_end < _start) revert InvalidCodeAtRange(csize, _start, _end) */\n      iszero\n      tag_113\n      jumpi\n        /* \"Bytecode.sol\":2066:2071  csize */\n      dup1\n        /* \"Bytecode.sol\":2073:2079  _start */\n      dup5\n        /* \"Bytecode.sol\":2081:2085  _end */\n      dup5\n        /* \"Bytecode.sol\":2047:2086  InvalidCodeAtRange(csize, _start, _end) */\n      mload(0x40)\n      0x2c4a89fa00000000000000000000000000000000000000000000000000000000\n      dup2\n      mstore\n      0x04\n      add\n      tag_114\n      swap4\n      swap3\n      swap2\n      swap1\n      tag_115\n      jump\t// in\n    tag_114:\n      mload(0x40)\n      dup1\n      swap2\n      sub\n      swap1\n      revert\n        /* \"Bytecode.sol\":2021:2086  if (_end < _start) revert InvalidCodeAtRange(csize, _start, _end) */\n    tag_113:\n        /* \"Bytecode.sol\":2112:2127  uint256 reqSize */\n      0x00\n        /* \"Bytecode.sol\":2137:2143  _start */\n      dup5\n        /* \"Bytecode.sol\":2130:2134  _end */\n      dup5\n        /* \"Bytecode.sol\":2130:2143  _end - _start */\n      sub\n        /* \"Bytecode.sol\":2112:2143  uint256 reqSize = _end - _start */\n      swap1\n      pop\n        /* \"Bytecode.sol\":2151:2166  uint256 maxSize */\n      0x00\n        /* \"Bytecode.sol\":2177:2183  _start */\n      dup6\n        /* \"Bytecode.sol\":2169:2174  csize */\n      dup4\n        /* \"Bytecode.sol\":2169:2183  csize - _start */\n      sub\n        /* \"Bytecode.sol\":2151:2183  uint256 maxSize = csize - _start */\n      swap1\n      pop\n        /* \"Bytecode.sol\":2192:2204  uint256 size */\n      0x00\n        /* \"Bytecode.sol\":2217:2224  reqSize */\n      dup3\n        /* \"Bytecode.sol\":2207:2214  maxSize */\n      dup3\n        /* \"Bytecode.sol\":2207:2224  maxSize < reqSize */\n      lt\n        /* \"Bytecode.sol\":2207:2244  maxSize < reqSize ? maxSize : reqSize */\n      tag_116\n      jumpi\n        /* \"Bytecode.sol\":2237:2244  reqSize */\n      dup3\n        /* \"Bytecode.sol\":2207:2244  maxSize < reqSize ? maxSize : reqSize */\n      jump(tag_117)\n    tag_116:\n        /* \"Bytecode.sol\":2227:2234  maxSize */\n      dup2\n        /* \"Bytecode.sol\":2207:2244  maxSize < reqSize ? maxSize : reqSize */\n    tag_117:\n        /* \"Bytecode.sol\":2192:2244  uint256 size = maxSize < reqSize ? maxSize : reqSize */\n      swap1\n      pop\n        /* \"Bytecode.sol\":2413:2417  0x40 */\n      0x40\n        /* \"Bytecode.sol\":2407:2418  mload(0x40) */\n      mload\n        /* \"Bytecode.sol\":2398:2418  oCode := mload(0x40) */\n      swap5\n      pop\n        /* \"Bytecode.sol\":2533:2537  0x1f */\n      0x1f\n        /* \"Bytecode.sol\":2529:2538  not(0x1f) */\n      not\n        /* \"Bytecode.sol\":2522:2526  0x1f */\n      0x1f\n        /* \"Bytecode.sol\":2515:2519  0x20 */\n      0x20\n        /* \"Bytecode.sol\":2509:2513  size */\n      dup4\n        /* \"Bytecode.sol\":2505:2520  add(size, 0x20) */\n      add\n        /* \"Bytecode.sol\":2501:2527  add(add(size, 0x20), 0x1f) */\n      add\n        /* \"Bytecode.sol\":2497:2539  and(add(add(size, 0x20), 0x1f), not(0x1f)) */\n      and\n        /* \"Bytecode.sol\":2490:2495  oCode */\n      dup6\n        /* \"Bytecode.sol\":2486:2540  add(oCode, and(add(add(size, 0x20), 0x1f), not(0x1f))) */\n      add\n        /* \"Bytecode.sol\":2480:2484  0x40 */\n      0x40\n        /* \"Bytecode.sol\":2473:2541  mstore(0x40, add(oCode, and(add(add(size, 0x20), 0x1f), not(0x1f)))) */\n      mstore\n        /* \"Bytecode.sol\":2598:2602  size */\n      dup1\n        /* \"Bytecode.sol\":2591:2596  oCode */\n      dup6\n        /* \"Bytecode.sol\":2584:2603  mstore(oCode, size) */\n      mstore\n        /* \"Bytecode.sol\":2716:2720  size */\n      dup1\n        /* \"Bytecode.sol\":2708:2714  _start */\n      dup8\n        /* \"Bytecode.sol\":2701:2705  0x20 */\n      0x20\n        /* \"Bytecode.sol\":2694:2699  oCode */\n      dup8\n        /* \"Bytecode.sol\":2690:2706  add(oCode, 0x20) */\n      add\n        /* \"Bytecode.sol\":2683:2688  _addr */\n      dup11\n        /* \"Bytecode.sol\":2671:2721  extcodecopy(_addr, add(oCode, 0x20), _start, size) */\n      extcodecopy\n        /* \"Bytecode.sol\":2262:2729  {... */\n      pop\n      pop\n      pop\n        /* \"Bytecode.sol\":1897:2739  {... */\n      pop\n        /* \"Bytecode.sol\":1793:2739  function codeAt(address _addr, uint256 _start, uint256 _end) internal view returns (bytes memory oCode) {... */\n    tag_108:\n      swap4\n      swap3\n      pop\n      pop\n      pop\n      jump\t// out\n        /* \"@openzeppelin/contracts/utils/cryptography/ECDSA.sol\":2145:2875  function tryRecover(bytes32 hash, bytes memory signature) internal pure returns (address, RecoverError) {... */\n    tag_98:\n        /* \"@openzeppelin/contracts/utils/cryptography/ECDSA.sol\":2226:2233  address */\n      0x00\n        /* \"@openzeppelin/contracts/utils/cryptography/ECDSA.sol\":2235:2247  RecoverError */\n      dup1\n        /* \"@openzeppelin/contracts/utils/cryptography/ECDSA.sol\":2283:2285  65 */\n      0x41\n        /* \"@openzeppelin/contracts/utils/cryptography/ECDSA.sol\":2263:2272  signature */\n      dup4\n        /* \"@openzeppelin/contracts/utils/cryptography/ECDSA.sol\":2263:2279  signature.length */\n      mload\n        /* \"@openzeppelin/contracts/utils/cryptography/ECDSA.sol\":2263:2285  signature.length == 65 */\n      sub\n        /* \"@openzeppelin/contracts/utils/cryptography/ECDSA.sol\":2259:2869  if (signature.length == 65) {... */\n      tag_119\n      jumpi\n        /* \"@openzeppelin/contracts/utils/cryptography/ECDSA.sol\":2301:2310  bytes32 r */\n      0x00\n        /* \"@openzeppelin/contracts/utils/cryptography/ECDSA.sol\":2324:2333  bytes32 s */\n      dup1\n        /* \"@openzeppelin/contracts/utils/cryptography/ECDSA.sol\":2347:2354  uint8 v */\n      0x00\n        /* \"@openzeppelin/contracts/utils/cryptography/ECDSA.sol\":2599:2603  0x20 */\n      0x20\n        /* \"@openzeppelin/contracts/utils/cryptography/ECDSA.sol\":2588:2597  signature */\n      dup7\n        /* \"@openzeppelin/contracts/utils/cryptography/ECDSA.sol\":2584:2604  add(signature, 0x20) */\n      add\n        /* \"@openzeppelin/contracts/utils/cryptography/ECDSA.sol\":2578:2605  mload(add(signature, 0x20)) */\n      mload\n        /* \"@openzeppelin/contracts/utils/cryptography/ECDSA.sol\":2573:2605  r := mload(add(signature, 0x20)) */\n      swap3\n      pop\n        /* \"@openzeppelin/contracts/utils/cryptography/ECDSA.sol\":2648:2652  0x40 */\n      0x40\n        /* \"@openzeppelin/contracts/utils/cryptography/ECDSA.sol\":2637:2646  signature */\n      dup7\n        /* \"@openzeppelin/contracts/utils/cryptography/ECDSA.sol\":2633:2653  add(signature, 0x40) */\n      add\n        /* \"@openzeppelin/contracts/utils/cryptography/ECDSA.sol\":2627:2654  mload(add(signature, 0x40)) */\n      mload\n        /* \"@openzeppelin/contracts/utils/cryptography/ECDSA.sol\":2622:2654  s := mload(add(signature, 0x40)) */\n      swap2\n      pop\n        /* \"@openzeppelin/contracts/utils/cryptography/ECDSA.sol\":2705:2709  0x60 */\n      0x60\n        /* \"@openzeppelin/contracts/utils/cryptography/ECDSA.sol\":2694:2703  signature */\n      dup7\n        /* \"@openzeppelin/contracts/utils/cryptography/ECDSA.sol\":2690:2710  add(signature, 0x60) */\n      add\n        /* \"@openzeppelin/contracts/utils/cryptography/ECDSA.sol\":2684:2711  mload(add(signature, 0x60)) */\n      mload\n        /* \"@openzeppelin/contracts/utils/cryptography/ECDSA.sol\":2681:2682  0 */\n      0x00\n        /* \"@openzeppelin/contracts/utils/cryptography/ECDSA.sol\":2676:2712  byte(0, mload(add(signature, 0x60))) */\n      byte\n        /* \"@openzeppelin/contracts/utils/cryptography/ECDSA.sol\":2671:2712  v := byte(0, mload(add(signature, 0x60))) */\n      swap1\n      pop\n        /* \"@openzeppelin/contracts/utils/cryptography/ECDSA.sol\":2746:2771  tryRecover(hash, v, r, s) */\n      tag_120\n        /* \"@openzeppelin/contracts/utils/cryptography/ECDSA.sol\":2757:2761  hash */\n      dup8\n        /* \"@openzeppelin/contracts/utils/cryptography/ECDSA.sol\":2763:2764  v */\n      dup3\n        /* \"@openzeppelin/contracts/utils/cryptography/ECDSA.sol\":2766:2767  r */\n      dup6\n        /* \"@openzeppelin/contracts/utils/cryptography/ECDSA.sol\":2769:2770  s */\n      dup6\n        /* \"@openzeppelin/contracts/utils/cryptography/ECDSA.sol\":2746:2756  tryRecover */\n      tag_121\n        /* \"@openzeppelin/contracts/utils/cryptography/ECDSA.sol\":2746:2771  tryRecover(hash, v, r, s) */\n      jump\t// in\n    tag_120:\n        /* \"@openzeppelin/contracts/utils/cryptography/ECDSA.sol\":2739:2771  return tryRecover(hash, v, r, s) */\n      swap5\n      pop\n      swap5\n      pop\n      pop\n      pop\n      pop\n      jump(tag_118)\n        /* \"@openzeppelin/contracts/utils/cryptography/ECDSA.sol\":2259:2869  if (signature.length == 65) {... */\n    tag_119:\n        /* \"@openzeppelin/contracts/utils/cryptography/ECDSA.sol\":2818:2819  0 */\n      0x00\n        /* \"@openzeppelin/contracts/utils/cryptography/ECDSA.sol\":2822:2857  RecoverError.InvalidSignatureLength */\n      0x02\n        /* \"@openzeppelin/contracts/utils/cryptography/ECDSA.sol\":2802:2858  return (address(0), RecoverError.InvalidSignatureLength) */\n      swap2\n      pop\n      swap2\n      pop\n        /* \"@openzeppelin/contracts/utils/cryptography/ECDSA.sol\":2145:2875  function tryRecover(bytes32 hash, bytes memory signature) internal pure returns (address, RecoverError) {... */\n    tag_118:\n      swap3\n      pop\n      swap3\n      swap1\n      pop\n      jump\t// out\n        /* \"@openzeppelin/contracts/utils/cryptography/SignatureChecker.sol\":1786:2259  function isValidERC1271SignatureNow(... */\n    tag_107:\n        /* \"@openzeppelin/contracts/utils/cryptography/SignatureChecker.sol\":1929:1933  bool */\n      0x00\n        /* \"@openzeppelin/contracts/utils/cryptography/SignatureChecker.sol\":1946:1958  bool success */\n      dup1\n        /* \"@openzeppelin/contracts/utils/cryptography/SignatureChecker.sol\":1960:1979  bytes memory result */\n      0x00\n        /* \"@openzeppelin/contracts/utils/cryptography/SignatureChecker.sol\":1983:1989  signer */\n      dup6\n        /* \"@openzeppelin/contracts/utils/cryptography/SignatureChecker.sol\":1983:2000  signer.staticcall */\n      0xffffffffffffffffffffffffffffffffffffffff\n      and\n        /* \"@openzeppelin/contracts/utils/cryptography/SignatureChecker.sol\":2037:2071  IERC1271.isValidSignature.selector */\n      shl(0xe0, 0x1626ba7e)\n        /* \"@openzeppelin/contracts/utils/cryptography/SignatureChecker.sol\":2073:2077  hash */\n      dup7\n        /* \"@openzeppelin/contracts/utils/cryptography/SignatureChecker.sol\":2079:2088  signature */\n      dup7\n        /* \"@openzeppelin/contracts/utils/cryptography/SignatureChecker.sol\":2014:2089  abi.encodeWithSelector(IERC1271.isValidSignature.selector, hash, signature) */\n      add(0x24, mload(0x40))\n      tag_124\n      swap3\n      swap2\n      swap1\n      tag_125\n      jump\t// in\n    tag_124:\n      mload(0x40)\n      0x20\n      dup2\n      dup4\n      sub\n      sub\n      dup2\n      mstore\n      swap1\n      0x40\n      mstore\n      swap1\n      not(0xffffffffffffffffffffffffffffffffffffffffffffffffffffffff)\n      and\n      0x20\n      dup3\n      add\n      dup1\n      mload\n      0xffffffffffffffffffffffffffffffffffffffffffffffffffffffff\n      dup4\n      dup2\n      dup4\n      and\n      or\n      dup4\n      mstore\n      pop\n      pop\n      pop\n      pop\n        /* \"@openzeppelin/contracts/utils/cryptography/SignatureChecker.sol\":1983:2099  signer.staticcall(... */\n      mload(0x40)\n      tag_126\n      swap2\n      swap1\n      tag_127\n      jump\t// in\n    tag_126:\n      0x00\n      mload(0x40)\n      dup1\n      dup4\n      sub\n      dup2\n      dup6\n      gas\n      staticcall\n      swap2\n      pop\n      pop\n      returndatasize\n      dup1\n      0x00\n      dup2\n      eq\n      tag_130\n      jumpi\n      mload(0x40)\n      swap2\n      pop\n      and(add(returndatasize, 0x3f), not(0x1f))\n      dup3\n      add\n      0x40\n      mstore\n      returndatasize\n      dup3\n      mstore\n      returndatasize\n      0x00\n      0x20\n      dup5\n      add\n      returndatacopy\n      jump(tag_129)\n    tag_130:\n      0x60\n      swap2\n      pop\n    tag_129:\n      pop\n        /* \"@openzeppelin/contracts/utils/cryptography/SignatureChecker.sol\":1945:2099  (bool success, bytes memory result) = signer.staticcall(... */\n      swap2\n      pop\n      swap2\n      pop\n        /* \"@openzeppelin/contracts/utils/cryptography/SignatureChecker.sol\":2117:2124  success */\n      dup2\n        /* \"@openzeppelin/contracts/utils/cryptography/SignatureChecker.sol\":2117:2159  success &&... */\n      dup1\n      iszero\n      tag_131\n      jumpi\n      pop\n        /* \"@openzeppelin/contracts/utils/cryptography/SignatureChecker.sol\":2157:2159  32 */\n      0x20\n        /* \"@openzeppelin/contracts/utils/cryptography/SignatureChecker.sol\":2140:2146  result */\n      dup2\n        /* \"@openzeppelin/contracts/utils/cryptography/SignatureChecker.sol\":2140:2153  result.length */\n      mload\n        /* \"@openzeppelin/contracts/utils/cryptography/SignatureChecker.sol\":2140:2159  result.length >= 32 */\n      lt\n      iszero\n        /* \"@openzeppelin/contracts/utils/cryptography/SignatureChecker.sol\":2117:2159  success &&... */\n    tag_131:\n        /* \"@openzeppelin/contracts/utils/cryptography/SignatureChecker.sol\":2117:2251  success &&... */\n      dup1\n      iszero\n      tag_132\n      jumpi\n      pop\n        /* \"@openzeppelin/contracts/utils/cryptography/SignatureChecker.sol\":2216:2250  IERC1271.isValidSignature.selector */\n      shl(0xe0, 0x1626ba7e)\n        /* \"@openzeppelin/contracts/utils/cryptography/SignatureChecker.sol\":2208:2251  bytes32(IERC1271.isValidSignature.selector) */\n      not(0xffffffffffffffffffffffffffffffffffffffffffffffffffffffff)\n      and\n        /* \"@openzeppelin/contracts/utils/cryptography/SignatureChecker.sol\":2186:2192  result */\n      dup2\n        /* \"@openzeppelin/contracts/utils/cryptography/SignatureChecker.sol\":2175:2204  abi.decode(result, (bytes32)) */\n      dup1\n      0x20\n      add\n      swap1\n      mload\n      dup2\n      add\n      swap1\n      tag_133\n      swap2\n      swap1\n      tag_134\n      jump\t// in\n    tag_133:\n        /* \"@openzeppelin/contracts/utils/cryptography/SignatureChecker.sol\":2175:2251  abi.decode(result, (bytes32)) == bytes32(IERC1271.isValidSignature.selector) */\n      eq\n        /* \"@openzeppelin/contracts/utils/cryptography/SignatureChecker.sol\":2117:2251  success &&... */\n    tag_132:\n        /* \"@openzeppelin/contracts/utils/cryptography/SignatureChecker.sol\":2109:2252  return (success &&... */\n      swap3\n      pop\n      pop\n      pop\n        /* \"@openzeppelin/contracts/utils/cryptography/SignatureChecker.sol\":1786:2259  function isValidERC1271SignatureNow(... */\n      swap4\n      swap3\n      pop\n      pop\n      pop\n      jump\t// out\n        /* \"Bytecode.sol\":1261:1380  function codeSize(address _addr) internal view returns (uint256 size) {... */\n    tag_110:\n        /* \"Bytecode.sol\":1317:1329  uint256 size */\n      0x00\n        /* \"Bytecode.sol\":1368:1373  _addr */\n      dup2\n        /* \"Bytecode.sol\":1356:1374  extcodesize(_addr) */\n      extcodesize\n        /* \"Bytecode.sol\":1348:1374  size := extcodesize(_addr) */\n      swap1\n      pop\n        /* \"Bytecode.sol\":1261:1380  function codeSize(address _addr) internal view returns (uint256 size) {... */\n      swap2\n      swap1\n      pop\n      jump\t// out\n        /* \"@openzeppelin/contracts/utils/cryptography/ECDSA.sol\":5009:6465  function tryRecover(bytes32 hash, uint8 v, bytes32 r, bytes32 s) internal pure returns (address, RecoverError) {... */\n    tag_121:\n        /* \"@openzeppelin/contracts/utils/cryptography/ECDSA.sol\":5097:5104  address */\n      0x00\n        /* \"@openzeppelin/contracts/utils/cryptography/ECDSA.sol\":5106:5118  RecoverError */\n      dup1\n        /* \"@openzeppelin/contracts/utils/cryptography/ECDSA.sol\":6021:6087  0x7FFFFFFFFFFFFFFFFFFFFFFFFFFFFFFF5D576E7357A4501DDFE92F46681B20A0 */\n      0x7fffffffffffffffffffffffffffffff5d576e7357a4501ddfe92f46681b20a0\n        /* \"@openzeppelin/contracts/utils/cryptography/ECDSA.sol\":6016:6017  s */\n      dup4\n        /* \"@openzeppelin/contracts/utils/cryptography/ECDSA.sol\":6008:6018  uint256(s) */\n      0x00\n      shr\n        /* \"@openzeppelin/contracts/utils/cryptography/ECDSA.sol\":6008:6087  uint256(s) > 0x7FFFFFFFFFFFFFFFFFFFFFFFFFFFFFFF5D576E7357A4501DDFE92F46681B20A0 */\n      gt\n        /* \"@openzeppelin/contracts/utils/cryptography/ECDSA.sol\":6004:6165  if (uint256(s) > 0x7FFFFFFFFFFFFFFFFFFFFFFFFFFFFFFF5D576E7357A4501DDFE92F46681B20A0) {... */\n      iszero\n      tag_137\n      jumpi\n        /* \"@openzeppelin/contracts/utils/cryptography/ECDSA.sol\":6119:6120  0 */\n      0x00\n        /* \"@openzeppelin/contracts/utils/cryptography/ECDSA.sol\":6123:6153  RecoverError.InvalidSignatureS */\n      0x03\n        /* \"@openzeppelin/contracts/utils/cryptography/ECDSA.sol\":6103:6154  return (address(0), RecoverError.InvalidSignatureS) */\n      swap2\n      pop\n      swap2\n      pop\n      jump(tag_136)\n        /* \"@openzeppelin/contracts/utils/cryptography/ECDSA.sol\":6004:6165  if (uint256(s) > 0x7FFFFFFFFFFFFFFFFFFFFFFFFFFFFFFF5D576E7357A4501DDFE92F46681B20A0) {... */\n    tag_137:\n        /* \"@openzeppelin/contracts/utils/cryptography/ECDSA.sol\":6259:6273  address signer */\n      0x00\n        /* \"@openzeppelin/contracts/utils/cryptography/ECDSA.sol\":6276:6300  ecrecover(hash, v, r, s) */\n      0x01\n        /* \"@openzeppelin/contracts/utils/cryptography/ECDSA.sol\":6286:6290  hash */\n      dup8\n        /* \"@openzeppelin/contracts/utils/cryptography/ECDSA.sol\":6292:6293  v */\n      dup8\n        /* \"@openzeppelin/contracts/utils/cryptography/ECDSA.sol\":6295:6296  r */\n      dup8\n        /* \"@openzeppelin/contracts/utils/cryptography/ECDSA.sol\":6298:6299  s */\n      dup8\n        /* \"@openzeppelin/contracts/utils/cryptography/ECDSA.sol\":6276:6300  ecrecover(hash, v, r, s) */\n      mload(0x40)\n      0x00\n      dup2\n      mstore\n      0x20\n      add\n      0x40\n      mstore\n      mload(0x40)\n      tag_138\n      swap5\n      swap4\n      swap3\n      swap2\n      swap1\n      tag_139\n      jump\t// in\n    tag_138:\n      0x20\n      mload(0x40)\n      0x20\n      dup2\n      sub\n      swap1\n      dup1\n      dup5\n      sub\n      swap1\n      dup6\n      gas\n      staticcall\n      iszero\n      dup1\n      iszero\n      tag_141\n      jumpi\n      returndatasize\n      0x00\n      dup1\n      returndatacopy\n      revert(0x00, returndatasize)\n    tag_141:\n      pop\n      pop\n      pop\n      mload(sub(mload(0x40), 0x20))\n        /* \"@openzeppelin/contracts/utils/cryptography/ECDSA.sol\":6259:6300  address signer = ecrecover(hash, v, r, s) */\n      swap1\n      pop\n        /* \"@openzeppelin/contracts/utils/cryptography/ECDSA.sol\":6332:6333  0 */\n      0x00\n        /* \"@openzeppelin/contracts/utils/cryptography/ECDSA.sol\":6314:6334  signer == address(0) */\n      0xffffffffffffffffffffffffffffffffffffffff\n      and\n        /* \"@openzeppelin/contracts/utils/cryptography/ECDSA.sol\":6314:6320  signer */\n      dup2\n        /* \"@openzeppelin/contracts/utils/cryptography/ECDSA.sol\":6314:6334  signer == address(0) */\n      0xffffffffffffffffffffffffffffffffffffffff\n      and\n      sub\n        /* \"@openzeppelin/contracts/utils/cryptography/ECDSA.sol\":6310:6411  if (signer == address(0)) {... */\n      tag_142\n      jumpi\n        /* \"@openzeppelin/contracts/utils/cryptography/ECDSA.sol\":6366:6367  0 */\n      0x00\n        /* \"@openzeppelin/contracts/utils/cryptography/ECDSA.sol\":6370:6399  RecoverError.InvalidSignature */\n      0x01\n        /* \"@openzeppelin/contracts/utils/cryptography/ECDSA.sol\":6350:6400  return (address(0), RecoverError.InvalidSignature) */\n      swap3\n      pop\n      swap3\n      pop\n      pop\n      jump(tag_136)\n        /* \"@openzeppelin/contracts/utils/cryptography/ECDSA.sol\":6310:6411  if (signer == address(0)) {... */\n    tag_142:\n        /* \"@openzeppelin/contracts/utils/cryptography/ECDSA.sol\":6429:6435  signer */\n      dup1\n        /* \"@openzeppelin/contracts/utils/cryptography/ECDSA.sol\":6437:6457  RecoverError.NoError */\n      0x00\n        /* \"@openzeppelin/contracts/utils/cryptography/ECDSA.sol\":6421:6458  return (signer, RecoverError.NoError) */\n      swap3\n      pop\n      swap3\n      pop\n      pop\n        /* \"@openzeppelin/contracts/utils/cryptography/ECDSA.sol\":5009:6465  function tryRecover(bytes32 hash, uint8 v, bytes32 r, bytes32 s) internal pure returns (address, RecoverError) {... */\n    tag_136:\n      swap5\n      pop\n      swap5\n      swap3\n      pop\n      pop\n      pop\n      jump\t// out\n        /* \"#utility.yul\":7:82   */\n    tag_143:\n        /* \"#utility.yul\":40:46   */\n      0x00\n        /* \"#utility.yul\":73:75   */\n      0x40\n        /* \"#utility.yul\":67:76   */\n      mload\n        /* \"#utility.yul\":57:76   */\n      swap1\n      pop\n        /* \"#utility.yul\":7:82   */\n      swap1\n      jump\t// out\n        /* \"#utility.yul\":88:205   */\n    tag_144:\n        /* \"#utility.yul\":197:198   */\n      0x00\n        /* \"#utility.yul\":194:195   */\n      dup1\n        /* \"#utility.yul\":187:199   */\n      revert\n        /* \"#utility.yul\":211:328   */\n    tag_145:\n        /* \"#utility.yul\":320:321   */\n      0x00\n        /* \"#utility.yul\":317:318   */\n      dup1\n        /* \"#utility.yul\":310:322   */\n      revert\n        /* \"#utility.yul\":334:483   */\n    tag_146:\n        /* \"#utility.yul\":370:377   */\n      0x00\n        /* \"#utility.yul\":410:476   */\n      0xffffffff00000000000000000000000000000000000000000000000000000000\n        /* \"#utility.yul\":403:408   */\n      dup3\n        /* \"#utility.yul\":399:477   */\n      and\n        /* \"#utility.yul\":388:477   */\n      swap1\n      pop\n        /* \"#utility.yul\":334:483   */\n      swap2\n      swap1\n      pop\n      jump\t// out\n        /* \"#utility.yul\":489:609   */\n    tag_147:\n        /* \"#utility.yul\":561:584   */\n      tag_207\n        /* \"#utility.yul\":578:583   */\n      dup2\n        /* \"#utility.yul\":561:584   */\n      tag_146\n      jump\t// in\n    tag_207:\n        /* \"#utility.yul\":554:559   */\n      dup2\n        /* \"#utility.yul\":551:585   */\n      eq\n        /* \"#utility.yul\":541:603   */\n      tag_208\n      jumpi\n        /* \"#utility.yul\":599:600   */\n      0x00\n        /* \"#utility.yul\":596:597   */\n      dup1\n        /* \"#utility.yul\":589:601   */\n      revert\n        /* \"#utility.yul\":541:603   */\n    tag_208:\n        /* \"#utility.yul\":489:609   */\n      pop\n      jump\t// out\n        /* \"#utility.yul\":615:752   */\n    tag_148:\n        /* \"#utility.yul\":660:665   */\n      0x00\n        /* \"#utility.yul\":698:704   */\n      dup2\n        /* \"#utility.yul\":685:705   */\n      calldataload\n        /* \"#utility.yul\":676:705   */\n      swap1\n      pop\n        /* \"#utility.yul\":714:746   */\n      tag_210\n        /* \"#utility.yul\":740:745   */\n      dup2\n        /* \"#utility.yul\":714:746   */\n      tag_147\n      jump\t// in\n    tag_210:\n        /* \"#utility.yul\":615:752   */\n      swap3\n      swap2\n      pop\n      pop\n      jump\t// out\n        /* \"#utility.yul\":758:1085   */\n    tag_14:\n        /* \"#utility.yul\":816:822   */\n      0x00\n        /* \"#utility.yul\":865:867   */\n      0x20\n        /* \"#utility.yul\":853:862   */\n      dup3\n        /* \"#utility.yul\":844:851   */\n      dup5\n        /* \"#utility.yul\":840:863   */\n      sub\n        /* \"#utility.yul\":836:868   */\n      slt\n        /* \"#utility.yul\":833:952   */\n      iszero\n      tag_212\n      jumpi\n        /* \"#utility.yul\":871:950   */\n      tag_213\n      tag_144\n      jump\t// in\n    tag_213:\n        /* \"#utility.yul\":833:952   */\n    tag_212:\n        /* \"#utility.yul\":991:992   */\n      0x00\n        /* \"#utility.yul\":1016:1068   */\n      tag_214\n        /* \"#utility.yul\":1060:1067   */\n      dup5\n        /* \"#utility.yul\":1051:1057   */\n      dup3\n        /* \"#utility.yul\":1040:1049   */\n      dup6\n        /* \"#utility.yul\":1036:1058   */\n      add\n        /* \"#utility.yul\":1016:1068   */\n      tag_148\n      jump\t// in\n    tag_214:\n        /* \"#utility.yul\":1006:1068   */\n      swap2\n      pop\n        /* \"#utility.yul\":962:1078   */\n      pop\n        /* \"#utility.yul\":758:1085   */\n      swap3\n      swap2\n      pop\n      pop\n      jump\t// out\n        /* \"#utility.yul\":1091:1181   */\n    tag_149:\n        /* \"#utility.yul\":1125:1132   */\n      0x00\n        /* \"#utility.yul\":1168:1173   */\n      dup2\n        /* \"#utility.yul\":1161:1174   */\n      iszero\n        /* \"#utility.yul\":1154:1175   */\n      iszero\n        /* \"#utility.yul\":1143:1175   */\n      swap1\n      pop\n        /* \"#utility.yul\":1091:1181   */\n      swap2\n      swap1\n      pop\n      jump\t// out\n        /* \"#utility.yul\":1187:1296   */\n    tag_150:\n        /* \"#utility.yul\":1268:1289   */\n      tag_217\n        /* \"#utility.yul\":1283:1288   */\n      dup2\n        /* \"#utility.yul\":1268:1289   */\n      tag_149\n      jump\t// in\n    tag_217:\n        /* \"#utility.yul\":1263:1266   */\n      dup3\n        /* \"#utility.yul\":1256:1290   */\n      mstore\n        /* \"#utility.yul\":1187:1296   */\n      pop\n      pop\n      jump\t// out\n        /* \"#utility.yul\":1302:1512   */\n    tag_17:\n        /* \"#utility.yul\":1389:1393   */\n      0x00\n        /* \"#utility.yul\":1427:1429   */\n      0x20\n        /* \"#utility.yul\":1416:1425   */\n      dup3\n        /* \"#utility.yul\":1412:1430   */\n      add\n        /* \"#utility.yul\":1404:1430   */\n      swap1\n      pop\n        /* \"#utility.yul\":1440:1505   */\n      tag_219\n        /* \"#utility.yul\":1502:1503   */\n      0x00\n        /* \"#utility.yul\":1491:1500   */\n      dup4\n        /* \"#utility.yul\":1487:1504   */\n      add\n        /* \"#utility.yul\":1478:1484   */\n      dup5\n        /* \"#utility.yul\":1440:1505   */\n      tag_150\n      jump\t// in\n    tag_219:\n        /* \"#utility.yul\":1302:1512   */\n      swap3\n      swap2\n      pop\n      pop\n      jump\t// out\n        /* \"#utility.yul\":1518:1595   */\n    tag_151:\n        /* \"#utility.yul\":1555:1562   */\n      0x00\n        /* \"#utility.yul\":1584:1589   */\n      dup2\n        /* \"#utility.yul\":1573:1589   */\n      swap1\n      pop\n        /* \"#utility.yul\":1518:1595   */\n      swap2\n      swap1\n      pop\n      jump\t// out\n        /* \"#utility.yul\":1601:1723   */\n    tag_152:\n        /* \"#utility.yul\":1674:1698   */\n      tag_222\n        /* \"#utility.yul\":1692:1697   */\n      dup2\n        /* \"#utility.yul\":1674:1698   */\n      tag_151\n      jump\t// in\n    tag_222:\n        /* \"#utility.yul\":1667:1672   */\n      dup2\n        /* \"#utility.yul\":1664:1699   */\n      eq\n        /* \"#utility.yul\":1654:1717   */\n      tag_223\n      jumpi\n        /* \"#utility.yul\":1713:1714   */\n      0x00\n        /* \"#utility.yul\":1710:1711   */\n      dup1\n        /* \"#utility.yul\":1703:1715   */\n      revert\n        /* \"#utility.yul\":1654:1717   */\n    tag_223:\n        /* \"#utility.yul\":1601:1723   */\n      pop\n      jump\t// out\n        /* \"#utility.yul\":1729:1868   */\n    tag_153:\n        /* \"#utility.yul\":1775:1780   */\n      0x00\n        /* \"#utility.yul\":1813:1819   */\n      dup2\n        /* \"#utility.yul\":1800:1820   */\n      calldataload\n        /* \"#utility.yul\":1791:1820   */\n      swap1\n      pop\n        /* \"#utility.yul\":1829:1862   */\n      tag_225\n        /* \"#utility.yul\":1856:1861   */\n      dup2\n        /* \"#utility.yul\":1829:1862   */\n      tag_152\n      jump\t// in\n    tag_225:\n        /* \"#utility.yul\":1729:1868   */\n      swap3\n      swap2\n      pop\n      pop\n      jump\t// out\n        /* \"#utility.yul\":1874:1991   */\n    tag_154:\n        /* \"#utility.yul\":1983:1984   */\n      0x00\n        /* \"#utility.yul\":1980:1981   */\n      dup1\n        /* \"#utility.yul\":1973:1985   */\n      revert\n        /* \"#utility.yul\":1997:2114   */\n    tag_155:\n        /* \"#utility.yul\":2106:2107   */\n      0x00\n        /* \"#utility.yul\":2103:2104   */\n      dup1\n        /* \"#utility.yul\":2096:2108   */\n      revert\n        /* \"#utility.yul\":2120:2222   */\n    tag_156:\n        /* \"#utility.yul\":2161:2167   */\n      0x00\n        /* \"#utility.yul\":2212:2214   */\n      0x1f\n        /* \"#utility.yul\":2208:2215   */\n      not\n        /* \"#utility.yul\":2203:2205   */\n      0x1f\n        /* \"#utility.yul\":2196:2201   */\n      dup4\n        /* \"#utility.yul\":2192:2206   */\n      add\n        /* \"#utility.yul\":2188:2216   */\n      and\n        /* \"#utility.yul\":2178:2216   */\n      swap1\n      pop\n        /* \"#utility.yul\":2120:2222   */\n      swap2\n      swap1\n      pop\n      jump\t// out\n        /* \"#utility.yul\":2228:2408   */\n    tag_157:\n        /* \"#utility.yul\":2276:2353   */\n      0x4e487b7100000000000000000000000000000000000000000000000000000000\n        /* \"#utility.yul\":2273:2274   */\n      0x00\n        /* \"#utility.yul\":2266:2354   */\n      mstore\n        /* \"#utility.yul\":2373:2377   */\n      0x41\n        /* \"#utility.yul\":2370:2371   */\n      0x04\n        /* \"#utility.yul\":2363:2378   */\n      mstore\n        /* \"#utility.yul\":2397:2401   */\n      0x24\n        /* \"#utility.yul\":2394:2395   */\n      0x00\n        /* \"#utility.yul\":2387:2402   */\n      revert\n        /* \"#utility.yul\":2414:2695   */\n    tag_158:\n        /* \"#utility.yul\":2497:2524   */\n      tag_231\n        /* \"#utility.yul\":2519:2523   */\n      dup3\n        /* \"#utility.yul\":2497:2524   */\n      tag_156\n      jump\t// in\n    tag_231:\n        /* \"#utility.yul\":2489:2495   */\n      dup2\n        /* \"#utility.yul\":2485:2525   */\n      add\n        /* \"#utility.yul\":2627:2633   */\n      dup2\n        /* \"#utility.yul\":2615:2625   */\n      dup2\n        /* \"#utility.yul\":2612:2634   */\n      lt\n        /* \"#utility.yul\":2591:2609   */\n      0xffffffffffffffff\n        /* \"#utility.yul\":2579:2589   */\n      dup3\n        /* \"#utility.yul\":2576:2610   */\n      gt\n        /* \"#utility.yul\":2573:2635   */\n      or\n        /* \"#utility.yul\":2570:2658   */\n      iszero\n      tag_232\n      jumpi\n        /* \"#utility.yul\":2638:2656   */\n      tag_233\n      tag_157\n      jump\t// in\n    tag_233:\n        /* \"#utility.yul\":2570:2658   */\n    tag_232:\n        /* \"#utility.yul\":2678:2688   */\n      dup1\n        /* \"#utility.yul\":2674:2676   */\n      0x40\n        /* \"#utility.yul\":2667:2689   */\n      mstore\n        /* \"#utility.yul\":2457:2695   */\n      pop\n        /* \"#utility.yul\":2414:2695   */\n      pop\n      pop\n      jump\t// out\n        /* \"#utility.yul\":2701:2830   */\n    tag_159:\n        /* \"#utility.yul\":2735:2741   */\n      0x00\n        /* \"#utility.yul\":2762:2782   */\n      tag_235\n      tag_143\n      jump\t// in\n    tag_235:\n        /* \"#utility.yul\":2752:2782   */\n      swap1\n      pop\n        /* \"#utility.yul\":2791:2824   */\n      tag_236\n        /* \"#utility.yul\":2819:2823   */\n      dup3\n        /* \"#utility.yul\":2811:2817   */\n      dup3\n        /* \"#utility.yul\":2791:2824   */\n      tag_158\n      jump\t// in\n    tag_236:\n        /* \"#utility.yul\":2701:2830   */\n      swap2\n      swap1\n      pop\n      jump\t// out\n        /* \"#utility.yul\":2836:3143   */\n    tag_160:\n        /* \"#utility.yul\":2897:2901   */\n      0x00\n        /* \"#utility.yul\":2987:3005   */\n      0xffffffffffffffff\n        /* \"#utility.yul\":2979:2985   */\n      dup3\n        /* \"#utility.yul\":2976:3006   */\n      gt\n        /* \"#utility.yul\":2973:3029   */\n      iszero\n      tag_238\n      jumpi\n        /* \"#utility.yul\":3009:3027   */\n      tag_239\n      tag_157\n      jump\t// in\n    tag_239:\n        /* \"#utility.yul\":2973:3029   */\n    tag_238:\n        /* \"#utility.yul\":3047:3076   */\n      tag_240\n        /* \"#utility.yul\":3069:3075   */\n      dup3\n        /* \"#utility.yul\":3047:3076   */\n      tag_156\n      jump\t// in\n    tag_240:\n        /* \"#utility.yul\":3039:3076   */\n      swap1\n      pop\n        /* \"#utility.yul\":3131:3135   */\n      0x20\n        /* \"#utility.yul\":3125:3129   */\n      dup2\n        /* \"#utility.yul\":3121:3136   */\n      add\n        /* \"#utility.yul\":3113:3136   */\n      swap1\n      pop\n        /* \"#utility.yul\":2836:3143   */\n      swap2\n      swap1\n      pop\n      jump\t// out\n        /* \"#utility.yul\":3149:3295   */\n    tag_161:\n        /* \"#utility.yul\":3246:3252   */\n      dup3\n        /* \"#utility.yul\":3241:3244   */\n      dup2\n        /* \"#utility.yul\":3236:3239   */\n      dup4\n        /* \"#utility.yul\":3223:3253   */\n      calldatacopy\n        /* \"#utility.yul\":3287:3288   */\n      0x00\n        /* \"#utility.yul\":3278:3284   */\n      dup4\n        /* \"#utility.yul\":3273:3276   */\n      dup4\n        /* \"#utility.yul\":3269:3285   */\n      add\n        /* \"#utility.yul\":3262:3289   */\n      mstore\n        /* \"#utility.yul\":3149:3295   */\n      pop\n      pop\n      pop\n      jump\t// out\n        /* \"#utility.yul\":3301:3724   */\n    tag_162:\n        /* \"#utility.yul\":3378:3383   */\n      0x00\n        /* \"#utility.yul\":3403:3468   */\n      tag_243\n        /* \"#utility.yul\":3419:3467   */\n      tag_244\n        /* \"#utility.yul\":3460:3466   */\n      dup5\n        /* \"#utility.yul\":3419:3467   */\n      tag_160\n      jump\t// in\n    tag_244:\n        /* \"#utility.yul\":3403:3468   */\n      tag_159\n      jump\t// in\n    tag_243:\n        /* \"#utility.yul\":3394:3468   */\n      swap1\n      pop\n        /* \"#utility.yul\":3491:3497   */\n      dup3\n        /* \"#utility.yul\":3484:3489   */\n      dup2\n        /* \"#utility.yul\":3477:3498   */\n      mstore\n        /* \"#utility.yul\":3529:3533   */\n      0x20\n        /* \"#utility.yul\":3522:3527   */\n      dup2\n        /* \"#utility.yul\":3518:3534   */\n      add\n        /* \"#utility.yul\":3567:3570   */\n      dup5\n        /* \"#utility.yul\":3558:3564   */\n      dup5\n        /* \"#utility.yul\":3553:3556   */\n      dup5\n        /* \"#utility.yul\":3549:3565   */\n      add\n        /* \"#utility.yul\":3546:3571   */\n      gt\n        /* \"#utility.yul\":3543:3655   */\n      iszero\n      tag_245\n      jumpi\n        /* \"#utility.yul\":3574:3653   */\n      tag_246\n      tag_155\n      jump\t// in\n    tag_246:\n        /* \"#utility.yul\":3543:3655   */\n    tag_245:\n        /* \"#utility.yul\":3664:3718   */\n      tag_247\n        /* \"#utility.yul\":3711:3717   */\n      dup5\n        /* \"#utility.yul\":3706:3709   */\n      dup3\n        /* \"#utility.yul\":3701:3704   */\n      dup6\n        /* \"#utility.yul\":3664:3718   */\n      tag_161\n      jump\t// in\n    tag_247:\n        /* \"#utility.yul\":3384:3724   */\n      pop\n        /* \"#utility.yul\":3301:3724   */\n      swap4\n      swap3\n      pop\n      pop\n      pop\n      jump\t// out\n        /* \"#utility.yul\":3743:4081   */\n    tag_163:\n        /* \"#utility.yul\":3798:3803   */\n      0x00\n        /* \"#utility.yul\":3847:3850   */\n      dup3\n        /* \"#utility.yul\":3840:3844   */\n      0x1f\n        /* \"#utility.yul\":3832:3838   */\n      dup4\n        /* \"#utility.yul\":3828:3845   */\n      add\n        /* \"#utility.yul\":3824:3851   */\n      slt\n        /* \"#utility.yul\":3814:3936   */\n      tag_249\n      jumpi\n        /* \"#utility.yul\":3855:3934   */\n      tag_250\n      tag_154\n      jump\t// in\n    tag_250:\n        /* \"#utility.yul\":3814:3936   */\n    tag_249:\n        /* \"#utility.yul\":3972:3978   */\n      dup2\n        /* \"#utility.yul\":3959:3979   */\n      calldataload\n        /* \"#utility.yul\":3997:4075   */\n      tag_251\n        /* \"#utility.yul\":4071:4074   */\n      dup5\n        /* \"#utility.yul\":4063:4069   */\n      dup3\n        /* \"#utility.yul\":4056:4060   */\n      0x20\n        /* \"#utility.yul\":4048:4054   */\n      dup7\n        /* \"#utility.yul\":4044:4061   */\n      add\n        /* \"#utility.yul\":3997:4075   */\n      tag_162\n      jump\t// in\n    tag_251:\n        /* \"#utility.yul\":3988:4075   */\n      swap2\n      pop\n        /* \"#utility.yul\":3804:4081   */\n      pop\n        /* \"#utility.yul\":3743:4081   */\n      swap3\n      swap2\n      pop\n      pop\n      jump\t// out\n        /* \"#utility.yul\":4087:4739   */\n    tag_21:\n        /* \"#utility.yul\":4164:4170   */\n      0x00\n        /* \"#utility.yul\":4172:4178   */\n      dup1\n        /* \"#utility.yul\":4221:4223   */\n      0x40\n        /* \"#utility.yul\":4209:4218   */\n      dup4\n        /* \"#utility.yul\":4200:4207   */\n      dup6\n        /* \"#utility.yul\":4196:4219   */\n      sub\n        /* \"#utility.yul\":4192:4224   */\n      slt\n        /* \"#utility.yul\":4189:4308   */\n      iszero\n      tag_253\n      jumpi\n        /* \"#utility.yul\":4227:4306   */\n      tag_254\n      tag_144\n      jump\t// in\n    tag_254:\n        /* \"#utility.yul\":4189:4308   */\n    tag_253:\n        /* \"#utility.yul\":4347:4348   */\n      0x00\n        /* \"#utility.yul\":4372:4425   */\n      tag_255\n        /* \"#utility.yul\":4417:4424   */\n      dup6\n        /* \"#utility.yul\":4408:4414   */\n      dup3\n        /* \"#utility.yul\":4397:4406   */\n      dup7\n        /* \"#utility.yul\":4393:4415   */\n      add\n        /* \"#utility.yul\":4372:4425   */\n      tag_153\n      jump\t// in\n    tag_255:\n        /* \"#utility.yul\":4362:4425   */\n      swap3\n      pop\n        /* \"#utility.yul\":4318:4435   */\n      pop\n        /* \"#utility.yul\":4502:4504   */\n      0x20\n        /* \"#utility.yul\":4491:4500   */\n      dup4\n        /* \"#utility.yul\":4487:4505   */\n      add\n        /* \"#utility.yul\":4474:4506   */\n      calldataload\n        /* \"#utility.yul\":4533:4551   */\n      0xffffffffffffffff\n        /* \"#utility.yul\":4525:4531   */\n      dup2\n        /* \"#utility.yul\":4522:4552   */\n      gt\n        /* \"#utility.yul\":4519:4636   */\n      iszero\n      tag_256\n      jumpi\n        /* \"#utility.yul\":4555:4634   */\n      tag_257\n      tag_145\n      jump\t// in\n    tag_257:\n        /* \"#utility.yul\":4519:4636   */\n    tag_256:\n        /* \"#utility.yul\":4660:4722   */\n      tag_258\n        /* \"#utility.yul\":4714:4721   */\n      dup6\n        /* \"#utility.yul\":4705:4711   */\n      dup3\n        /* \"#utility.yul\":4694:4703   */\n      dup7\n        /* \"#utility.yul\":4690:4712   */\n      add\n        /* \"#utility.yul\":4660:4722   */\n      tag_163\n      jump\t// in\n    tag_258:\n        /* \"#utility.yul\":4650:4722   */\n      swap2\n      pop\n        /* \"#utility.yul\":4445:4732   */\n      pop\n        /* \"#utility.yul\":4087:4739   */\n      swap3\n      pop\n      swap3\n      swap1\n      pop\n      jump\t// out\n        /* \"#utility.yul\":4745:4860   */\n    tag_164:\n        /* \"#utility.yul\":4830:4853   */\n      tag_260\n        /* \"#utility.yul\":4847:4852   */\n      dup2\n        /* \"#utility.yul\":4830:4853   */\n      tag_146\n      jump\t// in\n    tag_260:\n        /* \"#utility.yul\":4825:4828   */\n      dup3\n        /* \"#utility.yul\":4818:4854   */\n      mstore\n        /* \"#utility.yul\":4745:4860   */\n      pop\n      pop\n      jump\t// out\n        /* \"#utility.yul\":4866:5084   */\n    tag_24:\n        /* \"#utility.yul\":4957:4961   */\n      0x00\n        /* \"#utility.yul\":4995:4997   */\n      0x20\n        /* \"#utility.yul\":4984:4993   */\n      dup3\n        /* \"#utility.yul\":4980:4998   */\n      add\n        /* \"#utility.yul\":4972:4998   */\n      swap1\n      pop\n        /* \"#utility.yul\":5008:5077   */\n      tag_262\n        /* \"#utility.yul\":5074:5075   */\n      0x00\n        /* \"#utility.yul\":5063:5072   */\n      dup4\n        /* \"#utility.yul\":5059:5076   */\n      add\n        /* \"#utility.yul\":5050:5056   */\n      dup5\n        /* \"#utility.yul\":5008:5077   */\n      tag_164\n      jump\t// in\n    tag_262:\n        /* \"#utility.yul\":4866:5084   */\n      swap3\n      swap2\n      pop\n      pop\n      jump\t// out\n        /* \"#utility.yul\":5090:5216   */\n    tag_165:\n        /* \"#utility.yul\":5127:5134   */\n      0x00\n        /* \"#utility.yul\":5167:5209   */\n      0xffffffffffffffffffffffffffffffffffffffff\n        /* \"#utility.yul\":5160:5165   */\n      dup3\n        /* \"#utility.yul\":5156:5210   */\n      and\n        /* \"#utility.yul\":5145:5210   */\n      swap1\n      pop\n        /* \"#utility.yul\":5090:5216   */\n      swap2\n      swap1\n      pop\n      jump\t// out\n        /* \"#utility.yul\":5222:5318   */\n    tag_166:\n        /* \"#utility.yul\":5259:5266   */\n      0x00\n        /* \"#utility.yul\":5288:5312   */\n      tag_265\n        /* \"#utility.yul\":5306:5311   */\n      dup3\n        /* \"#utility.yul\":5288:5312   */\n      tag_165\n      jump\t// in\n    tag_265:\n        /* \"#utility.yul\":5277:5312   */\n      swap1\n      pop\n        /* \"#utility.yul\":5222:5318   */\n      swap2\n      swap1\n      pop\n      jump\t// out\n        /* \"#utility.yul\":5324:5446   */\n    tag_167:\n        /* \"#utility.yul\":5397:5421   */\n      tag_267\n        /* \"#utility.yul\":5415:5420   */\n      dup2\n        /* \"#utility.yul\":5397:5421   */\n      tag_166\n      jump\t// in\n    tag_267:\n        /* \"#utility.yul\":5390:5395   */\n      dup2\n        /* \"#utility.yul\":5387:5422   */\n      eq\n        /* \"#utility.yul\":5377:5440   */\n      tag_268\n      jumpi\n        /* \"#utility.yul\":5436:5437   */\n      0x00\n        /* \"#utility.yul\":5433:5434   */\n      dup1\n        /* \"#utility.yul\":5426:5438   */\n      revert\n        /* \"#utility.yul\":5377:5440   */\n    tag_268:\n        /* \"#utility.yul\":5324:5446   */\n      pop\n      jump\t// out\n        /* \"#utility.yul\":5452:5591   */\n    tag_168:\n        /* \"#utility.yul\":5498:5503   */\n      0x00\n        /* \"#utility.yul\":5536:5542   */\n      dup2\n        /* \"#utility.yul\":5523:5543   */\n      calldataload\n        /* \"#utility.yul\":5514:5543   */\n      swap1\n      pop\n        /* \"#utility.yul\":5552:5585   */\n      tag_270\n        /* \"#utility.yul\":5579:5584   */\n      dup2\n        /* \"#utility.yul\":5552:5585   */\n      tag_167\n      jump\t// in\n    tag_270:\n        /* \"#utility.yul\":5452:5591   */\n      swap3\n      swap2\n      pop\n      pop\n      jump\t// out\n        /* \"#utility.yul\":5597:5674   */\n    tag_169:\n        /* \"#utility.yul\":5634:5641   */\n      0x00\n        /* \"#utility.yul\":5663:5668   */\n      dup2\n        /* \"#utility.yul\":5652:5668   */\n      swap1\n      pop\n        /* \"#utility.yul\":5597:5674   */\n      swap2\n      swap1\n      pop\n      jump\t// out\n        /* \"#utility.yul\":5680:5802   */\n    tag_170:\n        /* \"#utility.yul\":5753:5777   */\n      tag_273\n        /* \"#utility.yul\":5771:5776   */\n      dup2\n        /* \"#utility.yul\":5753:5777   */\n      tag_169\n      jump\t// in\n    tag_273:\n        /* \"#utility.yul\":5746:5751   */\n      dup2\n        /* \"#utility.yul\":5743:5778   */\n      eq\n        /* \"#utility.yul\":5733:5796   */\n      tag_274\n      jumpi\n        /* \"#utility.yul\":5792:5793   */\n      0x00\n        /* \"#utility.yul\":5789:5790   */\n      dup1\n        /* \"#utility.yul\":5782:5794   */\n      revert\n        /* \"#utility.yul\":5733:5796   */\n    tag_274:\n        /* \"#utility.yul\":5680:5802   */\n      pop\n      jump\t// out\n        /* \"#utility.yul\":5808:5947   */\n    tag_171:\n        /* \"#utility.yul\":5854:5859   */\n      0x00\n        /* \"#utility.yul\":5892:5898   */\n      dup2\n        /* \"#utility.yul\":5879:5899   */\n      calldataload\n        /* \"#utility.yul\":5870:5899   */\n      swap1\n      pop\n        /* \"#utility.yul\":5908:5941   */\n      tag_276\n        /* \"#utility.yul\":5935:5940   */\n      dup2\n        /* \"#utility.yul\":5908:5941   */\n      tag_170\n      jump\t// in\n    tag_276:\n        /* \"#utility.yul\":5808:5947   */\n      swap3\n      swap2\n      pop\n      pop\n      jump\t// out\n        /* \"#utility.yul\":5953:6572   */\n    tag_28:\n        /* \"#utility.yul\":6030:6036   */\n      0x00\n        /* \"#utility.yul\":6038:6044   */\n      dup1\n        /* \"#utility.yul\":6046:6052   */\n      0x00\n        /* \"#utility.yul\":6095:6097   */\n      0x60\n        /* \"#utility.yul\":6083:6092   */\n      dup5\n        /* \"#utility.yul\":6074:6081   */\n      dup7\n        /* \"#utility.yul\":6070:6093   */\n      sub\n        /* \"#utility.yul\":6066:6098   */\n      slt\n        /* \"#utility.yul\":6063:6182   */\n      iszero\n      tag_278\n      jumpi\n        /* \"#utility.yul\":6101:6180   */\n      tag_279\n      tag_144\n      jump\t// in\n    tag_279:\n        /* \"#utility.yul\":6063:6182   */\n    tag_278:\n        /* \"#utility.yul\":6221:6222   */\n      0x00\n        /* \"#utility.yul\":6246:6299   */\n      tag_280\n        /* \"#utility.yul\":6291:6298   */\n      dup7\n        /* \"#utility.yul\":6282:6288   */\n      dup3\n        /* \"#utility.yul\":6271:6280   */\n      dup8\n        /* \"#utility.yul\":6267:6289   */\n      add\n        /* \"#utility.yul\":6246:6299   */\n      tag_168\n      jump\t// in\n    tag_280:\n        /* \"#utility.yul\":6236:6299   */\n      swap4\n      pop\n        /* \"#utility.yul\":6192:6309   */\n      pop\n        /* \"#utility.yul\":6348:6350   */\n      0x20\n        /* \"#utility.yul\":6374:6427   */\n      tag_281\n        /* \"#utility.yul\":6419:6426   */\n      dup7\n        /* \"#utility.yul\":6410:6416   */\n      dup3\n        /* \"#utility.yul\":6399:6408   */\n      dup8\n        /* \"#utility.yul\":6395:6417   */\n      add\n        /* \"#utility.yul\":6374:6427   */\n      tag_168\n      jump\t// in\n    tag_281:\n        /* \"#utility.yul\":6364:6427   */\n      swap3\n      pop\n        /* \"#utility.yul\":6319:6437   */\n      pop\n        /* \"#utility.yul\":6476:6478   */\n      0x40\n        /* \"#utility.yul\":6502:6555   */\n      tag_282\n        /* \"#utility.yul\":6547:6554   */\n      dup7\n        /* \"#utility.yul\":6538:6544   */\n      dup3\n        /* \"#utility.yul\":6527:6536   */\n      dup8\n        /* \"#utility.yul\":6523:6545   */\n      add\n        /* \"#utility.yul\":6502:6555   */\n      tag_171\n      jump\t// in\n    tag_282:\n        /* \"#utility.yul\":6492:6555   */\n      swap2\n      pop\n        /* \"#utility.yul\":6447:6565   */\n      pop\n        /* \"#utility.yul\":5953:6572   */\n      swap3\n      pop\n      swap3\n      pop\n      swap3\n      jump\t// out\n        /* \"#utility.yul\":6578:6696   */\n    tag_172:\n        /* \"#utility.yul\":6665:6689   */\n      tag_284\n        /* \"#utility.yul\":6683:6688   */\n      dup2\n        /* \"#utility.yul\":6665:6689   */\n      tag_166\n      jump\t// in\n    tag_284:\n        /* \"#utility.yul\":6660:6663   */\n      dup3\n        /* \"#utility.yul\":6653:6690   */\n      mstore\n        /* \"#utility.yul\":6578:6696   */\n      pop\n      pop\n      jump\t// out\n        /* \"#utility.yul\":6702:6924   */\n    tag_35:\n        /* \"#utility.yul\":6795:6799   */\n      0x00\n        /* \"#utility.yul\":6833:6835   */\n      0x20\n        /* \"#utility.yul\":6822:6831   */\n      dup3\n        /* \"#utility.yul\":6818:6836   */\n      add\n        /* \"#utility.yul\":6810:6836   */\n      swap1\n      pop\n        /* \"#utility.yul\":6846:6917   */\n      tag_286\n        /* \"#utility.yul\":6914:6915   */\n      0x00\n        /* \"#utility.yul\":6903:6912   */\n      dup4\n        /* \"#utility.yul\":6899:6916   */\n      add\n        /* \"#utility.yul\":6890:6896   */\n      dup5\n        /* \"#utility.yul\":6846:6917   */\n      tag_172\n      jump\t// in\n    tag_286:\n        /* \"#utility.yul\":6702:6924   */\n      swap3\n      swap2\n      pop\n      pop\n      jump\t// out\n        /* \"#utility.yul\":6930:7047   */\n    tag_173:\n        /* \"#utility.yul\":7039:7040   */\n      0x00\n        /* \"#utility.yul\":7036:7037   */\n      dup1\n        /* \"#utility.yul\":7029:7041   */\n      revert\n        /* \"#utility.yul\":7053:7170   */\n    tag_174:\n        /* \"#utility.yul\":7162:7163   */\n      0x00\n        /* \"#utility.yul\":7159:7160   */\n      dup1\n        /* \"#utility.yul\":7152:7164   */\n      revert\n        /* \"#utility.yul\":7189:7741   */\n    tag_175:\n        /* \"#utility.yul\":7246:7254   */\n      0x00\n        /* \"#utility.yul\":7256:7262   */\n      dup1\n        /* \"#utility.yul\":7306:7309   */\n      dup4\n        /* \"#utility.yul\":7299:7303   */\n      0x1f\n        /* \"#utility.yul\":7291:7297   */\n      dup5\n        /* \"#utility.yul\":7287:7304   */\n      add\n        /* \"#utility.yul\":7283:7310   */\n      slt\n        /* \"#utility.yul\":7273:7395   */\n      tag_290\n      jumpi\n        /* \"#utility.yul\":7314:7393   */\n      tag_291\n      tag_154\n      jump\t// in\n    tag_291:\n        /* \"#utility.yul\":7273:7395   */\n    tag_290:\n        /* \"#utility.yul\":7427:7433   */\n      dup3\n        /* \"#utility.yul\":7414:7434   */\n      calldataload\n        /* \"#utility.yul\":7404:7434   */\n      swap1\n      pop\n        /* \"#utility.yul\":7457:7475   */\n      0xffffffffffffffff\n        /* \"#utility.yul\":7449:7455   */\n      dup2\n        /* \"#utility.yul\":7446:7476   */\n      gt\n        /* \"#utility.yul\":7443:7560   */\n      iszero\n      tag_292\n      jumpi\n        /* \"#utility.yul\":7479:7558   */\n      tag_293\n      tag_173\n      jump\t// in\n    tag_293:\n        /* \"#utility.yul\":7443:7560   */\n    tag_292:\n        /* \"#utility.yul\":7593:7597   */\n      0x20\n        /* \"#utility.yul\":7585:7591   */\n      dup4\n        /* \"#utility.yul\":7581:7598   */\n      add\n        /* \"#utility.yul\":7569:7598   */\n      swap2\n      pop\n        /* \"#utility.yul\":7647:7650   */\n      dup4\n        /* \"#utility.yul\":7639:7643   */\n      0x01\n        /* \"#utility.yul\":7631:7637   */\n      dup3\n        /* \"#utility.yul\":7627:7644   */\n      mul\n        /* \"#utility.yul\":7617:7625   */\n      dup4\n        /* \"#utility.yul\":7613:7645   */\n      add\n        /* \"#utility.yul\":7610:7651   */\n      gt\n        /* \"#utility.yul\":7607:7735   */\n      iszero\n      tag_294\n      jumpi\n        /* \"#utility.yul\":7654:7733   */\n      tag_295\n      tag_174\n      jump\t// in\n    tag_295:\n        /* \"#utility.yul\":7607:7735   */\n    tag_294:\n        /* \"#utility.yul\":7189:7741   */\n      swap3\n      pop\n      swap3\n      swap1\n      pop\n      jump\t// out\n        /* \"#utility.yul\":7747:8564   */\n    tag_38:\n        /* \"#utility.yul\":7835:7841   */\n      0x00\n        /* \"#utility.yul\":7843:7849   */\n      dup1\n        /* \"#utility.yul\":7851:7857   */\n      0x00\n        /* \"#utility.yul\":7859:7865   */\n      dup1\n        /* \"#utility.yul\":7908:7910   */\n      0x60\n        /* \"#utility.yul\":7896:7905   */\n      dup6\n        /* \"#utility.yul\":7887:7894   */\n      dup8\n        /* \"#utility.yul\":7883:7906   */\n      sub\n        /* \"#utility.yul\":7879:7911   */\n      slt\n        /* \"#utility.yul\":7876:7995   */\n      iszero\n      tag_297\n      jumpi\n        /* \"#utility.yul\":7914:7993   */\n      tag_298\n      tag_144\n      jump\t// in\n    tag_298:\n        /* \"#utility.yul\":7876:7995   */\n    tag_297:\n        /* \"#utility.yul\":8034:8035   */\n      0x00\n        /* \"#utility.yul\":8059:8112   */\n      tag_299\n        /* \"#utility.yul\":8104:8111   */\n      dup8\n        /* \"#utility.yul\":8095:8101   */\n      dup3\n        /* \"#utility.yul\":8084:8093   */\n      dup9\n        /* \"#utility.yul\":8080:8102   */\n      add\n        /* \"#utility.yul\":8059:8112   */\n      tag_168\n      jump\t// in\n    tag_299:\n        /* \"#utility.yul\":8049:8112   */\n      swap5\n      pop\n        /* \"#utility.yul\":8005:8122   */\n      pop\n        /* \"#utility.yul\":8161:8163   */\n      0x20\n        /* \"#utility.yul\":8187:8240   */\n      tag_300\n        /* \"#utility.yul\":8232:8239   */\n      dup8\n        /* \"#utility.yul\":8223:8229   */\n      dup3\n        /* \"#utility.yul\":8212:8221   */\n      dup9\n        /* \"#utility.yul\":8208:8230   */\n      add\n        /* \"#utility.yul\":8187:8240   */\n      tag_171\n      jump\t// in\n    tag_300:\n        /* \"#utility.yul\":8177:8240   */\n      swap4\n      pop\n        /* \"#utility.yul\":8132:8250   */\n      pop\n        /* \"#utility.yul\":8317:8319   */\n      0x40\n        /* \"#utility.yul\":8306:8315   */\n      dup6\n        /* \"#utility.yul\":8302:8320   */\n      add\n        /* \"#utility.yul\":8289:8321   */\n      calldataload\n        /* \"#utility.yul\":8348:8366   */\n      0xffffffffffffffff\n        /* \"#utility.yul\":8340:8346   */\n      dup2\n        /* \"#utility.yul\":8337:8367   */\n      gt\n        /* \"#utility.yul\":8334:8451   */\n      iszero\n      tag_301\n      jumpi\n        /* \"#utility.yul\":8370:8449   */\n      tag_302\n      tag_145\n      jump\t// in\n    tag_302:\n        /* \"#utility.yul\":8334:8451   */\n    tag_301:\n        /* \"#utility.yul\":8483:8547   */\n      tag_303\n        /* \"#utility.yul\":8539:8546   */\n      dup8\n        /* \"#utility.yul\":8530:8536   */\n      dup3\n        /* \"#utility.yul\":8519:8528   */\n      dup9\n        /* \"#utility.yul\":8515:8537   */\n      add\n        /* \"#utility.yul\":8483:8547   */\n      tag_175\n      jump\t// in\n    tag_303:\n        /* \"#utility.yul\":8465:8547   */\n      swap3\n      pop\n      swap3\n      pop\n        /* \"#utility.yul\":8260:8557   */\n      pop\n        /* \"#utility.yul\":7747:8564   */\n      swap3\n      swap6\n      swap2\n      swap5\n      pop\n      swap3\n      pop\n      jump\t// out\n        /* \"#utility.yul\":8570:8668   */\n    tag_176:\n        /* \"#utility.yul\":8621:8627   */\n      0x00\n        /* \"#utility.yul\":8655:8660   */\n      dup2\n        /* \"#utility.yul\":8649:8661   */\n      mload\n        /* \"#utility.yul\":8639:8661   */\n      swap1\n      pop\n        /* \"#utility.yul\":8570:8668   */\n      swap2\n      swap1\n      pop\n      jump\t// out\n        /* \"#utility.yul\":8674:8842   */\n    tag_177:\n        /* \"#utility.yul\":8757:8768   */\n      0x00\n        /* \"#utility.yul\":8791:8797   */\n      dup3\n        /* \"#utility.yul\":8786:8789   */\n      dup3\n        /* \"#utility.yul\":8779:8798   */\n      mstore\n        /* \"#utility.yul\":8831:8835   */\n      0x20\n        /* \"#utility.yul\":8826:8829   */\n      dup3\n        /* \"#utility.yul\":8822:8836   */\n      add\n        /* \"#utility.yul\":8807:8836   */\n      swap1\n      pop\n        /* \"#utility.yul\":8674:8842   */\n      swap3\n      swap2\n      pop\n      pop\n      jump\t// out\n        /* \"#utility.yul\":8848:9094   */\n    tag_178:\n        /* \"#utility.yul\":8929:8930   */\n      0x00\n        /* \"#utility.yul\":8939:9052   */\n    tag_307:\n        /* \"#utility.yul\":8953:8959   */\n      dup4\n        /* \"#utility.yul\":8950:8951   */\n      dup2\n        /* \"#utility.yul\":8947:8960   */\n      lt\n        /* \"#utility.yul\":8939:9052   */\n      iszero\n      tag_309\n      jumpi\n        /* \"#utility.yul\":9038:9039   */\n      dup1\n        /* \"#utility.yul\":9033:9036   */\n      dup3\n        /* \"#utility.yul\":9029:9040   */\n      add\n        /* \"#utility.yul\":9023:9041   */\n      mload\n        /* \"#utility.yul\":9019:9020   */\n      dup2\n        /* \"#utility.yul\":9014:9017   */\n      dup5\n        /* \"#utility.yul\":9010:9021   */\n      add\n        /* \"#utility.yul\":9003:9042   */\n      mstore\n        /* \"#utility.yul\":8975:8977   */\n      0x20\n        /* \"#utility.yul\":8972:8973   */\n      dup2\n        /* \"#utility.yul\":8968:8978   */\n      add\n        /* \"#utility.yul\":8963:8978   */\n      swap1\n      pop\n        /* \"#utility.yul\":8939:9052   */\n      jump(tag_307)\n    tag_309:\n        /* \"#utility.yul\":9086:9087   */\n      0x00\n        /* \"#utility.yul\":9077:9083   */\n      dup5\n        /* \"#utility.yul\":9072:9075   */\n      dup5\n        /* \"#utility.yul\":9068:9084   */\n      add\n        /* \"#utility.yul\":9061:9088   */\n      mstore\n        /* \"#utility.yul\":8910:9094   */\n      pop\n        /* \"#utility.yul\":8848:9094   */\n      pop\n      pop\n      pop\n      jump\t// out\n        /* \"#utility.yul\":9100:9473   */\n    tag_179:\n        /* \"#utility.yul\":9186:9189   */\n      0x00\n        /* \"#utility.yul\":9214:9252   */\n      tag_311\n        /* \"#utility.yul\":9246:9251   */\n      dup3\n        /* \"#utility.yul\":9214:9252   */\n      tag_176\n      jump\t// in\n    tag_311:\n        /* \"#utility.yul\":9268:9338   */\n      tag_312\n        /* \"#utility.yul\":9331:9337   */\n      dup2\n        /* \"#utility.yul\":9326:9329   */\n      dup6\n        /* \"#utility.yul\":9268:9338   */\n      tag_177\n      jump\t// in\n    tag_312:\n        /* \"#utility.yul\":9261:9338   */\n      swap4\n      pop\n        /* \"#utility.yul\":9347:9412   */\n      tag_313\n        /* \"#utility.yul\":9405:9411   */\n      dup2\n        /* \"#utility.yul\":9400:9403   */\n      dup6\n        /* \"#utility.yul\":9393:9397   */\n      0x20\n        /* \"#utility.yul\":9386:9391   */\n      dup7\n        /* \"#utility.yul\":9382:9398   */\n      add\n        /* \"#utility.yul\":9347:9412   */\n      tag_178\n      jump\t// in\n    tag_313:\n        /* \"#utility.yul\":9437:9466   */\n      tag_314\n        /* \"#utility.yul\":9459:9465   */\n      dup2\n        /* \"#utility.yul\":9437:9466   */\n      tag_156\n      jump\t// in\n    tag_314:\n        /* \"#utility.yul\":9432:9435   */\n      dup5\n        /* \"#utility.yul\":9428:9467   */\n      add\n        /* \"#utility.yul\":9421:9467   */\n      swap2\n      pop\n        /* \"#utility.yul\":9190:9473   */\n      pop\n        /* \"#utility.yul\":9100:9473   */\n      swap3\n      swap2\n      pop\n      pop\n      jump\t// out\n        /* \"#utility.yul\":9479:9788   */\n    tag_41:\n        /* \"#utility.yul\":9590:9594   */\n      0x00\n        /* \"#utility.yul\":9628:9630   */\n      0x20\n        /* \"#utility.yul\":9617:9626   */\n      dup3\n        /* \"#utility.yul\":9613:9631   */\n      add\n        /* \"#utility.yul\":9605:9631   */\n      swap1\n      pop\n        /* \"#utility.yul\":9677:9686   */\n      dup2\n        /* \"#utility.yul\":9671:9675   */\n      dup2\n        /* \"#utility.yul\":9667:9687   */\n      sub\n        /* \"#utility.yul\":9663:9664   */\n      0x00\n        /* \"#utility.yul\":9652:9661   */\n      dup4\n        /* \"#utility.yul\":9648:9665   */\n      add\n        /* \"#utility.yul\":9641:9688   */\n      mstore\n        /* \"#utility.yul\":9705:9781   */\n      tag_316\n        /* \"#utility.yul\":9776:9780   */\n      dup2\n        /* \"#utility.yul\":9767:9773   */\n      dup5\n        /* \"#utility.yul\":9705:9781   */\n      tag_179\n      jump\t// in\n    tag_316:\n        /* \"#utility.yul\":9697:9781   */\n      swap1\n      pop\n        /* \"#utility.yul\":9479:9788   */\n      swap3\n      swap2\n      pop\n      pop\n      jump\t// out\n        /* \"#utility.yul\":9794:9912   */\n    tag_180:\n        /* \"#utility.yul\":9881:9905   */\n      tag_318\n        /* \"#utility.yul\":9899:9904   */\n      dup2\n        /* \"#utility.yul\":9881:9905   */\n      tag_169\n      jump\t// in\n    tag_318:\n        /* \"#utility.yul\":9876:9879   */\n      dup3\n        /* \"#utility.yul\":9869:9906   */\n      mstore\n        /* \"#utility.yul\":9794:9912   */\n      pop\n      pop\n      jump\t// out\n        /* \"#utility.yul\":9918:10360   */\n    tag_46:\n        /* \"#utility.yul\":10067:10071   */\n      0x00\n        /* \"#utility.yul\":10105:10107   */\n      0x60\n        /* \"#utility.yul\":10094:10103   */\n      dup3\n        /* \"#utility.yul\":10090:10108   */\n      add\n        /* \"#utility.yul\":10082:10108   */\n      swap1\n      pop\n        /* \"#utility.yul\":10118:10189   */\n      tag_320\n        /* \"#utility.yul\":10186:10187   */\n      0x00\n        /* \"#utility.yul\":10175:10184   */\n      dup4\n        /* \"#utility.yul\":10171:10188   */\n      add\n        /* \"#utility.yul\":10162:10168   */\n      dup7\n        /* \"#utility.yul\":10118:10189   */\n      tag_180\n      jump\t// in\n    tag_320:\n        /* \"#utility.yul\":10199:10271   */\n      tag_321\n        /* \"#utility.yul\":10267:10269   */\n      0x20\n        /* \"#utility.yul\":10256:10265   */\n      dup4\n        /* \"#utility.yul\":10252:10270   */\n      add\n        /* \"#utility.yul\":10243:10249   */\n      dup6\n        /* \"#utility.yul\":10199:10271   */\n      tag_172\n      jump\t// in\n    tag_321:\n        /* \"#utility.yul\":10281:10353   */\n      tag_322\n        /* \"#utility.yul\":10349:10351   */\n      0x40\n        /* \"#utility.yul\":10338:10347   */\n      dup4\n        /* \"#utility.yul\":10334:10352   */\n      add\n        /* \"#utility.yul\":10325:10331   */\n      dup5\n        /* \"#utility.yul\":10281:10353   */\n      tag_180\n      jump\t// in\n    tag_322:\n        /* \"#utility.yul\":9918:10360   */\n      swap5\n      swap4\n      pop\n      pop\n      pop\n      pop\n      jump\t// out\n        /* \"#utility.yul\":10366:10535   */\n    tag_181:\n        /* \"#utility.yul\":10450:10461   */\n      0x00\n        /* \"#utility.yul\":10484:10490   */\n      dup3\n        /* \"#utility.yul\":10479:10482   */\n      dup3\n        /* \"#utility.yul\":10472:10491   */\n      mstore\n        /* \"#utility.yul\":10524:10528   */\n      0x20\n        /* \"#utility.yul\":10519:10522   */\n      dup3\n        /* \"#utility.yul\":10515:10529   */\n      add\n        /* \"#utility.yul\":10500:10529   */\n      swap1\n      pop\n        /* \"#utility.yul\":10366:10535   */\n      swap3\n      swap2\n      pop\n      pop\n      jump\t// out\n        /* \"#utility.yul\":10541:10700   */\n    tag_182:\n        /* \"#utility.yul\":10681:10692   */\n      0x6e6f74206f776e65720000000000000000000000000000000000000000000000\n        /* \"#utility.yul\":10677:10678   */\n      0x00\n        /* \"#utility.yul\":10669:10675   */\n      dup3\n        /* \"#utility.yul\":10665:10679   */\n      add\n        /* \"#utility.yul\":10658:10693   */\n      mstore\n        /* \"#utility.yul\":10541:10700   */\n      pop\n      jump\t// out\n        /* \"#utility.yul\":10706:11071   */\n    tag_183:\n        /* \"#utility.yul\":10848:10851   */\n      0x00\n        /* \"#utility.yul\":10869:10935   */\n      tag_326\n        /* \"#utility.yul\":10933:10934   */\n      0x09\n        /* \"#utility.yul\":10928:10931   */\n      dup4\n        /* \"#utility.yul\":10869:10935   */\n      tag_181\n      jump\t// in\n    tag_326:\n        /* \"#utility.yul\":10862:10935   */\n      swap2\n      pop\n        /* \"#utility.yul\":10944:11037   */\n      tag_327\n        /* \"#utility.yul\":11033:11036   */\n      dup3\n        /* \"#utility.yul\":10944:11037   */\n      tag_182\n      jump\t// in\n    tag_327:\n        /* \"#utility.yul\":11062:11064   */\n      0x20\n        /* \"#utility.yul\":11057:11060   */\n      dup3\n        /* \"#utility.yul\":11053:11065   */\n      add\n        /* \"#utility.yul\":11046:11065   */\n      swap1\n      pop\n        /* \"#utility.yul\":10706:11071   */\n      swap2\n      swap1\n      pop\n      jump\t// out\n        /* \"#utility.yul\":11077:11496   */\n    tag_58:\n        /* \"#utility.yul\":11243:11247   */\n      0x00\n        /* \"#utility.yul\":11281:11283   */\n      0x20\n        /* \"#utility.yul\":11270:11279   */\n      dup3\n        /* \"#utility.yul\":11266:11284   */\n      add\n        /* \"#utility.yul\":11258:11284   */\n      swap1\n      pop\n        /* \"#utility.yul\":11330:11339   */\n      dup2\n        /* \"#utility.yul\":11324:11328   */\n      dup2\n        /* \"#utility.yul\":11320:11340   */\n      sub\n        /* \"#utility.yul\":11316:11317   */\n      0x00\n        /* \"#utility.yul\":11305:11314   */\n      dup4\n        /* \"#utility.yul\":11301:11318   */\n      add\n        /* \"#utility.yul\":11294:11341   */\n      mstore\n        /* \"#utility.yul\":11358:11489   */\n      tag_329\n        /* \"#utility.yul\":11484:11488   */\n      dup2\n        /* \"#utility.yul\":11358:11489   */\n      tag_183\n      jump\t// in\n    tag_329:\n        /* \"#utility.yul\":11350:11489   */\n      swap1\n      pop\n        /* \"#utility.yul\":11077:11496   */\n      swap2\n      swap1\n      pop\n      jump\t// out\n        /* \"#utility.yul\":11502:11834   */\n    tag_60:\n        /* \"#utility.yul\":11623:11627   */\n      0x00\n        /* \"#utility.yul\":11661:11663   */\n      0x40\n        /* \"#utility.yul\":11650:11659   */\n      dup3\n        /* \"#utility.yul\":11646:11664   */\n      add\n        /* \"#utility.yul\":11638:11664   */\n      swap1\n      pop\n        /* \"#utility.yul\":11674:11745   */\n      tag_331\n        /* \"#utility.yul\":11742:11743   */\n      0x00\n        /* \"#utility.yul\":11731:11740   */\n      dup4\n        /* \"#utility.yul\":11727:11744   */\n      add\n        /* \"#utility.yul\":11718:11724   */\n      dup6\n        /* \"#utility.yul\":11674:11745   */\n      tag_172\n      jump\t// in\n    tag_331:\n        /* \"#utility.yul\":11755:11827   */\n      tag_332\n        /* \"#utility.yul\":11823:11825   */\n      0x20\n        /* \"#utility.yul\":11812:11821   */\n      dup4\n        /* \"#utility.yul\":11808:11826   */\n      add\n        /* \"#utility.yul\":11799:11805   */\n      dup5\n        /* \"#utility.yul\":11755:11827   */\n      tag_180\n      jump\t// in\n    tag_332:\n        /* \"#utility.yul\":11502:11834   */\n      swap4\n      swap3\n      pop\n      pop\n      pop\n      jump\t// out\n        /* \"#utility.yul\":11840:11956   */\n    tag_184:\n        /* \"#utility.yul\":11910:11931   */\n      tag_334\n        /* \"#utility.yul\":11925:11930   */\n      dup2\n        /* \"#utility.yul\":11910:11931   */\n      tag_149\n      jump\t// in\n    tag_334:\n        /* \"#utility.yul\":11903:11908   */\n      dup2\n        /* \"#utility.yul\":11900:11932   */\n      eq\n        /* \"#utility.yul\":11890:11950   */\n      tag_335\n      jumpi\n        /* \"#utility.yul\":11946:11947   */\n      0x00\n        /* \"#utility.yul\":11943:11944   */\n      dup1\n        /* \"#utility.yul\":11936:11948   */\n      revert\n        /* \"#utility.yul\":11890:11950   */\n    tag_335:\n        /* \"#utility.yul\":11840:11956   */\n      pop\n      jump\t// out\n        /* \"#utility.yul\":11962:12099   */\n    tag_185:\n        /* \"#utility.yul\":12016:12021   */\n      0x00\n        /* \"#utility.yul\":12047:12053   */\n      dup2\n        /* \"#utility.yul\":12041:12054   */\n      mload\n        /* \"#utility.yul\":12032:12054   */\n      swap1\n      pop\n        /* \"#utility.yul\":12063:12093   */\n      tag_337\n        /* \"#utility.yul\":12087:12092   */\n      dup2\n        /* \"#utility.yul\":12063:12093   */\n      tag_184\n      jump\t// in\n    tag_337:\n        /* \"#utility.yul\":11962:12099   */\n      swap3\n      swap2\n      pop\n      pop\n      jump\t// out\n        /* \"#utility.yul\":12105:12450   */\n    tag_64:\n        /* \"#utility.yul\":12172:12178   */\n      0x00\n        /* \"#utility.yul\":12221:12223   */\n      0x20\n        /* \"#utility.yul\":12209:12218   */\n      dup3\n        /* \"#utility.yul\":12200:12207   */\n      dup5\n        /* \"#utility.yul\":12196:12219   */\n      sub\n        /* \"#utility.yul\":12192:12224   */\n      slt\n        /* \"#utility.yul\":12189:12308   */\n      iszero\n      tag_339\n      jumpi\n        /* \"#utility.yul\":12227:12306   */\n      tag_340\n      tag_144\n      jump\t// in\n    tag_340:\n        /* \"#utility.yul\":12189:12308   */\n    tag_339:\n        /* \"#utility.yul\":12347:12348   */\n      0x00\n        /* \"#utility.yul\":12372:12433   */\n      tag_341\n        /* \"#utility.yul\":12425:12432   */\n      dup5\n        /* \"#utility.yul\":12416:12422   */\n      dup3\n        /* \"#utility.yul\":12405:12414   */\n      dup6\n        /* \"#utility.yul\":12401:12423   */\n      add\n        /* \"#utility.yul\":12372:12433   */\n      tag_185\n      jump\t// in\n    tag_341:\n        /* \"#utility.yul\":12362:12433   */\n      swap2\n      pop\n        /* \"#utility.yul\":12318:12443   */\n      pop\n        /* \"#utility.yul\":12105:12450   */\n      swap3\n      swap2\n      pop\n      pop\n      jump\t// out\n        /* \"#utility.yul\":12456:12599   */\n    tag_186:\n        /* \"#utility.yul\":12513:12518   */\n      0x00\n        /* \"#utility.yul\":12544:12550   */\n      dup2\n        /* \"#utility.yul\":12538:12551   */\n      mload\n        /* \"#utility.yul\":12529:12551   */\n      swap1\n      pop\n        /* \"#utility.yul\":12560:12593   */\n      tag_343\n        /* \"#utility.yul\":12587:12592   */\n      dup2\n        /* \"#utility.yul\":12560:12593   */\n      tag_170\n      jump\t// in\n    tag_343:\n        /* \"#utility.yul\":12456:12599   */\n      swap3\n      swap2\n      pop\n      pop\n      jump\t// out\n        /* \"#utility.yul\":12605:12748   */\n    tag_187:\n        /* \"#utility.yul\":12662:12667   */\n      0x00\n        /* \"#utility.yul\":12693:12699   */\n      dup2\n        /* \"#utility.yul\":12687:12700   */\n      mload\n        /* \"#utility.yul\":12678:12700   */\n      swap1\n      pop\n        /* \"#utility.yul\":12709:12742   */\n      tag_345\n        /* \"#utility.yul\":12736:12741   */\n      dup2\n        /* \"#utility.yul\":12709:12742   */\n      tag_167\n      jump\t// in\n    tag_345:\n        /* \"#utility.yul\":12605:12748   */\n      swap3\n      swap2\n      pop\n      pop\n      jump\t// out\n        /* \"#utility.yul\":12754:13417   */\n    tag_70:\n        /* \"#utility.yul\":12842:12848   */\n      0x00\n        /* \"#utility.yul\":12850:12856   */\n      dup1\n        /* \"#utility.yul\":12858:12864   */\n      0x00\n        /* \"#utility.yul\":12907:12909   */\n      0x60\n        /* \"#utility.yul\":12895:12904   */\n      dup5\n        /* \"#utility.yul\":12886:12893   */\n      dup7\n        /* \"#utility.yul\":12882:12905   */\n      sub\n        /* \"#utility.yul\":12878:12910   */\n      slt\n        /* \"#utility.yul\":12875:12994   */\n      iszero\n      tag_347\n      jumpi\n        /* \"#utility.yul\":12913:12992   */\n      tag_348\n      tag_144\n      jump\t// in\n    tag_348:\n        /* \"#utility.yul\":12875:12994   */\n    tag_347:\n        /* \"#utility.yul\":13033:13034   */\n      0x00\n        /* \"#utility.yul\":13058:13122   */\n      tag_349\n        /* \"#utility.yul\":13114:13121   */\n      dup7\n        /* \"#utility.yul\":13105:13111   */\n      dup3\n        /* \"#utility.yul\":13094:13103   */\n      dup8\n        /* \"#utility.yul\":13090:13112   */\n      add\n        /* \"#utility.yul\":13058:13122   */\n      tag_186\n      jump\t// in\n    tag_349:\n        /* \"#utility.yul\":13048:13122   */\n      swap4\n      pop\n        /* \"#utility.yul\":13004:13132   */\n      pop\n        /* \"#utility.yul\":13171:13173   */\n      0x20\n        /* \"#utility.yul\":13197:13261   */\n      tag_350\n        /* \"#utility.yul\":13253:13260   */\n      dup7\n        /* \"#utility.yul\":13244:13250   */\n      dup3\n        /* \"#utility.yul\":13233:13242   */\n      dup8\n        /* \"#utility.yul\":13229:13251   */\n      add\n        /* \"#utility.yul\":13197:13261   */\n      tag_187\n      jump\t// in\n    tag_350:\n        /* \"#utility.yul\":13187:13261   */\n      swap3\n      pop\n        /* \"#utility.yul\":13142:13271   */\n      pop\n        /* \"#utility.yul\":13310:13312   */\n      0x40\n        /* \"#utility.yul\":13336:13400   */\n      tag_351\n        /* \"#utility.yul\":13392:13399   */\n      dup7\n        /* \"#utility.yul\":13383:13389   */\n      dup3\n        /* \"#utility.yul\":13372:13381   */\n      dup8\n        /* \"#utility.yul\":13368:13390   */\n      add\n        /* \"#utility.yul\":13336:13400   */\n      tag_186\n      jump\t// in\n    tag_351:\n        /* \"#utility.yul\":13326:13400   */\n      swap2\n      pop\n        /* \"#utility.yul\":13281:13410   */\n      pop\n        /* \"#utility.yul\":12754:13417   */\n      swap3\n      pop\n      swap3\n      pop\n      swap3\n      jump\t// out\n        /* \"#utility.yul\":13423:13645   */\n    tag_73:\n        /* \"#utility.yul\":13516:13520   */\n      0x00\n        /* \"#utility.yul\":13554:13556   */\n      0x20\n        /* \"#utility.yul\":13543:13552   */\n      dup3\n        /* \"#utility.yul\":13539:13557   */\n      add\n        /* \"#utility.yul\":13531:13557   */\n      swap1\n      pop\n        /* \"#utility.yul\":13567:13638   */\n      tag_353\n        /* \"#utility.yul\":13635:13636   */\n      0x00\n        /* \"#utility.yul\":13624:13633   */\n      dup4\n        /* \"#utility.yul\":13620:13637   */\n      add\n        /* \"#utility.yul\":13611:13617   */\n      dup5\n        /* \"#utility.yul\":13567:13638   */\n      tag_180\n      jump\t// in\n    tag_353:\n        /* \"#utility.yul\":13423:13645   */\n      swap3\n      swap2\n      pop\n      pop\n      jump\t// out\n        /* \"#utility.yul\":13651:14002   */\n    tag_77:\n        /* \"#utility.yul\":13721:13727   */\n      0x00\n        /* \"#utility.yul\":13770:13772   */\n      0x20\n        /* \"#utility.yul\":13758:13767   */\n      dup3\n        /* \"#utility.yul\":13749:13756   */\n      dup5\n        /* \"#utility.yul\":13745:13768   */\n      sub\n        /* \"#utility.yul\":13741:13773   */\n      slt\n        /* \"#utility.yul\":13738:13857   */\n      iszero\n      tag_355\n      jumpi\n        /* \"#utility.yul\":13776:13855   */\n      tag_356\n      tag_144\n      jump\t// in\n    tag_356:\n        /* \"#utility.yul\":13738:13857   */\n    tag_355:\n        /* \"#utility.yul\":13896:13897   */\n      0x00\n        /* \"#utility.yul\":13921:13985   */\n      tag_357\n        /* \"#utility.yul\":13977:13984   */\n      dup5\n        /* \"#utility.yul\":13968:13974   */\n      dup3\n        /* \"#utility.yul\":13957:13966   */\n      dup6\n        /* \"#utility.yul\":13953:13975   */\n      add\n        /* \"#utility.yul\":13921:13985   */\n      tag_187\n      jump\t// in\n    tag_357:\n        /* \"#utility.yul\":13911:13985   */\n      swap2\n      pop\n        /* \"#utility.yul\":13867:13995   */\n      pop\n        /* \"#utility.yul\":13651:14002   */\n      swap3\n      swap2\n      pop\n      pop\n      jump\t// out\n        /* \"#utility.yul\":14008:14173   */\n    tag_188:\n        /* \"#utility.yul\":14148:14165   */\n      0x4e6f7420746f6b656e206f776e65720000000000000000000000000000000000\n        /* \"#utility.yul\":14144:14145   */\n      0x00\n        /* \"#utility.yul\":14136:14142   */\n      dup3\n        /* \"#utility.yul\":14132:14146   */\n      add\n        /* \"#utility.yul\":14125:14166   */\n      mstore\n        /* \"#utility.yul\":14008:14173   */\n      pop\n      jump\t// out\n        /* \"#utility.yul\":14179:14545   */\n    tag_189:\n        /* \"#utility.yul\":14321:14324   */\n      0x00\n        /* \"#utility.yul\":14342:14409   */\n      tag_360\n        /* \"#utility.yul\":14406:14408   */\n      0x0f\n        /* \"#utility.yul\":14401:14404   */\n      dup4\n        /* \"#utility.yul\":14342:14409   */\n      tag_181\n      jump\t// in\n    tag_360:\n        /* \"#utility.yul\":14335:14409   */\n      swap2\n      pop\n        /* \"#utility.yul\":14418:14511   */\n      tag_361\n        /* \"#utility.yul\":14507:14510   */\n      dup3\n        /* \"#utility.yul\":14418:14511   */\n      tag_188\n      jump\t// in\n    tag_361:\n        /* \"#utility.yul\":14536:14538   */\n      0x20\n        /* \"#utility.yul\":14531:14534   */\n      dup3\n        /* \"#utility.yul\":14527:14539   */\n      add\n        /* \"#utility.yul\":14520:14539   */\n      swap1\n      pop\n        /* \"#utility.yul\":14179:14545   */\n      swap2\n      swap1\n      pop\n      jump\t// out\n        /* \"#utility.yul\":14551:14970   */\n    tag_82:\n        /* \"#utility.yul\":14717:14721   */\n      0x00\n        /* \"#utility.yul\":14755:14757   */\n      0x20\n        /* \"#utility.yul\":14744:14753   */\n      dup3\n        /* \"#utility.yul\":14740:14758   */\n      add\n        /* \"#utility.yul\":14732:14758   */\n      swap1\n      pop\n        /* \"#utility.yul\":14804:14813   */\n      dup2\n        /* \"#utility.yul\":14798:14802   */\n      dup2\n        /* \"#utility.yul\":14794:14814   */\n      sub\n        /* \"#utility.yul\":14790:14791   */\n      0x00\n        /* \"#utility.yul\":14779:14788   */\n      dup4\n        /* \"#utility.yul\":14775:14792   */\n      add\n        /* \"#utility.yul\":14768:14815   */\n      mstore\n        /* \"#utility.yul\":14832:14963   */\n      tag_363\n        /* \"#utility.yul\":14958:14962   */\n      dup2\n        /* \"#utility.yul\":14832:14963   */\n      tag_189\n      jump\t// in\n    tag_363:\n        /* \"#utility.yul\":14824:14963   */\n      swap1\n      pop\n        /* \"#utility.yul\":14551:14970   */\n      swap2\n      swap1\n      pop\n      jump\t// out\n        /* \"#utility.yul\":14976:15123   */\n    tag_190:\n        /* \"#utility.yul\":15077:15088   */\n      0x00\n        /* \"#utility.yul\":15114:15117   */\n      dup2\n        /* \"#utility.yul\":15099:15117   */\n      swap1\n      pop\n        /* \"#utility.yul\":14976:15123   */\n      swap3\n      swap2\n      pop\n      pop\n      jump\t// out\n        /* \"#utility.yul\":15151:15478   */\n    tag_191:\n        /* \"#utility.yul\":15265:15268   */\n      0x00\n        /* \"#utility.yul\":15286:15374   */\n      tag_366\n        /* \"#utility.yul\":15367:15373   */\n      dup4\n        /* \"#utility.yul\":15362:15365   */\n      dup6\n        /* \"#utility.yul\":15286:15374   */\n      tag_190\n      jump\t// in\n    tag_366:\n        /* \"#utility.yul\":15279:15374   */\n      swap4\n      pop\n        /* \"#utility.yul\":15384:15440   */\n      tag_367\n        /* \"#utility.yul\":15433:15439   */\n      dup4\n        /* \"#utility.yul\":15428:15431   */\n      dup6\n        /* \"#utility.yul\":15421:15426   */\n      dup5\n        /* \"#utility.yul\":15384:15440   */\n      tag_161\n      jump\t// in\n    tag_367:\n        /* \"#utility.yul\":15465:15471   */\n      dup3\n        /* \"#utility.yul\":15460:15463   */\n      dup5\n        /* \"#utility.yul\":15456:15472   */\n      add\n        /* \"#utility.yul\":15449:15472   */\n      swap1\n      pop\n        /* \"#utility.yul\":15151:15478   */\n      swap4\n      swap3\n      pop\n      pop\n      pop\n      jump\t// out\n        /* \"#utility.yul\":15484:15775   */\n    tag_84:\n        /* \"#utility.yul\":15624:15627   */\n      0x00\n        /* \"#utility.yul\":15646:15749   */\n      tag_369\n        /* \"#utility.yul\":15745:15748   */\n      dup3\n        /* \"#utility.yul\":15736:15742   */\n      dup5\n        /* \"#utility.yul\":15728:15734   */\n      dup7\n        /* \"#utility.yul\":15646:15749   */\n      tag_191\n      jump\t// in\n    tag_369:\n        /* \"#utility.yul\":15639:15749   */\n      swap2\n      pop\n        /* \"#utility.yul\":15766:15769   */\n      dup2\n        /* \"#utility.yul\":15759:15769   */\n      swap1\n      pop\n        /* \"#utility.yul\":15484:15775   */\n      swap4\n      swap3\n      pop\n      pop\n      pop\n      jump\t// out\n        /* \"#utility.yul\":15781:15961   */\n    tag_192:\n        /* \"#utility.yul\":15829:15906   */\n      0x4e487b7100000000000000000000000000000000000000000000000000000000\n        /* \"#utility.yul\":15826:15827   */\n      0x00\n        /* \"#utility.yul\":15819:15907   */\n      mstore\n        /* \"#utility.yul\":15926:15930   */\n      0x11\n        /* \"#utility.yul\":15923:15924   */\n      0x04\n        /* \"#utility.yul\":15916:15931   */\n      mstore\n        /* \"#utility.yul\":15950:15954   */\n      0x24\n        /* \"#utility.yul\":15947:15948   */\n      0x00\n        /* \"#utility.yul\":15940:15955   */\n      revert\n        /* \"#utility.yul\":15967:16161   */\n    tag_92:\n        /* \"#utility.yul\":16007:16011   */\n      0x00\n        /* \"#utility.yul\":16027:16047   */\n      tag_372\n        /* \"#utility.yul\":16045:16046   */\n      dup3\n        /* \"#utility.yul\":16027:16047   */\n      tag_169\n      jump\t// in\n    tag_372:\n        /* \"#utility.yul\":16022:16047   */\n      swap2\n      pop\n        /* \"#utility.yul\":16061:16081   */\n      tag_373\n        /* \"#utility.yul\":16079:16080   */\n      dup4\n        /* \"#utility.yul\":16061:16081   */\n      tag_169\n      jump\t// in\n    tag_373:\n        /* \"#utility.yul\":16056:16081   */\n      swap3\n      pop\n        /* \"#utility.yul\":16105:16106   */\n      dup3\n        /* \"#utility.yul\":16102:16103   */\n      dup3\n        /* \"#utility.yul\":16098:16107   */\n      sub\n        /* \"#utility.yul\":16090:16107   */\n      swap1\n      pop\n        /* \"#utility.yul\":16129:16130   */\n      dup2\n        /* \"#utility.yul\":16123:16127   */\n      dup2\n        /* \"#utility.yul\":16120:16131   */\n      gt\n        /* \"#utility.yul\":16117:16154   */\n      iszero\n      tag_374\n      jumpi\n        /* \"#utility.yul\":16134:16152   */\n      tag_375\n      tag_192\n      jump\t// in\n    tag_375:\n        /* \"#utility.yul\":16117:16154   */\n    tag_374:\n        /* \"#utility.yul\":15967:16161   */\n      swap3\n      swap2\n      pop\n      pop\n      jump\t// out\n        /* \"#utility.yul\":16167:16271   */\n    tag_193:\n        /* \"#utility.yul\":16212:16219   */\n      0x00\n        /* \"#utility.yul\":16241:16265   */\n      tag_377\n        /* \"#utility.yul\":16259:16264   */\n      dup3\n        /* \"#utility.yul\":16241:16265   */\n      tag_165\n      jump\t// in\n    tag_377:\n        /* \"#utility.yul\":16230:16265   */\n      swap1\n      pop\n        /* \"#utility.yul\":16167:16271   */\n      swap2\n      swap1\n      pop\n      jump\t// out\n        /* \"#utility.yul\":16277:16415   */\n    tag_194:\n        /* \"#utility.yul\":16358:16390   */\n      tag_379\n        /* \"#utility.yul\":16384:16389   */\n      dup2\n        /* \"#utility.yul\":16358:16390   */\n      tag_193\n      jump\t// in\n    tag_379:\n        /* \"#utility.yul\":16351:16356   */\n      dup2\n        /* \"#utility.yul\":16348:16391   */\n      eq\n        /* \"#utility.yul\":16338:16409   */\n      tag_380\n      jumpi\n        /* \"#utility.yul\":16405:16406   */\n      0x00\n        /* \"#utility.yul\":16402:16403   */\n      dup1\n        /* \"#utility.yul\":16395:16407   */\n      revert\n        /* \"#utility.yul\":16338:16409   */\n    tag_380:\n        /* \"#utility.yul\":16277:16415   */\n      pop\n      jump\t// out\n        /* \"#utility.yul\":16421:16580   */\n    tag_195:\n        /* \"#utility.yul\":16486:16491   */\n      0x00\n        /* \"#utility.yul\":16517:16523   */\n      dup2\n        /* \"#utility.yul\":16511:16524   */\n      mload\n        /* \"#utility.yul\":16502:16524   */\n      swap1\n      pop\n        /* \"#utility.yul\":16533:16574   */\n      tag_382\n        /* \"#utility.yul\":16568:16573   */\n      dup2\n        /* \"#utility.yul\":16533:16574   */\n      tag_194\n      jump\t// in\n    tag_382:\n        /* \"#utility.yul\":16421:16580   */\n      swap3\n      swap2\n      pop\n      pop\n      jump\t// out\n        /* \"#utility.yul\":16586:17265   */\n    tag_95:\n        /* \"#utility.yul\":16682:16688   */\n      0x00\n        /* \"#utility.yul\":16690:16696   */\n      dup1\n        /* \"#utility.yul\":16698:16704   */\n      0x00\n        /* \"#utility.yul\":16747:16749   */\n      0x60\n        /* \"#utility.yul\":16735:16744   */\n      dup5\n        /* \"#utility.yul\":16726:16733   */\n      dup7\n        /* \"#utility.yul\":16722:16745   */\n      sub\n        /* \"#utility.yul\":16718:16750   */\n      slt\n        /* \"#utility.yul\":16715:16834   */\n      iszero\n      tag_384\n      jumpi\n        /* \"#utility.yul\":16753:16832   */\n      tag_385\n      tag_144\n      jump\t// in\n    tag_385:\n        /* \"#utility.yul\":16715:16834   */\n    tag_384:\n        /* \"#utility.yul\":16873:16874   */\n      0x00\n        /* \"#utility.yul\":16898:16962   */\n      tag_386\n        /* \"#utility.yul\":16954:16961   */\n      dup7\n        /* \"#utility.yul\":16945:16951   */\n      dup3\n        /* \"#utility.yul\":16934:16943   */\n      dup8\n        /* \"#utility.yul\":16930:16952   */\n      add\n        /* \"#utility.yul\":16898:16962   */\n      tag_186\n      jump\t// in\n    tag_386:\n        /* \"#utility.yul\":16888:16962   */\n      swap4\n      pop\n        /* \"#utility.yul\":16844:16972   */\n      pop\n        /* \"#utility.yul\":17011:17013   */\n      0x20\n        /* \"#utility.yul\":17037:17109   */\n      tag_387\n        /* \"#utility.yul\":17101:17108   */\n      dup7\n        /* \"#utility.yul\":17092:17098   */\n      dup3\n        /* \"#utility.yul\":17081:17090   */\n      dup8\n        /* \"#utility.yul\":17077:17099   */\n      add\n        /* \"#utility.yul\":17037:17109   */\n      tag_195\n      jump\t// in\n    tag_387:\n        /* \"#utility.yul\":17027:17109   */\n      swap3\n      pop\n        /* \"#utility.yul\":16982:17119   */\n      pop\n        /* \"#utility.yul\":17158:17160   */\n      0x40\n        /* \"#utility.yul\":17184:17248   */\n      tag_388\n        /* \"#utility.yul\":17240:17247   */\n      dup7\n        /* \"#utility.yul\":17231:17237   */\n      dup3\n        /* \"#utility.yul\":17220:17229   */\n      dup8\n        /* \"#utility.yul\":17216:17238   */\n      add\n        /* \"#utility.yul\":17184:17248   */\n      tag_186\n      jump\t// in\n    tag_388:\n        /* \"#utility.yul\":17174:17248   */\n      swap2\n      pop\n        /* \"#utility.yul\":17129:17258   */\n      pop\n        /* \"#utility.yul\":16586:17265   */\n      swap3\n      pop\n      swap3\n      pop\n      swap3\n      jump\t// out\n        /* \"#utility.yul\":17271:17451   */\n    tag_101:\n        /* \"#utility.yul\":17319:17396   */\n      0x4e487b7100000000000000000000000000000000000000000000000000000000\n        /* \"#utility.yul\":17316:17317   */\n      0x00\n        /* \"#utility.yul\":17309:17397   */\n      mstore\n        /* \"#utility.yul\":17416:17420   */\n      0x21\n        /* \"#utility.yul\":17413:17414   */\n      0x04\n        /* \"#utility.yul\":17406:17421   */\n      mstore\n        /* \"#utility.yul\":17440:17444   */\n      0x24\n        /* \"#utility.yul\":17437:17438   */\n      0x00\n        /* \"#utility.yul\":17430:17445   */\n      revert\n        /* \"#utility.yul\":17457:17899   */\n    tag_115:\n        /* \"#utility.yul\":17606:17610   */\n      0x00\n        /* \"#utility.yul\":17644:17646   */\n      0x60\n        /* \"#utility.yul\":17633:17642   */\n      dup3\n        /* \"#utility.yul\":17629:17647   */\n      add\n        /* \"#utility.yul\":17621:17647   */\n      swap1\n      pop\n        /* \"#utility.yul\":17657:17728   */\n      tag_391\n        /* \"#utility.yul\":17725:17726   */\n      0x00\n        /* \"#utility.yul\":17714:17723   */\n      dup4\n        /* \"#utility.yul\":17710:17727   */\n      add\n        /* \"#utility.yul\":17701:17707   */\n      dup7\n        /* \"#utility.yul\":17657:17728   */\n      tag_180\n      jump\t// in\n    tag_391:\n        /* \"#utility.yul\":17738:17810   */\n      tag_392\n        /* \"#utility.yul\":17806:17808   */\n      0x20\n        /* \"#utility.yul\":17795:17804   */\n      dup4\n        /* \"#utility.yul\":17791:17809   */\n      add\n        /* \"#utility.yul\":17782:17788   */\n      dup6\n        /* \"#utility.yul\":17738:17810   */\n      tag_180\n      jump\t// in\n    tag_392:\n        /* \"#utility.yul\":17820:17892   */\n      tag_393\n        /* \"#utility.yul\":17888:17890   */\n      0x40\n        /* \"#utility.yul\":17877:17886   */\n      dup4\n        /* \"#utility.yul\":17873:17891   */\n      add\n        /* \"#utility.yul\":17864:17870   */\n      dup5\n        /* \"#utility.yul\":17820:17892   */\n      tag_180\n      jump\t// in\n    tag_393:\n        /* \"#utility.yul\":17457:17899   */\n      swap5\n      swap4\n      pop\n      pop\n      pop\n      pop\n      jump\t// out\n        /* \"#utility.yul\":17905:18023   */\n    tag_196:\n        /* \"#utility.yul\":17992:18016   */\n      tag_395\n        /* \"#utility.yul\":18010:18015   */\n      dup2\n        /* \"#utility.yul\":17992:18016   */\n      tag_151\n      jump\t// in\n    tag_395:\n        /* \"#utility.yul\":17987:17990   */\n      dup3\n        /* \"#utility.yul\":17980:18017   */\n      mstore\n        /* \"#utility.yul\":17905:18023   */\n      pop\n      pop\n      jump\t// out\n        /* \"#utility.yul\":18029:18448   */\n    tag_125:\n        /* \"#utility.yul\":18168:18172   */\n      0x00\n        /* \"#utility.yul\":18206:18208   */\n      0x40\n        /* \"#utility.yul\":18195:18204   */\n      dup3\n        /* \"#utility.yul\":18191:18209   */\n      add\n        /* \"#utility.yul\":18183:18209   */\n      swap1\n      pop\n        /* \"#utility.yul\":18219:18290   */\n      tag_397\n        /* \"#utility.yul\":18287:18288   */\n      0x00\n        /* \"#utility.yul\":18276:18285   */\n      dup4\n        /* \"#utility.yul\":18272:18289   */\n      add\n        /* \"#utility.yul\":18263:18269   */\n      dup6\n        /* \"#utility.yul\":18219:18290   */\n      tag_196\n      jump\t// in\n    tag_397:\n        /* \"#utility.yul\":18337:18346   */\n      dup2\n        /* \"#utility.yul\":18331:18335   */\n      dup2\n        /* \"#utility.yul\":18327:18347   */\n      sub\n        /* \"#utility.yul\":18322:18324   */\n      0x20\n        /* \"#utility.yul\":18311:18320   */\n      dup4\n        /* \"#utility.yul\":18307:18325   */\n      add\n        /* \"#utility.yul\":18300:18348   */\n      mstore\n        /* \"#utility.yul\":18365:18441   */\n      tag_398\n        /* \"#utility.yul\":18436:18440   */\n      dup2\n        /* \"#utility.yul\":18427:18433   */\n      dup5\n        /* \"#utility.yul\":18365:18441   */\n      tag_179\n      jump\t// in\n    tag_398:\n        /* \"#utility.yul\":18357:18441   */\n      swap1\n      pop\n        /* \"#utility.yul\":18029:18448   */\n      swap4\n      swap3\n      pop\n      pop\n      pop\n      jump\t// out\n        /* \"#utility.yul\":18454:18840   */\n    tag_197:\n        /* \"#utility.yul\":18558:18561   */\n      0x00\n        /* \"#utility.yul\":18586:18624   */\n      tag_400\n        /* \"#utility.yul\":18618:18623   */\n      dup3\n        /* \"#utility.yul\":18586:18624   */\n      tag_176\n      jump\t// in\n    tag_400:\n        /* \"#utility.yul\":18640:18728   */\n      tag_401\n        /* \"#utility.yul\":18721:18727   */\n      dup2\n        /* \"#utility.yul\":18716:18719   */\n      dup6\n        /* \"#utility.yul\":18640:18728   */\n      tag_190\n      jump\t// in\n    tag_401:\n        /* \"#utility.yul\":18633:18728   */\n      swap4\n      pop\n        /* \"#utility.yul\":18737:18802   */\n      tag_402\n        /* \"#utility.yul\":18795:18801   */\n      dup2\n        /* \"#utility.yul\":18790:18793   */\n      dup6\n        /* \"#utility.yul\":18783:18787   */\n      0x20\n        /* \"#utility.yul\":18776:18781   */\n      dup7\n        /* \"#utility.yul\":18772:18788   */\n      add\n        /* \"#utility.yul\":18737:18802   */\n      tag_178\n      jump\t// in\n    tag_402:\n        /* \"#utility.yul\":18827:18833   */\n      dup1\n        /* \"#utility.yul\":18822:18825   */\n      dup5\n        /* \"#utility.yul\":18818:18834   */\n      add\n        /* \"#utility.yul\":18811:18834   */\n      swap2\n      pop\n        /* \"#utility.yul\":18562:18840   */\n      pop\n        /* \"#utility.yul\":18454:18840   */\n      swap3\n      swap2\n      pop\n      pop\n      jump\t// out\n        /* \"#utility.yul\":18846:19117   */\n    tag_127:\n        /* \"#utility.yul\":18976:18979   */\n      0x00\n        /* \"#utility.yul\":18998:19091   */\n      tag_404\n        /* \"#utility.yul\":19087:19090   */\n      dup3\n        /* \"#utility.yul\":19078:19084   */\n      dup5\n        /* \"#utility.yul\":18998:19091   */\n      tag_197\n      jump\t// in\n    tag_404:\n        /* \"#utility.yul\":18991:19091   */\n      swap2\n      pop\n        /* \"#utility.yul\":19108:19111   */\n      dup2\n        /* \"#utility.yul\":19101:19111   */\n      swap1\n      pop\n        /* \"#utility.yul\":18846:19117   */\n      swap3\n      swap2\n      pop\n      pop\n      jump\t// out\n        /* \"#utility.yul\":19123:19266   */\n    tag_198:\n        /* \"#utility.yul\":19180:19185   */\n      0x00\n        /* \"#utility.yul\":19211:19217   */\n      dup2\n        /* \"#utility.yul\":19205:19218   */\n      mload\n        /* \"#utility.yul\":19196:19218   */\n      swap1\n      pop\n        /* \"#utility.yul\":19227:19260   */\n      tag_406\n        /* \"#utility.yul\":19254:19259   */\n      dup2\n        /* \"#utility.yul\":19227:19260   */\n      tag_152\n      jump\t// in\n    tag_406:\n        /* \"#utility.yul\":19123:19266   */\n      swap3\n      swap2\n      pop\n      pop\n      jump\t// out\n        /* \"#utility.yul\":19272:19623   */\n    tag_134:\n        /* \"#utility.yul\":19342:19348   */\n      0x00\n        /* \"#utility.yul\":19391:19393   */\n      0x20\n        /* \"#utility.yul\":19379:19388   */\n      dup3\n        /* \"#utility.yul\":19370:19377   */\n      dup5\n        /* \"#utility.yul\":19366:19389   */\n      sub\n        /* \"#utility.yul\":19362:19394   */\n      slt\n        /* \"#utility.yul\":19359:19478   */\n      iszero\n      tag_408\n      jumpi\n        /* \"#utility.yul\":19397:19476   */\n      tag_409\n      tag_144\n      jump\t// in\n    tag_409:\n        /* \"#utility.yul\":19359:19478   */\n    tag_408:\n        /* \"#utility.yul\":19517:19518   */\n      0x00\n        /* \"#utility.yul\":19542:19606   */\n      tag_410\n        /* \"#utility.yul\":19598:19605   */\n      dup5\n        /* \"#utility.yul\":19589:19595   */\n      dup3\n        /* \"#utility.yul\":19578:19587   */\n      dup6\n        /* \"#utility.yul\":19574:19596   */\n      add\n        /* \"#utility.yul\":19542:19606   */\n      tag_198\n      jump\t// in\n    tag_410:\n        /* \"#utility.yul\":19532:19606   */\n      swap2\n      pop\n        /* \"#utility.yul\":19488:19616   */\n      pop\n        /* \"#utility.yul\":19272:19623   */\n      swap3\n      swap2\n      pop\n      pop\n      jump\t// out\n        /* \"#utility.yul\":19629:19715   */\n    tag_199:\n        /* \"#utility.yul\":19664:19671   */\n      0x00\n        /* \"#utility.yul\":19704:19708   */\n      0xff\n        /* \"#utility.yul\":19697:19702   */\n      dup3\n        /* \"#utility.yul\":19693:19709   */\n      and\n        /* \"#utility.yul\":19682:19709   */\n      swap1\n      pop\n        /* \"#utility.yul\":19629:19715   */\n      swap2\n      swap1\n      pop\n      jump\t// out\n        /* \"#utility.yul\":19721:19833   */\n    tag_200:\n        /* \"#utility.yul\":19804:19826   */\n      tag_413\n        /* \"#utility.yul\":19820:19825   */\n      dup2\n        /* \"#utility.yul\":19804:19826   */\n      tag_199\n      jump\t// in\n    tag_413:\n        /* \"#utility.yul\":19799:19802   */\n      dup3\n        /* \"#utility.yul\":19792:19827   */\n      mstore\n        /* \"#utility.yul\":19721:19833   */\n      pop\n      pop\n      jump\t// out\n        /* \"#utility.yul\":19839:20384   */\n    tag_139:\n        /* \"#utility.yul\":20012:20016   */\n      0x00\n        /* \"#utility.yul\":20050:20053   */\n      0x80\n        /* \"#utility.yul\":20039:20048   */\n      dup3\n        /* \"#utility.yul\":20035:20054   */\n      add\n        /* \"#utility.yul\":20027:20054   */\n      swap1\n      pop\n        /* \"#utility.yul\":20064:20135   */\n      tag_415\n        /* \"#utility.yul\":20132:20133   */\n      0x00\n        /* \"#utility.yul\":20121:20130   */\n      dup4\n        /* \"#utility.yul\":20117:20134   */\n      add\n        /* \"#utility.yul\":20108:20114   */\n      dup8\n        /* \"#utility.yul\":20064:20135   */\n      tag_196\n      jump\t// in\n    tag_415:\n        /* \"#utility.yul\":20145:20213   */\n      tag_416\n        /* \"#utility.yul\":20209:20211   */\n      0x20\n        /* \"#utility.yul\":20198:20207   */\n      dup4\n        /* \"#utility.yul\":20194:20212   */\n      add\n        /* \"#utility.yul\":20185:20191   */\n      dup7\n        /* \"#utility.yul\":20145:20213   */\n      tag_200\n      jump\t// in\n    tag_416:\n        /* \"#utility.yul\":20223:20295   */\n      tag_417\n        /* \"#utility.yul\":20291:20293   */\n      0x40\n        /* \"#utility.yul\":20280:20289   */\n      dup4\n        /* \"#utility.yul\":20276:20294   */\n      add\n        /* \"#utility.yul\":20267:20273   */\n      dup6\n        /* \"#utility.yul\":20223:20295   */\n      tag_196\n      jump\t// in\n    tag_417:\n        /* \"#utility.yul\":20305:20377   */\n      tag_418\n        /* \"#utility.yul\":20373:20375   */\n      0x60\n        /* \"#utility.yul\":20362:20371   */\n      dup4\n        /* \"#utility.yul\":20358:20376   */\n      add\n        /* \"#utility.yul\":20349:20355   */\n      dup5\n        /* \"#utility.yul\":20305:20377   */\n      tag_196\n      jump\t// in\n    tag_418:\n        /* \"#utility.yul\":19839:20384   */\n      swap6\n      swap5\n      pop\n      pop\n      pop\n      pop\n      pop\n      jump\t// out\n\n    auxdata: 0xa264697066735822122029fd88f0b6740d8295138c5498f836e73e2dee0514633a9a2b29fe1122f050a464736f6c63430008150033\n}\n",
				"bytecode": {
					"linkReferences": {},
					"object": "608060405234801561001057600080fd5b506114f3806100206000396000f3fe6080604052600436106100595760003560e01c806301ffc9a7146100655780631626ba7e146100a25780637d6ad95d146100df5780638da5cb5b1461011c5780639e5d4c4914610147578063fc0c546a1461017757610060565b3661006057005b600080fd5b34801561007157600080fd5b5061008c60048036038101906100879190610a8f565b6101a4565b6040516100999190610ad7565b60405180910390f35b3480156100ae57600080fd5b506100c960048036038101906100c49190610c6e565b610276565b6040516100d69190610cd9565b60405180910390f35b3480156100eb57600080fd5b5061010660048036038101906101019190610d88565b6102af565b6040516101139190610ad7565b60405180910390f35b34801561012857600080fd5b506101316103c4565b60405161013e9190610dea565b60405180910390f35b610161600480360381019061015c9190610e65565b6104d5565b60405161016e9190610f58565b60405180910390f35b34801561018357600080fd5b5061018c6105d7565b60405161019b93929190610f89565b60405180910390f35b60007f01ffc9a7000000000000000000000000000000000000000000000000000000007bffffffffffffffffffffffffffffffffffffffffffffffffffffffff1916827bffffffffffffffffffffffffffffffffffffffffffffffffffffffff1916148061026f57507feff4d378000000000000000000000000000000000000000000000000000000007bffffffffffffffffffffffffffffffffffffffffffffffffffffffff1916827bffffffffffffffffffffffffffffffffffffffffffffffffffffffff1916145b9050919050565b60008061028b6102846103c4565b858561062d565b905080156102a357631626ba7e60e01b9150506102a9565b60009150505b92915050565b60006102b96103c4565b73ffffffffffffffffffffffffffffffffffffffff163373ffffffffffffffffffffffffffffffffffffffff1614610326576040517f08c379a000000000000000000000000000000000000000000000000000000000815260040161031d9061101d565b60405180910390fd5b60008373ffffffffffffffffffffffffffffffffffffffff1663a9059cbb86856040518363ffffffff1660e01b815260040161036392919061103d565b6020604051808303816000875af1158015610382573d6000803e3d6000fd5b505050506040513d601f19601f820116820180604052508101906103a69190611092565b9050806103b75760009150506103bd565b60019150505b9392505050565b6000806000803073ffffffffffffffffffffffffffffffffffffffff1663fc0c546a6040518163ffffffff1660e01b8152600401606060405180830381865afa158015610415573d6000803e3d6000fd5b505050506040513d601f19601f8201168201806040525081019061043991906110e9565b92509250925046831461045257600093505050506104d2565b8173ffffffffffffffffffffffffffffffffffffffff16636352211e826040518263ffffffff1660e01b815260040161048b919061113c565b602060405180830381865afa1580156104a8573d6000803e3d6000fd5b505050506040513d601f19601f820116820180604052508101906104cc9190611157565b93505050505b90565b60606104df6103c4565b73ffffffffffffffffffffffffffffffffffffffff163273ffffffffffffffffffffffffffffffffffffffff161461054c576040517f08c379a0000000000000000000000000000000000000000000000000000000008152600401610543906111d0565b60405180910390fd5b60008573ffffffffffffffffffffffffffffffffffffffff16858585604051610576929190611220565b60006040518083038185875af1925050503d80600081146105b3576040519150601f19603f3d011682016040523d82523d6000602084013e6105b8565b606091505b508093508192505050806105ce57815160208301fd5b50949350505050565b6000806000803073ffffffffffffffffffffffffffffffffffffffff163b905061060e306060836106089190611268565b836106bc565b80602001905181019061062191906112da565b93509350935050909192565b600080600061063c85856107a1565b91509150600060048111156106545761065361132d565b5b8160048111156106675761066661132d565b5b14801561069f57508573ffffffffffffffffffffffffffffffffffffffff168273ffffffffffffffffffffffffffffffffffffffff16145b806106b157506106b08686866107f2565b5b925050509392505050565b606060006106c985610936565b9050600081036106eb576040518060200160405280600081525091505061079a565b8084111561070b576040518060200160405280600081525091505061079a565b83831015610754578084846040517f2c4a89fa00000000000000000000000000000000000000000000000000000000815260040161074b9392919061135c565b60405180910390fd5b600084840390506000858303905060008282106107715782610773565b815b90506040519450601f19601f60208301011685016040528085528087602087018a3c505050505b9392505050565b60008060418351036107e25760008060006020860151925060408601519150606086015160001a90506107d687828585610941565b945094505050506107eb565b60006002915091505b9250929050565b60008060008573ffffffffffffffffffffffffffffffffffffffff16631626ba7e60e01b86866040516024016108299291906113a2565b604051602081830303815290604052907bffffffffffffffffffffffffffffffffffffffffffffffffffffffff19166020820180517bffffffffffffffffffffffffffffffffffffffffffffffffffffffff83818316178352505050506040516108939190611403565b600060405180830381855afa9150503d80600081146108ce576040519150601f19603f3d011682016040523d82523d6000602084013e6108d3565b606091505b50915091508180156108e757506020815110155b801561092b5750631626ba7e60e01b7bffffffffffffffffffffffffffffffffffffffffffffffffffffffff191681806020019051810190610929919061142f565b145b925050509392505050565b6000813b9050919050565b6000807f7fffffffffffffffffffffffffffffff5d576e7357a4501ddfe92f46681b20a08360001c111561097c576000600391509150610a1a565b6000600187878787604051600081526020016040526040516109a19493929190611478565b6020604051602081039080840390855afa1580156109c3573d6000803e3d6000fd5b505050602060405103519050600073ffffffffffffffffffffffffffffffffffffffff168173ffffffffffffffffffffffffffffffffffffffff1603610a1157600060019250925050610a1a565b80600092509250505b94509492505050565b6000604051905090565b600080fd5b600080fd5b60007fffffffff0000000000000000000000000000000000000000000000000000000082169050919050565b610a6c81610a37565b8114610a7757600080fd5b50565b600081359050610a8981610a63565b92915050565b600060208284031215610aa557610aa4610a2d565b5b6000610ab384828501610a7a565b91505092915050565b60008115159050919050565b610ad181610abc565b82525050565b6000602082019050610aec6000830184610ac8565b92915050565b6000819050919050565b610b0581610af2565b8114610b1057600080fd5b50565b600081359050610b2281610afc565b92915050565b600080fd5b600080fd5b6000601f19601f8301169050919050565b7f4e487b7100000000000000000000000000000000000000000000000000000000600052604160045260246000fd5b610b7b82610b32565b810181811067ffffffffffffffff82111715610b9a57610b99610b43565b5b80604052505050565b6000610bad610a23565b9050610bb98282610b72565b919050565b600067ffffffffffffffff821115610bd957610bd8610b43565b5b610be282610b32565b9050602081019050919050565b82818337600083830152505050565b6000610c11610c0c84610bbe565b610ba3565b905082815260208101848484011115610c2d57610c2c610b2d565b5b610c38848285610bef565b509392505050565b600082601f830112610c5557610c54610b28565b5b8135610c65848260208601610bfe565b91505092915050565b60008060408385031215610c8557610c84610a2d565b5b6000610c9385828601610b13565b925050602083013567ffffffffffffffff811115610cb457610cb3610a32565b5b610cc085828601610c40565b9150509250929050565b610cd381610a37565b82525050565b6000602082019050610cee6000830184610cca565b92915050565b600073ffffffffffffffffffffffffffffffffffffffff82169050919050565b6000610d1f82610cf4565b9050919050565b610d2f81610d14565b8114610d3a57600080fd5b50565b600081359050610d4c81610d26565b92915050565b6000819050919050565b610d6581610d52565b8114610d7057600080fd5b50565b600081359050610d8281610d5c565b92915050565b600080600060608486031215610da157610da0610a2d565b5b6000610daf86828701610d3d565b9350506020610dc086828701610d3d565b9250506040610dd186828701610d73565b9150509250925092565b610de481610d14565b82525050565b6000602082019050610dff6000830184610ddb565b92915050565b600080fd5b600080fd5b60008083601f840112610e2557610e24610b28565b5b8235905067ffffffffffffffff811115610e4257610e41610e05565b5b602083019150836001820283011115610e5e57610e5d610e0a565b5b9250929050565b60008060008060608587031215610e7f57610e7e610a2d565b5b6000610e8d87828801610d3d565b9450506020610e9e87828801610d73565b935050604085013567ffffffffffffffff811115610ebf57610ebe610a32565b5b610ecb87828801610e0f565b925092505092959194509250565b600081519050919050565b600082825260208201905092915050565b60005b83811015610f13578082015181840152602081019050610ef8565b60008484015250505050565b6000610f2a82610ed9565b610f348185610ee4565b9350610f44818560208601610ef5565b610f4d81610b32565b840191505092915050565b60006020820190508181036000830152610f728184610f1f565b905092915050565b610f8381610d52565b82525050565b6000606082019050610f9e6000830186610f7a565b610fab6020830185610ddb565b610fb86040830184610f7a565b949350505050565b600082825260208201905092915050565b7f6e6f74206f776e65720000000000000000000000000000000000000000000000600082015250565b6000611007600983610fc0565b915061101282610fd1565b602082019050919050565b6000602082019050818103600083015261103681610ffa565b9050919050565b60006040820190506110526000830185610ddb565b61105f6020830184610f7a565b9392505050565b61106f81610abc565b811461107a57600080fd5b50565b60008151905061108c81611066565b92915050565b6000602082840312156110a8576110a7610a2d565b5b60006110b68482850161107d565b91505092915050565b6000815190506110ce81610d5c565b92915050565b6000815190506110e381610d26565b92915050565b60008060006060848603121561110257611101610a2d565b5b6000611110868287016110bf565b9350506020611121868287016110d4565b9250506040611132868287016110bf565b9150509250925092565b60006020820190506111516000830184610f7a565b92915050565b60006020828403121561116d5761116c610a2d565b5b600061117b848285016110d4565b91505092915050565b7f4e6f7420746f6b656e206f776e65720000000000000000000000000000000000600082015250565b60006111ba600f83610fc0565b91506111c582611184565b602082019050919050565b600060208201905081810360008301526111e9816111ad565b9050919050565b600081905092915050565b600061120783856111f0565b9350611214838584610bef565b82840190509392505050565b600061122d8284866111fb565b91508190509392505050565b7f4e487b7100000000000000000000000000000000000000000000000000000000600052601160045260246000fd5b600061127382610d52565b915061127e83610d52565b925082820390508181111561129657611295611239565b5b92915050565b60006112a782610cf4565b9050919050565b6112b78161129c565b81146112c257600080fd5b50565b6000815190506112d4816112ae565b92915050565b6000806000606084860312156112f3576112f2610a2d565b5b6000611301868287016110bf565b9350506020611312868287016112c5565b9250506040611323868287016110bf565b9150509250925092565b7f4e487b7100000000000000000000000000000000000000000000000000000000600052602160045260246000fd5b60006060820190506113716000830186610f7a565b61137e6020830185610f7a565b61138b6040830184610f7a565b949350505050565b61139c81610af2565b82525050565b60006040820190506113b76000830185611393565b81810360208301526113c98184610f1f565b90509392505050565b60006113dd82610ed9565b6113e781856111f0565b93506113f7818560208601610ef5565b80840191505092915050565b600061140f82846113d2565b915081905092915050565b60008151905061142981610afc565b92915050565b60006020828403121561144557611444610a2d565b5b60006114538482850161141a565b91505092915050565b600060ff82169050919050565b6114728161145c565b82525050565b600060808201905061148d6000830187611393565b61149a6020830186611469565b6114a76040830185611393565b6114b46060830184611393565b9594505050505056fea264697066735822122029fd88f0b6740d8295138c5498f836e73e2dee0514633a9a2b29fe1122f050a464736f6c63430008150033",
					"opcodes": "PUSH1 0x80 PUSH1 0x40 MSTORE CALLVALUE DUP1 ISZERO PUSH2 0x10 JUMPI PUSH1 0x0 DUP1 REVERT JUMPDEST POP PUSH2 0x14F3 DUP1 PUSH2 0x20 PUSH1 0x0 CODECOPY PUSH1 0x0 RETURN INVALID PUSH1 0x80 PUSH1 0x40 MSTORE PUSH1 0x4 CALLDATASIZE LT PUSH2 0x59 JUMPI PUSH1 0x0 CALLDATALOAD PUSH1 0xE0 SHR DUP1 PUSH4 0x1FFC9A7 EQ PUSH2 0x65 JUMPI DUP1 PUSH4 0x1626BA7E EQ PUSH2 0xA2 JUMPI DUP1 PUSH4 0x7D6AD95D EQ PUSH2 0xDF JUMPI DUP1 PUSH4 0x8DA5CB5B EQ PUSH2 0x11C JUMPI DUP1 PUSH4 0x9E5D4C49 EQ PUSH2 0x147 JUMPI DUP1 PUSH4 0xFC0C546A EQ PUSH2 0x177 JUMPI PUSH2 0x60 JUMP JUMPDEST CALLDATASIZE PUSH2 0x60 JUMPI STOP JUMPDEST PUSH1 0x0 DUP1 REVERT JUMPDEST CALLVALUE DUP1 ISZERO PUSH2 0x71 JUMPI PUSH1 0x0 DUP1 REVERT JUMPDEST POP PUSH2 0x8C PUSH1 0x4 DUP1 CALLDATASIZE SUB DUP2 ADD SWAP1 PUSH2 0x87 SWAP2 SWAP1 PUSH2 0xA8F JUMP JUMPDEST PUSH2 0x1A4 JUMP JUMPDEST PUSH1 0x40 MLOAD PUSH2 0x99 SWAP2 SWAP1 PUSH2 0xAD7 JUMP JUMPDEST PUSH1 0x40 MLOAD DUP1 SWAP2 SUB SWAP1 RETURN JUMPDEST CALLVALUE DUP1 ISZERO PUSH2 0xAE JUMPI PUSH1 0x0 DUP1 REVERT JUMPDEST POP PUSH2 0xC9 PUSH1 0x4 DUP1 CALLDATASIZE SUB DUP2 ADD SWAP1 PUSH2 0xC4 SWAP2 SWAP1 PUSH2 0xC6E JUMP JUMPDEST PUSH2 0x276 JUMP JUMPDEST PUSH1 0x40 MLOAD PUSH2 0xD6 SWAP2 SWAP1 PUSH2 0xCD9 JUMP JUMPDEST PUSH1 0x40 MLOAD DUP1 SWAP2 SUB SWAP1 RETURN JUMPDEST CALLVALUE DUP1 ISZERO PUSH2 0xEB JUMPI PUSH1 0x0 DUP1 REVERT JUMPDEST POP PUSH2 0x106 PUSH1 0x4 DUP1 CALLDATASIZE SUB DUP2 ADD SWAP1 PUSH2 0x101 SWAP2 SWAP1 PUSH2 0xD88 JUMP JUMPDEST PUSH2 0x2AF JUMP JUMPDEST PUSH1 0x40 MLOAD PUSH2 0x113 SWAP2 SWAP1 PUSH2 0xAD7 JUMP JUMPDEST PUSH1 0x40 MLOAD DUP1 SWAP2 SUB SWAP1 RETURN JUMPDEST CALLVALUE DUP1 ISZERO PUSH2 0x128 JUMPI PUSH1 0x0 DUP1 REVERT JUMPDEST POP PUSH2 0x131 PUSH2 0x3C4 JUMP JUMPDEST PUSH1 0x40 MLOAD PUSH2 0x13E SWAP2 SWAP1 PUSH2 0xDEA JUMP JUMPDEST PUSH1 0x40 MLOAD DUP1 SWAP2 SUB SWAP1 RETURN JUMPDEST PUSH2 0x161 PUSH1 0x4 DUP1 CALLDATASIZE SUB DUP2 ADD SWAP1 PUSH2 0x15C SWAP2 SWAP1 PUSH2 0xE65 JUMP JUMPDEST PUSH2 0x4D5 JUMP JUMPDEST PUSH1 0x40 MLOAD PUSH2 0x16E SWAP2 SWAP1 PUSH2 0xF58 JUMP JUMPDEST PUSH1 0x40 MLOAD DUP1 SWAP2 SUB SWAP1 RETURN JUMPDEST CALLVALUE DUP1 ISZERO PUSH2 0x183 JUMPI PUSH1 0x0 DUP1 REVERT JUMPDEST POP PUSH2 0x18C PUSH2 0x5D7 JUMP JUMPDEST PUSH1 0x40 MLOAD PUSH2 0x19B SWAP4 SWAP3 SWAP2 SWAP1 PUSH2 0xF89 JUMP JUMPDEST PUSH1 0x40 MLOAD DUP1 SWAP2 SUB SWAP1 RETURN JUMPDEST PUSH1 0x0 PUSH32 0x1FFC9A700000000000000000000000000000000000000000000000000000000 PUSH28 0xFFFFFFFFFFFFFFFFFFFFFFFFFFFFFFFFFFFFFFFFFFFFFFFFFFFFFFFF NOT AND DUP3 PUSH28 0xFFFFFFFFFFFFFFFFFFFFFFFFFFFFFFFFFFFFFFFFFFFFFFFFFFFFFFFF NOT AND EQ DUP1 PUSH2 0x26F JUMPI POP PUSH32 0xEFF4D37800000000000000000000000000000000000000000000000000000000 PUSH28 0xFFFFFFFFFFFFFFFFFFFFFFFFFFFFFFFFFFFFFFFFFFFFFFFFFFFFFFFF NOT AND DUP3 PUSH28 0xFFFFFFFFFFFFFFFFFFFFFFFFFFFFFFFFFFFFFFFFFFFFFFFFFFFFFFFF NOT AND EQ JUMPDEST SWAP1 POP SWAP2 SWAP1 POP JUMP JUMPDEST PUSH1 0x0 DUP1 PUSH2 0x28B PUSH2 0x284 PUSH2 0x3C4 JUMP JUMPDEST DUP6 DUP6 PUSH2 0x62D JUMP JUMPDEST SWAP1 POP DUP1 ISZERO PUSH2 0x2A3 JUMPI PUSH4 0x1626BA7E PUSH1 0xE0 SHL SWAP2 POP POP PUSH2 0x2A9 JUMP JUMPDEST PUSH1 0x0 SWAP2 POP POP JUMPDEST SWAP3 SWAP2 POP POP JUMP JUMPDEST PUSH1 0x0 PUSH2 0x2B9 PUSH2 0x3C4 JUMP JUMPDEST PUSH20 0xFFFFFFFFFFFFFFFFFFFFFFFFFFFFFFFFFFFFFFFF AND CALLER PUSH20 0xFFFFFFFFFFFFFFFFFFFFFFFFFFFFFFFFFFFFFFFF AND EQ PUSH2 0x326 JUMPI PUSH1 0x40 MLOAD PUSH32 0x8C379A000000000000000000000000000000000000000000000000000000000 DUP2 MSTORE PUSH1 0x4 ADD PUSH2 0x31D SWAP1 PUSH2 0x101D JUMP JUMPDEST PUSH1 0x40 MLOAD DUP1 SWAP2 SUB SWAP1 REVERT JUMPDEST PUSH1 0x0 DUP4 PUSH20 0xFFFFFFFFFFFFFFFFFFFFFFFFFFFFFFFFFFFFFFFF AND PUSH4 0xA9059CBB DUP7 DUP6 PUSH1 0x40 MLOAD DUP4 PUSH4 0xFFFFFFFF AND PUSH1 0xE0 SHL DUP2 MSTORE PUSH1 0x4 ADD PUSH2 0x363 SWAP3 SWAP2 SWAP1 PUSH2 0x103D JUMP JUMPDEST PUSH1 0x20 PUSH1 0x40 MLOAD DUP1 DUP4 SUB DUP2 PUSH1 0x0 DUP8 GAS CALL ISZERO DUP1 ISZERO PUSH2 0x382 JUMPI RETURNDATASIZE PUSH1 0x0 DUP1 RETURNDATACOPY RETURNDATASIZE PUSH1 0x0 REVERT JUMPDEST POP POP POP POP PUSH1 0x40 MLOAD RETURNDATASIZE PUSH1 0x1F NOT PUSH1 0x1F DUP3 ADD AND DUP3 ADD DUP1 PUSH1 0x40 MSTORE POP DUP2 ADD SWAP1 PUSH2 0x3A6 SWAP2 SWAP1 PUSH2 0x1092 JUMP JUMPDEST SWAP1 POP DUP1 PUSH2 0x3B7 JUMPI PUSH1 0x0 SWAP2 POP POP PUSH2 0x3BD JUMP JUMPDEST PUSH1 0x1 SWAP2 POP POP JUMPDEST SWAP4 SWAP3 POP POP POP JUMP JUMPDEST PUSH1 0x0 DUP1 PUSH1 0x0 DUP1 ADDRESS PUSH20 0xFFFFFFFFFFFFFFFFFFFFFFFFFFFFFFFFFFFFFFFF AND PUSH4 0xFC0C546A PUSH1 0x40 MLOAD DUP2 PUSH4 0xFFFFFFFF AND PUSH1 0xE0 SHL DUP2 MSTORE PUSH1 0x4 ADD PUSH1 0x60 PUSH1 0x40 MLOAD DUP1 DUP4 SUB DUP2 DUP7 GAS STATICCALL ISZERO DUP1 ISZERO PUSH2 0x415 JUMPI RETURNDATASIZE PUSH1 0x0 DUP1 RETURNDATACOPY RETURNDATASIZE PUSH1 0x0 REVERT JUMPDEST POP POP POP POP PUSH1 0x40 MLOAD RETURNDATASIZE PUSH1 0x1F NOT PUSH1 0x1F DUP3 ADD AND DUP3 ADD DUP1 PUSH1 0x40 MSTORE POP DUP2 ADD SWAP1 PUSH2 0x439 SWAP2 SWAP1 PUSH2 0x10E9 JUMP JUMPDEST SWAP3 POP SWAP3 POP SWAP3 POP CHAINID DUP4 EQ PUSH2 0x452 JUMPI PUSH1 0x0 SWAP4 POP POP POP POP PUSH2 0x4D2 JUMP JUMPDEST DUP2 PUSH20 0xFFFFFFFFFFFFFFFFFFFFFFFFFFFFFFFFFFFFFFFF AND PUSH4 0x6352211E DUP3 PUSH1 0x40 MLOAD DUP3 PUSH4 0xFFFFFFFF AND PUSH1 0xE0 SHL DUP2 MSTORE PUSH1 0x4 ADD PUSH2 0x48B SWAP2 SWAP1 PUSH2 0x113C JUMP JUMPDEST PUSH1 0x20 PUSH1 0x40 MLOAD DUP1 DUP4 SUB DUP2 DUP7 GAS STATICCALL ISZERO DUP1 ISZERO PUSH2 0x4A8 JUMPI RETURNDATASIZE PUSH1 0x0 DUP1 RETURNDATACOPY RETURNDATASIZE PUSH1 0x0 REVERT JUMPDEST POP POP POP POP PUSH1 0x40 MLOAD RETURNDATASIZE PUSH1 0x1F NOT PUSH1 0x1F DUP3 ADD AND DUP3 ADD DUP1 PUSH1 0x40 MSTORE POP DUP2 ADD SWAP1 PUSH2 0x4CC SWAP2 SWAP1 PUSH2 0x1157 JUMP JUMPDEST SWAP4 POP POP POP POP JUMPDEST SWAP1 JUMP JUMPDEST PUSH1 0x60 PUSH2 0x4DF PUSH2 0x3C4 JUMP JUMPDEST PUSH20 0xFFFFFFFFFFFFFFFFFFFFFFFFFFFFFFFFFFFFFFFF AND ORIGIN PUSH20 0xFFFFFFFFFFFFFFFFFFFFFFFFFFFFFFFFFFFFFFFF AND EQ PUSH2 0x54C JUMPI PUSH1 0x40 MLOAD PUSH32 0x8C379A000000000000000000000000000000000000000000000000000000000 DUP2 MSTORE PUSH1 0x4 ADD PUSH2 0x543 SWAP1 PUSH2 0x11D0 JUMP JUMPDEST PUSH1 0x40 MLOAD DUP1 SWAP2 SUB SWAP1 REVERT JUMPDEST PUSH1 0x0 DUP6 PUSH20 0xFFFFFFFFFFFFFFFFFFFFFFFFFFFFFFFFFFFFFFFF AND DUP6 DUP6 DUP6 PUSH1 0x40 MLOAD PUSH2 0x576 SWAP3 SWAP2 SWAP1 PUSH2 0x1220 JUMP JUMPDEST PUSH1 0x0 PUSH1 0x40 MLOAD DUP1 DUP4 SUB DUP2 DUP6 DUP8 GAS CALL SWAP3 POP POP POP RETURNDATASIZE DUP1 PUSH1 0x0 DUP2 EQ PUSH2 0x5B3 JUMPI PUSH1 0x40 MLOAD SWAP2 POP PUSH1 0x1F NOT PUSH1 0x3F RETURNDATASIZE ADD AND DUP3 ADD PUSH1 0x40 MSTORE RETURNDATASIZE DUP3 MSTORE RETURNDATASIZE PUSH1 0x0 PUSH1 0x20 DUP5 ADD RETURNDATACOPY PUSH2 0x5B8 JUMP JUMPDEST PUSH1 0x60 SWAP2 POP JUMPDEST POP DUP1 SWAP4 POP DUP2 SWAP3 POP POP POP DUP1 PUSH2 0x5CE JUMPI DUP2 MLOAD PUSH1 0x20 DUP4 ADD REVERT JUMPDEST POP SWAP5 SWAP4 POP POP POP POP JUMP JUMPDEST PUSH1 0x0 DUP1 PUSH1 0x0 DUP1 ADDRESS PUSH20 0xFFFFFFFFFFFFFFFFFFFFFFFFFFFFFFFFFFFFFFFF AND EXTCODESIZE SWAP1 POP PUSH2 0x60E ADDRESS PUSH1 0x60 DUP4 PUSH2 0x608 SWAP2 SWAP1 PUSH2 0x1268 JUMP JUMPDEST DUP4 PUSH2 0x6BC JUMP JUMPDEST DUP1 PUSH1 0x20 ADD SWAP1 MLOAD DUP2 ADD SWAP1 PUSH2 0x621 SWAP2 SWAP1 PUSH2 0x12DA JUMP JUMPDEST SWAP4 POP SWAP4 POP SWAP4 POP POP SWAP1 SWAP2 SWAP3 JUMP JUMPDEST PUSH1 0x0 DUP1 PUSH1 0x0 PUSH2 0x63C DUP6 DUP6 PUSH2 0x7A1 JUMP JUMPDEST SWAP2 POP SWAP2 POP PUSH1 0x0 PUSH1 0x4 DUP2 GT ISZERO PUSH2 0x654 JUMPI PUSH2 0x653 PUSH2 0x132D JUMP JUMPDEST JUMPDEST DUP2 PUSH1 0x4 DUP2 GT ISZERO PUSH2 0x667 JUMPI PUSH2 0x666 PUSH2 0x132D JUMP JUMPDEST JUMPDEST EQ DUP1 ISZERO PUSH2 0x69F JUMPI POP DUP6 PUSH20 0xFFFFFFFFFFFFFFFFFFFFFFFFFFFFFFFFFFFFFFFF AND DUP3 PUSH20 0xFFFFFFFFFFFFFFFFFFFFFFFFFFFFFFFFFFFFFFFF AND EQ JUMPDEST DUP1 PUSH2 0x6B1 JUMPI POP PUSH2 0x6B0 DUP7 DUP7 DUP7 PUSH2 0x7F2 JUMP JUMPDEST JUMPDEST SWAP3 POP POP POP SWAP4 SWAP3 POP POP POP JUMP JUMPDEST PUSH1 0x60 PUSH1 0x0 PUSH2 0x6C9 DUP6 PUSH2 0x936 JUMP JUMPDEST SWAP1 POP PUSH1 0x0 DUP2 SUB PUSH2 0x6EB JUMPI PUSH1 0x40 MLOAD DUP1 PUSH1 0x20 ADD PUSH1 0x40 MSTORE DUP1 PUSH1 0x0 DUP2 MSTORE POP SWAP2 POP POP PUSH2 0x79A JUMP JUMPDEST DUP1 DUP5 GT ISZERO PUSH2 0x70B JUMPI PUSH1 0x40 MLOAD DUP1 PUSH1 0x20 ADD PUSH1 0x40 MSTORE DUP1 PUSH1 0x0 DUP2 MSTORE POP SWAP2 POP POP PUSH2 0x79A JUMP JUMPDEST DUP4 DUP4 LT ISZERO PUSH2 0x754 JUMPI DUP1 DUP5 DUP5 PUSH1 0x40 MLOAD PUSH32 0x2C4A89FA00000000000000000000000000000000000000000000000000000000 DUP2 MSTORE PUSH1 0x4 ADD PUSH2 0x74B SWAP4 SWAP3 SWAP2 SWAP1 PUSH2 0x135C JUMP JUMPDEST PUSH1 0x40 MLOAD DUP1 SWAP2 SUB SWAP1 REVERT JUMPDEST PUSH1 0x0 DUP5 DUP5 SUB SWAP1 POP PUSH1 0x0 DUP6 DUP4 SUB SWAP1 POP PUSH1 0x0 DUP3 DUP3 LT PUSH2 0x771 JUMPI DUP3 PUSH2 0x773 JUMP JUMPDEST DUP2 JUMPDEST SWAP1 POP PUSH1 0x40 MLOAD SWAP5 POP PUSH1 0x1F NOT PUSH1 0x1F PUSH1 0x20 DUP4 ADD ADD AND DUP6 ADD PUSH1 0x40 MSTORE DUP1 DUP6 MSTORE DUP1 DUP8 PUSH1 0x20 DUP8 ADD DUP11 EXTCODECOPY POP POP POP POP JUMPDEST SWAP4 SWAP3 POP POP POP JUMP JUMPDEST PUSH1 0x0 DUP1 PUSH1 0x41 DUP4 MLOAD SUB PUSH2 0x7E2 JUMPI PUSH1 0x0 DUP1 PUSH1 0x0 PUSH1 0x20 DUP7 ADD MLOAD SWAP3 POP PUSH1 0x40 DUP7 ADD MLOAD SWAP2 POP PUSH1 0x60 DUP7 ADD MLOAD PUSH1 0x0 BYTE SWAP1 POP PUSH2 0x7D6 DUP8 DUP3 DUP6 DUP6 PUSH2 0x941 JUMP JUMPDEST SWAP5 POP SWAP5 POP POP POP POP PUSH2 0x7EB JUMP JUMPDEST PUSH1 0x0 PUSH1 0x2 SWAP2 POP SWAP2 POP JUMPDEST SWAP3 POP SWAP3 SWAP1 POP JUMP JUMPDEST PUSH1 0x0 DUP1 PUSH1 0x0 DUP6 PUSH20 0xFFFFFFFFFFFFFFFFFFFFFFFFFFFFFFFFFFFFFFFF AND PUSH4 0x1626BA7E PUSH1 0xE0 SHL DUP7 DUP7 PUSH1 0x40 MLOAD PUSH1 0x24 ADD PUSH2 0x829 SWAP3 SWAP2 SWAP1 PUSH2 0x13A2 JUMP JUMPDEST PUSH1 0x40 MLOAD PUSH1 0x20 DUP2 DUP4 SUB SUB DUP2 MSTORE SWAP1 PUSH1 0x40 MSTORE SWAP1 PUSH28 0xFFFFFFFFFFFFFFFFFFFFFFFFFFFFFFFFFFFFFFFFFFFFFFFFFFFFFFFF NOT AND PUSH1 0x20 DUP3 ADD DUP1 MLOAD PUSH28 0xFFFFFFFFFFFFFFFFFFFFFFFFFFFFFFFFFFFFFFFFFFFFFFFFFFFFFFFF DUP4 DUP2 DUP4 AND OR DUP4 MSTORE POP POP POP POP PUSH1 0x40 MLOAD PUSH2 0x893 SWAP2 SWAP1 PUSH2 0x1403 JUMP JUMPDEST PUSH1 0x0 PUSH1 0x40 MLOAD DUP1 DUP4 SUB DUP2 DUP6 GAS STATICCALL SWAP2 POP POP RETURNDATASIZE DUP1 PUSH1 0x0 DUP2 EQ PUSH2 0x8CE JUMPI PUSH1 0x40 MLOAD SWAP2 POP PUSH1 0x1F NOT PUSH1 0x3F RETURNDATASIZE ADD AND DUP3 ADD PUSH1 0x40 MSTORE RETURNDATASIZE DUP3 MSTORE RETURNDATASIZE PUSH1 0x0 PUSH1 0x20 DUP5 ADD RETURNDATACOPY PUSH2 0x8D3 JUMP JUMPDEST PUSH1 0x60 SWAP2 POP JUMPDEST POP SWAP2 POP SWAP2 POP DUP2 DUP1 ISZERO PUSH2 0x8E7 JUMPI POP PUSH1 0x20 DUP2 MLOAD LT ISZERO JUMPDEST DUP1 ISZERO PUSH2 0x92B JUMPI POP PUSH4 0x1626BA7E PUSH1 0xE0 SHL PUSH28 0xFFFFFFFFFFFFFFFFFFFFFFFFFFFFFFFFFFFFFFFFFFFFFFFFFFFFFFFF NOT AND DUP2 DUP1 PUSH1 0x20 ADD SWAP1 MLOAD DUP2 ADD SWAP1 PUSH2 0x929 SWAP2 SWAP1 PUSH2 0x142F JUMP JUMPDEST EQ JUMPDEST SWAP3 POP POP POP SWAP4 SWAP3 POP POP POP JUMP JUMPDEST PUSH1 0x0 DUP2 EXTCODESIZE SWAP1 POP SWAP2 SWAP1 POP JUMP JUMPDEST PUSH1 0x0 DUP1 PUSH32 0x7FFFFFFFFFFFFFFFFFFFFFFFFFFFFFFF5D576E7357A4501DDFE92F46681B20A0 DUP4 PUSH1 0x0 SHR GT ISZERO PUSH2 0x97C JUMPI PUSH1 0x0 PUSH1 0x3 SWAP2 POP SWAP2 POP PUSH2 0xA1A JUMP JUMPDEST PUSH1 0x0 PUSH1 0x1 DUP8 DUP8 DUP8 DUP8 PUSH1 0x40 MLOAD PUSH1 0x0 DUP2 MSTORE PUSH1 0x20 ADD PUSH1 0x40 MSTORE PUSH1 0x40 MLOAD PUSH2 0x9A1 SWAP5 SWAP4 SWAP3 SWAP2 SWAP1 PUSH2 0x1478 JUMP JUMPDEST PUSH1 0x20 PUSH1 0x40 MLOAD PUSH1 0x20 DUP2 SUB SWAP1 DUP1 DUP5 SUB SWAP1 DUP6 GAS STATICCALL ISZERO DUP1 ISZERO PUSH2 0x9C3 JUMPI RETURNDATASIZE PUSH1 0x0 DUP1 RETURNDATACOPY RETURNDATASIZE PUSH1 0x0 REVERT JUMPDEST POP POP POP PUSH1 0x20 PUSH1 0x40 MLOAD SUB MLOAD SWAP1 POP PUSH1 0x0 PUSH20 0xFFFFFFFFFFFFFFFFFFFFFFFFFFFFFFFFFFFFFFFF AND DUP2 PUSH20 0xFFFFFFFFFFFFFFFFFFFFFFFFFFFFFFFFFFFFFFFF AND SUB PUSH2 0xA11 JUMPI PUSH1 0x0 PUSH1 0x1 SWAP3 POP SWAP3 POP POP PUSH2 0xA1A JUMP JUMPDEST DUP1 PUSH1 0x0 SWAP3 POP SWAP3 POP POP JUMPDEST SWAP5 POP SWAP5 SWAP3 POP POP POP JUMP JUMPDEST PUSH1 0x0 PUSH1 0x40 MLOAD SWAP1 POP SWAP1 JUMP JUMPDEST PUSH1 0x0 DUP1 REVERT JUMPDEST PUSH1 0x0 DUP1 REVERT JUMPDEST PUSH1 0x0 PUSH32 0xFFFFFFFF00000000000000000000000000000000000000000000000000000000 DUP3 AND SWAP1 POP SWAP2 SWAP1 POP JUMP JUMPDEST PUSH2 0xA6C DUP2 PUSH2 0xA37 JUMP JUMPDEST DUP2 EQ PUSH2 0xA77 JUMPI PUSH1 0x0 DUP1 REVERT JUMPDEST POP JUMP JUMPDEST PUSH1 0x0 DUP2 CALLDATALOAD SWAP1 POP PUSH2 0xA89 DUP2 PUSH2 0xA63 JUMP JUMPDEST SWAP3 SWAP2 POP POP JUMP JUMPDEST PUSH1 0x0 PUSH1 0x20 DUP3 DUP5 SUB SLT ISZERO PUSH2 0xAA5 JUMPI PUSH2 0xAA4 PUSH2 0xA2D JUMP JUMPDEST JUMPDEST PUSH1 0x0 PUSH2 0xAB3 DUP5 DUP3 DUP6 ADD PUSH2 0xA7A JUMP JUMPDEST SWAP2 POP POP SWAP3 SWAP2 POP POP JUMP JUMPDEST PUSH1 0x0 DUP2 ISZERO ISZERO SWAP1 POP SWAP2 SWAP1 POP JUMP JUMPDEST PUSH2 0xAD1 DUP2 PUSH2 0xABC JUMP JUMPDEST DUP3 MSTORE POP POP JUMP JUMPDEST PUSH1 0x0 PUSH1 0x20 DUP3 ADD SWAP1 POP PUSH2 0xAEC PUSH1 0x0 DUP4 ADD DUP5 PUSH2 0xAC8 JUMP JUMPDEST SWAP3 SWAP2 POP POP JUMP JUMPDEST PUSH1 0x0 DUP2 SWAP1 POP SWAP2 SWAP1 POP JUMP JUMPDEST PUSH2 0xB05 DUP2 PUSH2 0xAF2 JUMP JUMPDEST DUP2 EQ PUSH2 0xB10 JUMPI PUSH1 0x0 DUP1 REVERT JUMPDEST POP JUMP JUMPDEST PUSH1 0x0 DUP2 CALLDATALOAD SWAP1 POP PUSH2 0xB22 DUP2 PUSH2 0xAFC JUMP JUMPDEST SWAP3 SWAP2 POP POP JUMP JUMPDEST PUSH1 0x0 DUP1 REVERT JUMPDEST PUSH1 0x0 DUP1 REVERT JUMPDEST PUSH1 0x0 PUSH1 0x1F NOT PUSH1 0x1F DUP4 ADD AND SWAP1 POP SWAP2 SWAP1 POP JUMP JUMPDEST PUSH32 0x4E487B7100000000000000000000000000000000000000000000000000000000 PUSH1 0x0 MSTORE PUSH1 0x41 PUSH1 0x4 MSTORE PUSH1 0x24 PUSH1 0x0 REVERT JUMPDEST PUSH2 0xB7B DUP3 PUSH2 0xB32 JUMP JUMPDEST DUP2 ADD DUP2 DUP2 LT PUSH8 0xFFFFFFFFFFFFFFFF DUP3 GT OR ISZERO PUSH2 0xB9A JUMPI PUSH2 0xB99 PUSH2 0xB43 JUMP JUMPDEST JUMPDEST DUP1 PUSH1 0x40 MSTORE POP POP POP JUMP JUMPDEST PUSH1 0x0 PUSH2 0xBAD PUSH2 0xA23 JUMP JUMPDEST SWAP1 POP PUSH2 0xBB9 DUP3 DUP3 PUSH2 0xB72 JUMP JUMPDEST SWAP2 SWAP1 POP JUMP JUMPDEST PUSH1 0x0 PUSH8 0xFFFFFFFFFFFFFFFF DUP3 GT ISZERO PUSH2 0xBD9 JUMPI PUSH2 0xBD8 PUSH2 0xB43 JUMP JUMPDEST JUMPDEST PUSH2 0xBE2 DUP3 PUSH2 0xB32 JUMP JUMPDEST SWAP1 POP PUSH1 0x20 DUP2 ADD SWAP1 POP SWAP2 SWAP1 POP JUMP JUMPDEST DUP3 DUP2 DUP4 CALLDATACOPY PUSH1 0x0 DUP4 DUP4 ADD MSTORE POP POP POP JUMP JUMPDEST PUSH1 0x0 PUSH2 0xC11 PUSH2 0xC0C DUP5 PUSH2 0xBBE JUMP JUMPDEST PUSH2 0xBA3 JUMP JUMPDEST SWAP1 POP DUP3 DUP2 MSTORE PUSH1 0x20 DUP2 ADD DUP5 DUP5 DUP5 ADD GT ISZERO PUSH2 0xC2D JUMPI PUSH2 0xC2C PUSH2 0xB2D JUMP JUMPDEST JUMPDEST PUSH2 0xC38 DUP5 DUP3 DUP6 PUSH2 0xBEF JUMP JUMPDEST POP SWAP4 SWAP3 POP POP POP JUMP JUMPDEST PUSH1 0x0 DUP3 PUSH1 0x1F DUP4 ADD SLT PUSH2 0xC55 JUMPI PUSH2 0xC54 PUSH2 0xB28 JUMP JUMPDEST JUMPDEST DUP2 CALLDATALOAD PUSH2 0xC65 DUP5 DUP3 PUSH1 0x20 DUP7 ADD PUSH2 0xBFE JUMP JUMPDEST SWAP2 POP POP SWAP3 SWAP2 POP POP JUMP JUMPDEST PUSH1 0x0 DUP1 PUSH1 0x40 DUP4 DUP6 SUB SLT ISZERO PUSH2 0xC85 JUMPI PUSH2 0xC84 PUSH2 0xA2D JUMP JUMPDEST JUMPDEST PUSH1 0x0 PUSH2 0xC93 DUP6 DUP3 DUP7 ADD PUSH2 0xB13 JUMP JUMPDEST SWAP3 POP POP PUSH1 0x20 DUP4 ADD CALLDATALOAD PUSH8 0xFFFFFFFFFFFFFFFF DUP2 GT ISZERO PUSH2 0xCB4 JUMPI PUSH2 0xCB3 PUSH2 0xA32 JUMP JUMPDEST JUMPDEST PUSH2 0xCC0 DUP6 DUP3 DUP7 ADD PUSH2 0xC40 JUMP JUMPDEST SWAP2 POP POP SWAP3 POP SWAP3 SWAP1 POP JUMP JUMPDEST PUSH2 0xCD3 DUP2 PUSH2 0xA37 JUMP JUMPDEST DUP3 MSTORE POP POP JUMP JUMPDEST PUSH1 0x0 PUSH1 0x20 DUP3 ADD SWAP1 POP PUSH2 0xCEE PUSH1 0x0 DUP4 ADD DUP5 PUSH2 0xCCA JUMP JUMPDEST SWAP3 SWAP2 POP POP JUMP JUMPDEST PUSH1 0x0 PUSH20 0xFFFFFFFFFFFFFFFFFFFFFFFFFFFFFFFFFFFFFFFF DUP3 AND SWAP1 POP SWAP2 SWAP1 POP JUMP JUMPDEST PUSH1 0x0 PUSH2 0xD1F DUP3 PUSH2 0xCF4 JUMP JUMPDEST SWAP1 POP SWAP2 SWAP1 POP JUMP JUMPDEST PUSH2 0xD2F DUP2 PUSH2 0xD14 JUMP JUMPDEST DUP2 EQ PUSH2 0xD3A JUMPI PUSH1 0x0 DUP1 REVERT JUMPDEST POP JUMP JUMPDEST PUSH1 0x0 DUP2 CALLDATALOAD SWAP1 POP PUSH2 0xD4C DUP2 PUSH2 0xD26 JUMP JUMPDEST SWAP3 SWAP2 POP POP JUMP JUMPDEST PUSH1 0x0 DUP2 SWAP1 POP SWAP2 SWAP1 POP JUMP JUMPDEST PUSH2 0xD65 DUP2 PUSH2 0xD52 JUMP JUMPDEST DUP2 EQ PUSH2 0xD70 JUMPI PUSH1 0x0 DUP1 REVERT JUMPDEST POP JUMP JUMPDEST PUSH1 0x0 DUP2 CALLDATALOAD SWAP1 POP PUSH2 0xD82 DUP2 PUSH2 0xD5C JUMP JUMPDEST SWAP3 SWAP2 POP POP JUMP JUMPDEST PUSH1 0x0 DUP1 PUSH1 0x0 PUSH1 0x60 DUP5 DUP7 SUB SLT ISZERO PUSH2 0xDA1 JUMPI PUSH2 0xDA0 PUSH2 0xA2D JUMP JUMPDEST JUMPDEST PUSH1 0x0 PUSH2 0xDAF DUP7 DUP3 DUP8 ADD PUSH2 0xD3D JUMP JUMPDEST SWAP4 POP POP PUSH1 0x20 PUSH2 0xDC0 DUP7 DUP3 DUP8 ADD PUSH2 0xD3D JUMP JUMPDEST SWAP3 POP POP PUSH1 0x40 PUSH2 0xDD1 DUP7 DUP3 DUP8 ADD PUSH2 0xD73 JUMP JUMPDEST SWAP2 POP POP SWAP3 POP SWAP3 POP SWAP3 JUMP JUMPDEST PUSH2 0xDE4 DUP2 PUSH2 0xD14 JUMP JUMPDEST DUP3 MSTORE POP POP JUMP JUMPDEST PUSH1 0x0 PUSH1 0x20 DUP3 ADD SWAP1 POP PUSH2 0xDFF PUSH1 0x0 DUP4 ADD DUP5 PUSH2 0xDDB JUMP JUMPDEST SWAP3 SWAP2 POP POP JUMP JUMPDEST PUSH1 0x0 DUP1 REVERT JUMPDEST PUSH1 0x0 DUP1 REVERT JUMPDEST PUSH1 0x0 DUP1 DUP4 PUSH1 0x1F DUP5 ADD SLT PUSH2 0xE25 JUMPI PUSH2 0xE24 PUSH2 0xB28 JUMP JUMPDEST JUMPDEST DUP3 CALLDATALOAD SWAP1 POP PUSH8 0xFFFFFFFFFFFFFFFF DUP2 GT ISZERO PUSH2 0xE42 JUMPI PUSH2 0xE41 PUSH2 0xE05 JUMP JUMPDEST JUMPDEST PUSH1 0x20 DUP4 ADD SWAP2 POP DUP4 PUSH1 0x1 DUP3 MUL DUP4 ADD GT ISZERO PUSH2 0xE5E JUMPI PUSH2 0xE5D PUSH2 0xE0A JUMP JUMPDEST JUMPDEST SWAP3 POP SWAP3 SWAP1 POP JUMP JUMPDEST PUSH1 0x0 DUP1 PUSH1 0x0 DUP1 PUSH1 0x60 DUP6 DUP8 SUB SLT ISZERO PUSH2 0xE7F JUMPI PUSH2 0xE7E PUSH2 0xA2D JUMP JUMPDEST JUMPDEST PUSH1 0x0 PUSH2 0xE8D DUP8 DUP3 DUP9 ADD PUSH2 0xD3D JUMP JUMPDEST SWAP5 POP POP PUSH1 0x20 PUSH2 0xE9E DUP8 DUP3 DUP9 ADD PUSH2 0xD73 JUMP JUMPDEST SWAP4 POP POP PUSH1 0x40 DUP6 ADD CALLDATALOAD PUSH8 0xFFFFFFFFFFFFFFFF DUP2 GT ISZERO PUSH2 0xEBF JUMPI PUSH2 0xEBE PUSH2 0xA32 JUMP JUMPDEST JUMPDEST PUSH2 0xECB DUP8 DUP3 DUP9 ADD PUSH2 0xE0F JUMP JUMPDEST SWAP3 POP SWAP3 POP POP SWAP3 SWAP6 SWAP2 SWAP5 POP SWAP3 POP JUMP JUMPDEST PUSH1 0x0 DUP2 MLOAD SWAP1 POP SWAP2 SWAP1 POP JUMP JUMPDEST PUSH1 0x0 DUP3 DUP3 MSTORE PUSH1 0x20 DUP3 ADD SWAP1 POP SWAP3 SWAP2 POP POP JUMP JUMPDEST PUSH1 0x0 JUMPDEST DUP4 DUP2 LT ISZERO PUSH2 0xF13 JUMPI DUP1 DUP3 ADD MLOAD DUP2 DUP5 ADD MSTORE PUSH1 0x20 DUP2 ADD SWAP1 POP PUSH2 0xEF8 JUMP JUMPDEST PUSH1 0x0 DUP5 DUP5 ADD MSTORE POP POP POP POP JUMP JUMPDEST PUSH1 0x0 PUSH2 0xF2A DUP3 PUSH2 0xED9 JUMP JUMPDEST PUSH2 0xF34 DUP2 DUP6 PUSH2 0xEE4 JUMP JUMPDEST SWAP4 POP PUSH2 0xF44 DUP2 DUP6 PUSH1 0x20 DUP7 ADD PUSH2 0xEF5 JUMP JUMPDEST PUSH2 0xF4D DUP2 PUSH2 0xB32 JUMP JUMPDEST DUP5 ADD SWAP2 POP POP SWAP3 SWAP2 POP POP JUMP JUMPDEST PUSH1 0x0 PUSH1 0x20 DUP3 ADD SWAP1 POP DUP2 DUP2 SUB PUSH1 0x0 DUP4 ADD MSTORE PUSH2 0xF72 DUP2 DUP5 PUSH2 0xF1F JUMP JUMPDEST SWAP1 POP SWAP3 SWAP2 POP POP JUMP JUMPDEST PUSH2 0xF83 DUP2 PUSH2 0xD52 JUMP JUMPDEST DUP3 MSTORE POP POP JUMP JUMPDEST PUSH1 0x0 PUSH1 0x60 DUP3 ADD SWAP1 POP PUSH2 0xF9E PUSH1 0x0 DUP4 ADD DUP7 PUSH2 0xF7A JUMP JUMPDEST PUSH2 0xFAB PUSH1 0x20 DUP4 ADD DUP6 PUSH2 0xDDB JUMP JUMPDEST PUSH2 0xFB8 PUSH1 0x40 DUP4 ADD DUP5 PUSH2 0xF7A JUMP JUMPDEST SWAP5 SWAP4 POP POP POP POP JUMP JUMPDEST PUSH1 0x0 DUP3 DUP3 MSTORE PUSH1 0x20 DUP3 ADD SWAP1 POP SWAP3 SWAP2 POP POP JUMP JUMPDEST PUSH32 0x6E6F74206F776E65720000000000000000000000000000000000000000000000 PUSH1 0x0 DUP3 ADD MSTORE POP JUMP JUMPDEST PUSH1 0x0 PUSH2 0x1007 PUSH1 0x9 DUP4 PUSH2 0xFC0 JUMP JUMPDEST SWAP2 POP PUSH2 0x1012 DUP3 PUSH2 0xFD1 JUMP JUMPDEST PUSH1 0x20 DUP3 ADD SWAP1 POP SWAP2 SWAP1 POP JUMP JUMPDEST PUSH1 0x0 PUSH1 0x20 DUP3 ADD SWAP1 POP DUP2 DUP2 SUB PUSH1 0x0 DUP4 ADD MSTORE PUSH2 0x1036 DUP2 PUSH2 0xFFA JUMP JUMPDEST SWAP1 POP SWAP2 SWAP1 POP JUMP JUMPDEST PUSH1 0x0 PUSH1 0x40 DUP3 ADD SWAP1 POP PUSH2 0x1052 PUSH1 0x0 DUP4 ADD DUP6 PUSH2 0xDDB JUMP JUMPDEST PUSH2 0x105F PUSH1 0x20 DUP4 ADD DUP5 PUSH2 0xF7A JUMP JUMPDEST SWAP4 SWAP3 POP POP POP JUMP JUMPDEST PUSH2 0x106F DUP2 PUSH2 0xABC JUMP JUMPDEST DUP2 EQ PUSH2 0x107A JUMPI PUSH1 0x0 DUP1 REVERT JUMPDEST POP JUMP JUMPDEST PUSH1 0x0 DUP2 MLOAD SWAP1 POP PUSH2 0x108C DUP2 PUSH2 0x1066 JUMP JUMPDEST SWAP3 SWAP2 POP POP JUMP JUMPDEST PUSH1 0x0 PUSH1 0x20 DUP3 DUP5 SUB SLT ISZERO PUSH2 0x10A8 JUMPI PUSH2 0x10A7 PUSH2 0xA2D JUMP JUMPDEST JUMPDEST PUSH1 0x0 PUSH2 0x10B6 DUP5 DUP3 DUP6 ADD PUSH2 0x107D JUMP JUMPDEST SWAP2 POP POP SWAP3 SWAP2 POP POP JUMP JUMPDEST PUSH1 0x0 DUP2 MLOAD SWAP1 POP PUSH2 0x10CE DUP2 PUSH2 0xD5C JUMP JUMPDEST SWAP3 SWAP2 POP POP JUMP JUMPDEST PUSH1 0x0 DUP2 MLOAD SWAP1 POP PUSH2 0x10E3 DUP2 PUSH2 0xD26 JUMP JUMPDEST SWAP3 SWAP2 POP POP JUMP JUMPDEST PUSH1 0x0 DUP1 PUSH1 0x0 PUSH1 0x60 DUP5 DUP7 SUB SLT ISZERO PUSH2 0x1102 JUMPI PUSH2 0x1101 PUSH2 0xA2D JUMP JUMPDEST JUMPDEST PUSH1 0x0 PUSH2 0x1110 DUP7 DUP3 DUP8 ADD PUSH2 0x10BF JUMP JUMPDEST SWAP4 POP POP PUSH1 0x20 PUSH2 0x1121 DUP7 DUP3 DUP8 ADD PUSH2 0x10D4 JUMP JUMPDEST SWAP3 POP POP PUSH1 0x40 PUSH2 0x1132 DUP7 DUP3 DUP8 ADD PUSH2 0x10BF JUMP JUMPDEST SWAP2 POP POP SWAP3 POP SWAP3 POP SWAP3 JUMP JUMPDEST PUSH1 0x0 PUSH1 0x20 DUP3 ADD SWAP1 POP PUSH2 0x1151 PUSH1 0x0 DUP4 ADD DUP5 PUSH2 0xF7A JUMP JUMPDEST SWAP3 SWAP2 POP POP JUMP JUMPDEST PUSH1 0x0 PUSH1 0x20 DUP3 DUP5 SUB SLT ISZERO PUSH2 0x116D JUMPI PUSH2 0x116C PUSH2 0xA2D JUMP JUMPDEST JUMPDEST PUSH1 0x0 PUSH2 0x117B DUP5 DUP3 DUP6 ADD PUSH2 0x10D4 JUMP JUMPDEST SWAP2 POP POP SWAP3 SWAP2 POP POP JUMP JUMPDEST PUSH32 0x4E6F7420746F6B656E206F776E65720000000000000000000000000000000000 PUSH1 0x0 DUP3 ADD MSTORE POP JUMP JUMPDEST PUSH1 0x0 PUSH2 0x11BA PUSH1 0xF DUP4 PUSH2 0xFC0 JUMP JUMPDEST SWAP2 POP PUSH2 0x11C5 DUP3 PUSH2 0x1184 JUMP JUMPDEST PUSH1 0x20 DUP3 ADD SWAP1 POP SWAP2 SWAP1 POP JUMP JUMPDEST PUSH1 0x0 PUSH1 0x20 DUP3 ADD SWAP1 POP DUP2 DUP2 SUB PUSH1 0x0 DUP4 ADD MSTORE PUSH2 0x11E9 DUP2 PUSH2 0x11AD JUMP JUMPDEST SWAP1 POP SWAP2 SWAP1 POP JUMP JUMPDEST PUSH1 0x0 DUP2 SWAP1 POP SWAP3 SWAP2 POP POP JUMP JUMPDEST PUSH1 0x0 PUSH2 0x1207 DUP4 DUP6 PUSH2 0x11F0 JUMP JUMPDEST SWAP4 POP PUSH2 0x1214 DUP4 DUP6 DUP5 PUSH2 0xBEF JUMP JUMPDEST DUP3 DUP5 ADD SWAP1 POP SWAP4 SWAP3 POP POP POP JUMP JUMPDEST PUSH1 0x0 PUSH2 0x122D DUP3 DUP5 DUP7 PUSH2 0x11FB JUMP JUMPDEST SWAP2 POP DUP2 SWAP1 POP SWAP4 SWAP3 POP POP POP JUMP JUMPDEST PUSH32 0x4E487B7100000000000000000000000000000000000000000000000000000000 PUSH1 0x0 MSTORE PUSH1 0x11 PUSH1 0x4 MSTORE PUSH1 0x24 PUSH1 0x0 REVERT JUMPDEST PUSH1 0x0 PUSH2 0x1273 DUP3 PUSH2 0xD52 JUMP JUMPDEST SWAP2 POP PUSH2 0x127E DUP4 PUSH2 0xD52 JUMP JUMPDEST SWAP3 POP DUP3 DUP3 SUB SWAP1 POP DUP2 DUP2 GT ISZERO PUSH2 0x1296 JUMPI PUSH2 0x1295 PUSH2 0x1239 JUMP JUMPDEST JUMPDEST SWAP3 SWAP2 POP POP JUMP JUMPDEST PUSH1 0x0 PUSH2 0x12A7 DUP3 PUSH2 0xCF4 JUMP JUMPDEST SWAP1 POP SWAP2 SWAP1 POP JUMP JUMPDEST PUSH2 0x12B7 DUP2 PUSH2 0x129C JUMP JUMPDEST DUP2 EQ PUSH2 0x12C2 JUMPI PUSH1 0x0 DUP1 REVERT JUMPDEST POP JUMP JUMPDEST PUSH1 0x0 DUP2 MLOAD SWAP1 POP PUSH2 0x12D4 DUP2 PUSH2 0x12AE JUMP JUMPDEST SWAP3 SWAP2 POP POP JUMP JUMPDEST PUSH1 0x0 DUP1 PUSH1 0x0 PUSH1 0x60 DUP5 DUP7 SUB SLT ISZERO PUSH2 0x12F3 JUMPI PUSH2 0x12F2 PUSH2 0xA2D JUMP JUMPDEST JUMPDEST PUSH1 0x0 PUSH2 0x1301 DUP7 DUP3 DUP8 ADD PUSH2 0x10BF JUMP JUMPDEST SWAP4 POP POP PUSH1 0x20 PUSH2 0x1312 DUP7 DUP3 DUP8 ADD PUSH2 0x12C5 JUMP JUMPDEST SWAP3 POP POP PUSH1 0x40 PUSH2 0x1323 DUP7 DUP3 DUP8 ADD PUSH2 0x10BF JUMP JUMPDEST SWAP2 POP POP SWAP3 POP SWAP3 POP SWAP3 JUMP JUMPDEST PUSH32 0x4E487B7100000000000000000000000000000000000000000000000000000000 PUSH1 0x0 MSTORE PUSH1 0x21 PUSH1 0x4 MSTORE PUSH1 0x24 PUSH1 0x0 REVERT JUMPDEST PUSH1 0x0 PUSH1 0x60 DUP3 ADD SWAP1 POP PUSH2 0x1371 PUSH1 0x0 DUP4 ADD DUP7 PUSH2 0xF7A JUMP JUMPDEST PUSH2 0x137E PUSH1 0x20 DUP4 ADD DUP6 PUSH2 0xF7A JUMP JUMPDEST PUSH2 0x138B PUSH1 0x40 DUP4 ADD DUP5 PUSH2 0xF7A JUMP JUMPDEST SWAP5 SWAP4 POP POP POP POP JUMP JUMPDEST PUSH2 0x139C DUP2 PUSH2 0xAF2 JUMP JUMPDEST DUP3 MSTORE POP POP JUMP JUMPDEST PUSH1 0x0 PUSH1 0x40 DUP3 ADD SWAP1 POP PUSH2 0x13B7 PUSH1 0x0 DUP4 ADD DUP6 PUSH2 0x1393 JUMP JUMPDEST DUP2 DUP2 SUB PUSH1 0x20 DUP4 ADD MSTORE PUSH2 0x13C9 DUP2 DUP5 PUSH2 0xF1F JUMP JUMPDEST SWAP1 POP SWAP4 SWAP3 POP POP POP JUMP JUMPDEST PUSH1 0x0 PUSH2 0x13DD DUP3 PUSH2 0xED9 JUMP JUMPDEST PUSH2 0x13E7 DUP2 DUP6 PUSH2 0x11F0 JUMP JUMPDEST SWAP4 POP PUSH2 0x13F7 DUP2 DUP6 PUSH1 0x20 DUP7 ADD PUSH2 0xEF5 JUMP JUMPDEST DUP1 DUP5 ADD SWAP2 POP POP SWAP3 SWAP2 POP POP JUMP JUMPDEST PUSH1 0x0 PUSH2 0x140F DUP3 DUP5 PUSH2 0x13D2 JUMP JUMPDEST SWAP2 POP DUP2 SWAP1 POP SWAP3 SWAP2 POP POP JUMP JUMPDEST PUSH1 0x0 DUP2 MLOAD SWAP1 POP PUSH2 0x1429 DUP2 PUSH2 0xAFC JUMP JUMPDEST SWAP3 SWAP2 POP POP JUMP JUMPDEST PUSH1 0x0 PUSH1 0x20 DUP3 DUP5 SUB SLT ISZERO PUSH2 0x1445 JUMPI PUSH2 0x1444 PUSH2 0xA2D JUMP JUMPDEST JUMPDEST PUSH1 0x0 PUSH2 0x1453 DUP5 DUP3 DUP6 ADD PUSH2 0x141A JUMP JUMPDEST SWAP2 POP POP SWAP3 SWAP2 POP POP JUMP JUMPDEST PUSH1 0x0 PUSH1 0xFF DUP3 AND SWAP1 POP SWAP2 SWAP1 POP JUMP JUMPDEST PUSH2 0x1472 DUP2 PUSH2 0x145C JUMP JUMPDEST DUP3 MSTORE POP POP JUMP JUMPDEST PUSH1 0x0 PUSH1 0x80 DUP3 ADD SWAP1 POP PUSH2 0x148D PUSH1 0x0 DUP4 ADD DUP8 PUSH2 0x1393 JUMP JUMPDEST PUSH2 0x149A PUSH1 0x20 DUP4 ADD DUP7 PUSH2 0x1469 JUMP JUMPDEST PUSH2 0x14A7 PUSH1 0x40 DUP4 ADD DUP6 PUSH2 0x1393 JUMP JUMPDEST PUSH2 0x14B4 PUSH1 0x60 DUP4 ADD DUP5 PUSH2 0x1393 JUMP JUMPDEST SWAP6 SWAP5 POP POP POP POP POP JUMP INVALID LOG2 PUSH5 0x6970667358 0x22 SLT KECCAK256 0x29 REVERT DUP9 CREATE 0xB6 PUSH21 0xD8295138C5498F836E73E2DEE0514633A9A2B29FE GT 0x22 CREATE POP LOG4 PUSH5 0x736F6C6343 STOP ADDMOD ISZERO STOP CALLER "
				},
				"gasEstimates": {
					"creation": {
						"codeDepositCost": "1072600",
						"executionCost": "1114",
						"totalCost": "1073714"
					},
					"external": {
						"executeCall(address,uint256,bytes)": "infinite",
						"executeCallTransferToken(address,address,uint256)": "infinite",
						"isValidSignature(bytes32,bytes)": "infinite",
						"owner()": "infinite",
						"supportsInterface(bytes4)": "662",
						"token()": "infinite"
					}
				},
				"methodIdentifiers": {
					"executeCall(address,uint256,bytes)": "9e5d4c49",
					"executeCallTransferToken(address,address,uint256)": "7d6ad95d",
					"isValidSignature(bytes32,bytes)": "1626ba7e",
					"owner()": "8da5cb5b",
					"supportsInterface(bytes4)": "01ffc9a7",
					"token()": "fc0c546a"
				}
			},
			"storageLayout": {
				"storage": [],
				"types": null
			},
			"userdoc": {
				"kind": "user",
				"methods": {},
				"version": 1
			}
		}
	}
}