{
	"ERC6551RegistryAndAccount.sol": {
		"ERC6551Registry": {
			"abi": [
				{
					"inputs": [],
					"name": "InitializationFailed",
					"type": "error"
				},
				{
					"anonymous": false,
					"inputs": [
						{
							"indexed": false,
							"internalType": "address",
							"name": "account",
							"type": "address"
						},
						{
							"indexed": false,
							"internalType": "address",
							"name": "implementation",
							"type": "address"
						},
						{
							"indexed": false,
							"internalType": "uint256",
							"name": "chainId",
							"type": "uint256"
						},
						{
							"indexed": false,
							"internalType": "address",
							"name": "tokenContract",
							"type": "address"
						},
						{
							"indexed": false,
							"internalType": "uint256",
							"name": "tokenId",
							"type": "uint256"
						},
						{
							"indexed": false,
							"internalType": "uint256",
							"name": "salt",
							"type": "uint256"
						}
					],
					"name": "AccountCreated",
					"type": "event"
				},
				{
					"inputs": [
						{
							"internalType": "address",
							"name": "implementation",
							"type": "address"
						},
						{
							"internalType": "uint256",
							"name": "chainId",
							"type": "uint256"
						},
						{
							"internalType": "address",
							"name": "tokenContract",
							"type": "address"
						},
						{
							"internalType": "uint256",
							"name": "tokenId",
							"type": "uint256"
						},
						{
							"internalType": "uint256",
							"name": "salt",
							"type": "uint256"
						}
					],
					"name": "account",
					"outputs": [
						{
							"internalType": "address",
							"name": "",
							"type": "address"
						}
					],
					"stateMutability": "view",
					"type": "function"
				},
				{
					"inputs": [],
					"name": "accountAddr",
					"outputs": [
						{
							"internalType": "address",
							"name": "",
							"type": "address"
						}
					],
					"stateMutability": "view",
					"type": "function"
				},
				{
					"inputs": [],
					"name": "checkOwnerAccount",
					"outputs": [
						{
							"internalType": "address",
							"name": "",
							"type": "address"
						}
					],
					"stateMutability": "nonpayable",
					"type": "function"
				},
				{
					"inputs": [],
					"name": "checkTokenInfo",
					"outputs": [
						{
							"internalType": "uint256",
							"name": "chainId",
							"type": "uint256"
						},
						{
							"internalType": "address",
							"name": "tokenContract",
							"type": "address"
						},
						{
							"internalType": "uint256",
							"name": "tokenId",
							"type": "uint256"
						}
					],
					"stateMutability": "view",
					"type": "function"
				},
				{
					"inputs": [
						{
							"internalType": "address",
							"name": "implementation",
							"type": "address"
						},
						{
							"internalType": "uint256",
							"name": "chainId",
							"type": "uint256"
						},
						{
							"internalType": "address",
							"name": "tokenContract",
							"type": "address"
						},
						{
							"internalType": "uint256",
							"name": "tokenId",
							"type": "uint256"
						},
						{
							"internalType": "uint256",
							"name": "salt",
							"type": "uint256"
						},
						{
							"internalType": "bytes",
							"name": "initData",
							"type": "bytes"
						}
					],
					"name": "createAccount",
					"outputs": [
						{
							"internalType": "address",
							"name": "",
							"type": "address"
						}
					],
					"stateMutability": "nonpayable",
					"type": "function"
				},
				{
					"inputs": [
						{
							"internalType": "address",
							"name": "to",
							"type": "address"
						},
						{
							"internalType": "uint256",
							"name": "value",
							"type": "uint256"
						},
						{
							"internalType": "bytes",
							"name": "data",
							"type": "bytes"
						}
					],
					"name": "executeCallAccount",
					"outputs": [
						{
							"internalType": "bytes",
							"name": "result",
							"type": "bytes"
						}
					],
					"stateMutability": "payable",
					"type": "function"
				}
			],
			"devdoc": {
				"events": {
					"AccountCreated(address,address,uint256,address,uint256,uint256)": {
						"details": "The registry SHALL emit the AccountCreated event upon successful account creation"
					}
				},
				"kind": "dev",
				"methods": {
					"account(address,uint256,address,uint256,uint256)": {
						"details": "Returns the computed address of a token bound account",
						"returns": {
							"_0": "The computed address of the account"
						}
					},
					"createAccount(address,uint256,address,uint256,uint256,bytes)": {
						"details": "Creates a token bound account for an ERC-721 token. If account has already been created, returns the account address without calling create2. If initData is not empty and account has not yet been created, calls account with provided initData after creation. Emits AccountCreated event.",
						"returns": {
							"_0": "the address of the account"
						}
					}
				},
				"version": 1
			},
			"evm": {
				"assembly": "    /* \"ERC6551RegistryAndAccount.sol\":622:3324  contract ERC6551Registry is IERC6551Registry {... */\n  mstore(0x40, 0x80)\n  callvalue\n  dup1\n  iszero\n  tag_1\n  jumpi\n  0x00\n  dup1\n  revert\ntag_1:\n  pop\n  dataSize(sub_0)\n  dup1\n  dataOffset(sub_0)\n  0x00\n  codecopy\n  0x00\n  return\nstop\n\nsub_0: assembly {\n        /* \"ERC6551RegistryAndAccount.sol\":622:3324  contract ERC6551Registry is IERC6551Registry {... */\n      mstore(0x40, 0x80)\n      jumpi(tag_1, lt(calldatasize, 0x04))\n      shr(0xe0, calldataload(0x00))\n      dup1\n      0x2f5c13b5\n      eq\n      tag_2\n      jumpi\n      dup1\n      0x5b6ff096\n      eq\n      tag_3\n      jumpi\n      dup1\n      0x5e9bc536\n      eq\n      tag_4\n      jumpi\n      dup1\n      0x8fec5661\n      eq\n      tag_5\n      jumpi\n      dup1\n      0x9dfc3149\n      eq\n      tag_6\n      jumpi\n      dup1\n      0xda7323b3\n      eq\n      tag_7\n      jumpi\n    tag_1:\n      0x00\n      dup1\n      revert\n        /* \"ERC6551RegistryAndAccount.sol\":2678:2914  function executeCallAccount(... */\n    tag_2:\n      tag_8\n      0x04\n      dup1\n      calldatasize\n      sub\n      dup2\n      add\n      swap1\n      tag_9\n      swap2\n      swap1\n      tag_10\n      jump\t// in\n    tag_9:\n      tag_11\n      jump\t// in\n    tag_8:\n      mload(0x40)\n      tag_12\n      swap2\n      swap1\n      tag_13\n      jump\t// in\n    tag_12:\n      mload(0x40)\n      dup1\n      swap2\n      sub\n      swap1\n      return\n        /* \"ERC6551RegistryAndAccount.sol\":3040:3322  function checkTokenInfo()... */\n    tag_3:\n      callvalue\n      dup1\n      iszero\n      tag_14\n      jumpi\n      0x00\n      dup1\n      revert\n    tag_14:\n      pop\n      tag_15\n      tag_16\n      jump\t// in\n    tag_15:\n      mload(0x40)\n      tag_17\n      swap4\n      swap3\n      swap2\n      swap1\n      tag_18\n      jump\t// in\n    tag_17:\n      mload(0x40)\n      dup1\n      swap2\n      sub\n      swap1\n      return\n        /* \"ERC6551RegistryAndAccount.sol\":1774:2174  function account(... */\n    tag_4:\n      callvalue\n      dup1\n      iszero\n      tag_19\n      jumpi\n      0x00\n      dup1\n      revert\n    tag_19:\n      pop\n      tag_20\n      0x04\n      dup1\n      calldatasize\n      sub\n      dup2\n      add\n      swap1\n      tag_21\n      swap2\n      swap1\n      tag_22\n      jump\t// in\n    tag_21:\n      tag_23\n      jump\t// in\n    tag_20:\n      mload(0x40)\n      tag_24\n      swap2\n      swap1\n      tag_25\n      jump\t// in\n    tag_24:\n      mload(0x40)\n      dup1\n      swap2\n      sub\n      swap1\n      return\n        /* \"ERC6551RegistryAndAccount.sol\":707:733  address public accountAddr */\n    tag_5:\n      callvalue\n      dup1\n      iszero\n      tag_26\n      jumpi\n      0x00\n      dup1\n      revert\n    tag_26:\n      pop\n      tag_27\n      tag_28\n      jump\t// in\n    tag_27:\n      mload(0x40)\n      tag_29\n      swap2\n      swap1\n      tag_25\n      jump\t// in\n    tag_29:\n      mload(0x40)\n      dup1\n      swap2\n      sub\n      swap1\n      return\n        /* \"ERC6551RegistryAndAccount.sol\":2920:3034  function checkOwnerAccount() public returns (address) {... */\n    tag_6:\n      callvalue\n      dup1\n      iszero\n      tag_30\n      jumpi\n      0x00\n      dup1\n      revert\n    tag_30:\n      pop\n      tag_31\n      tag_32\n      jump\t// in\n    tag_31:\n      mload(0x40)\n      tag_33\n      swap2\n      swap1\n      tag_25\n      jump\t// in\n    tag_33:\n      mload(0x40)\n      dup1\n      swap2\n      sub\n      swap1\n      return\n        /* \"ERC6551RegistryAndAccount.sol\":740:1768  function createAccount(... */\n    tag_7:\n      callvalue\n      dup1\n      iszero\n      tag_34\n      jumpi\n      0x00\n      dup1\n      revert\n    tag_34:\n      pop\n      tag_35\n      0x04\n      dup1\n      calldatasize\n      sub\n      dup2\n      add\n      swap1\n      tag_36\n      swap2\n      swap1\n      tag_37\n      jump\t// in\n    tag_36:\n      tag_38\n      jump\t// in\n    tag_35:\n      mload(0x40)\n      tag_39\n      swap2\n      swap1\n      tag_25\n      jump\t// in\n    tag_39:\n      mload(0x40)\n      dup1\n      swap2\n      sub\n      swap1\n      return\n        /* \"ERC6551RegistryAndAccount.sol\":2678:2914  function executeCallAccount(... */\n    tag_11:\n        /* \"ERC6551RegistryAndAccount.sol\":2810:2829  bytes memory result */\n      0x60\n        /* \"ERC6551RegistryAndAccount.sol\":2866:2877  accountAddr */\n      0x00\n      dup1\n      sload\n      swap1\n      0x0100\n      exp\n      swap1\n      div\n      0xffffffffffffffffffffffffffffffffffffffff\n      and\n        /* \"ERC6551RegistryAndAccount.sol\":2850:2890  IERC6551Account(accountAddr).executeCall */\n      0xffffffffffffffffffffffffffffffffffffffff\n      and\n      0x9e5d4c49\n        /* \"ERC6551RegistryAndAccount.sol\":2891:2893  to */\n      dup7\n        /* \"ERC6551RegistryAndAccount.sol\":2895:2900  value */\n      dup7\n        /* \"ERC6551RegistryAndAccount.sol\":2902:2906  data */\n      dup7\n      dup7\n        /* \"ERC6551RegistryAndAccount.sol\":2850:2907  IERC6551Account(accountAddr).executeCall(to, value, data) */\n      mload(0x40)\n      dup6\n      0xffffffff\n      and\n      0xe0\n      shl\n      dup2\n      mstore\n      0x04\n      add\n      tag_41\n      swap5\n      swap4\n      swap3\n      swap2\n      swap1\n      tag_42\n      jump\t// in\n    tag_41:\n      0x00\n      mload(0x40)\n      dup1\n      dup4\n      sub\n      dup2\n      0x00\n      dup8\n      gas\n      call\n      iszero\n      dup1\n      iszero\n      tag_44\n      jumpi\n      returndatasize\n      0x00\n      dup1\n      returndatacopy\n      revert(0x00, returndatasize)\n    tag_44:\n      pop\n      pop\n      pop\n      pop\n      mload(0x40)\n      returndatasize\n      0x00\n      dup3\n      returndatacopy\n      returndatasize\n      not(0x1f)\n      0x1f\n      dup3\n      add\n      and\n      dup3\n      add\n      dup1\n      0x40\n      mstore\n      pop\n      dup2\n      add\n      swap1\n      tag_45\n      swap2\n      swap1\n      tag_46\n      jump\t// in\n    tag_45:\n        /* \"ERC6551RegistryAndAccount.sol\":2841:2907  result = IERC6551Account(accountAddr).executeCall(to, value, data) */\n      swap1\n      pop\n        /* \"ERC6551RegistryAndAccount.sol\":2678:2914  function executeCallAccount(... */\n      swap5\n      swap4\n      pop\n      pop\n      pop\n      pop\n      jump\t// out\n        /* \"ERC6551RegistryAndAccount.sol\":3040:3322  function checkTokenInfo()... */\n    tag_16:\n        /* \"ERC6551RegistryAndAccount.sol\":3126:3141  uint256 chainId */\n      0x00\n        /* \"ERC6551RegistryAndAccount.sol\":3155:3176  address tokenContract */\n      dup1\n        /* \"ERC6551RegistryAndAccount.sol\":3190:3205  uint256 tokenId */\n      0x00\n        /* \"ERC6551RegistryAndAccount.sol\":3282:3293  accountAddr */\n      dup1\n      0x00\n      swap1\n      sload\n      swap1\n      0x0100\n      exp\n      swap1\n      div\n      0xffffffffffffffffffffffffffffffffffffffff\n      and\n        /* \"ERC6551RegistryAndAccount.sol\":3266:3313  IERC6551Account(accountAddr)... */\n      0xffffffffffffffffffffffffffffffffffffffff\n      and\n      0xfc0c546a\n        /* \"ERC6551RegistryAndAccount.sol\":3266:3315  IERC6551Account(accountAddr)... */\n      mload(0x40)\n      dup2\n      0xffffffff\n      and\n      0xe0\n      shl\n      dup2\n      mstore\n      0x04\n      add\n      0x60\n      mload(0x40)\n      dup1\n      dup4\n      sub\n      dup2\n      dup7\n      gas\n      staticcall\n      iszero\n      dup1\n      iszero\n      tag_49\n      jumpi\n      returndatasize\n      0x00\n      dup1\n      returndatacopy\n      revert(0x00, returndatasize)\n    tag_49:\n      pop\n      pop\n      pop\n      pop\n      mload(0x40)\n      returndatasize\n      not(0x1f)\n      0x1f\n      dup3\n      add\n      and\n      dup3\n      add\n      dup1\n      0x40\n      mstore\n      pop\n      dup2\n      add\n      swap1\n      tag_50\n      swap2\n      swap1\n      tag_51\n      jump\t// in\n    tag_50:\n        /* \"ERC6551RegistryAndAccount.sol\":3230:3315  (chainId, tokenContract, tokenId) = IERC6551Account(accountAddr)... */\n      dup1\n      swap4\n      pop\n      dup2\n      swap5\n      pop\n      dup3\n      swap6\n      pop\n      pop\n      pop\n      pop\n        /* \"ERC6551RegistryAndAccount.sol\":3040:3322  function checkTokenInfo()... */\n      swap1\n      swap2\n      swap3\n      jump\t// out\n        /* \"ERC6551RegistryAndAccount.sol\":1774:2174  function account(... */\n    tag_23:\n        /* \"ERC6551RegistryAndAccount.sol\":1955:1962  address */\n      0x00\n        /* \"ERC6551RegistryAndAccount.sol\":1974:1994  bytes32 bytecodeHash */\n      dup1\n        /* \"ERC6551RegistryAndAccount.sol\":2020:2088  _creationCode(implementation, chainId, tokenContract, tokenId, salt) */\n      tag_53\n        /* \"ERC6551RegistryAndAccount.sol\":2034:2048  implementation */\n      dup8\n        /* \"ERC6551RegistryAndAccount.sol\":2050:2057  chainId */\n      dup8\n        /* \"ERC6551RegistryAndAccount.sol\":2059:2072  tokenContract */\n      dup8\n        /* \"ERC6551RegistryAndAccount.sol\":2074:2081  tokenId */\n      dup8\n        /* \"ERC6551RegistryAndAccount.sol\":2083:2087  salt */\n      dup8\n        /* \"ERC6551RegistryAndAccount.sol\":2020:2033  _creationCode */\n      tag_54\n        /* \"ERC6551RegistryAndAccount.sol\":2020:2088  _creationCode(implementation, chainId, tokenContract, tokenId, salt) */\n      jump\t// in\n    tag_53:\n        /* \"ERC6551RegistryAndAccount.sol\":1997:2098  keccak256(... */\n      dup1\n      mload\n      swap1\n      0x20\n      add\n      keccak256\n        /* \"ERC6551RegistryAndAccount.sol\":1974:2098  bytes32 bytecodeHash = keccak256(... */\n      swap1\n      pop\n        /* \"ERC6551RegistryAndAccount.sol\":2116:2167  Create2.computeAddress(bytes32(salt), bytecodeHash) */\n      tag_55\n        /* \"ERC6551RegistryAndAccount.sol\":2147:2151  salt */\n      dup4\n        /* \"ERC6551RegistryAndAccount.sol\":2139:2152  bytes32(salt) */\n      0x00\n      shl\n        /* \"ERC6551RegistryAndAccount.sol\":2154:2166  bytecodeHash */\n      dup3\n        /* \"ERC6551RegistryAndAccount.sol\":2116:2138  Create2.computeAddress */\n      tag_56\n        /* \"ERC6551RegistryAndAccount.sol\":2116:2167  Create2.computeAddress(bytes32(salt), bytecodeHash) */\n      jump\t// in\n    tag_55:\n        /* \"ERC6551RegistryAndAccount.sol\":2109:2167  return Create2.computeAddress(bytes32(salt), bytecodeHash) */\n      swap2\n      pop\n      pop\n        /* \"ERC6551RegistryAndAccount.sol\":1774:2174  function account(... */\n      swap6\n      swap5\n      pop\n      pop\n      pop\n      pop\n      pop\n      jump\t// out\n        /* \"ERC6551RegistryAndAccount.sol\":707:733  address public accountAddr */\n    tag_28:\n      0x00\n      dup1\n      sload\n      swap1\n      0x0100\n      exp\n      swap1\n      div\n      0xffffffffffffffffffffffffffffffffffffffff\n      and\n      dup2\n      jump\t// out\n        /* \"ERC6551RegistryAndAccount.sol\":2920:3034  function checkOwnerAccount() public returns (address) {... */\n    tag_32:\n        /* \"ERC6551RegistryAndAccount.sol\":2965:2972  address */\n      0x00\n        /* \"ERC6551RegistryAndAccount.sol\":3007:3018  accountAddr */\n      dup1\n      0x00\n      swap1\n      sload\n      swap1\n      0x0100\n      exp\n      swap1\n      div\n      0xffffffffffffffffffffffffffffffffffffffff\n      and\n        /* \"ERC6551RegistryAndAccount.sol\":2991:3025  IERC6551Account(accountAddr).owner */\n      0xffffffffffffffffffffffffffffffffffffffff\n      and\n      0x8da5cb5b\n        /* \"ERC6551RegistryAndAccount.sol\":2991:3027  IERC6551Account(accountAddr).owner() */\n      mload(0x40)\n      dup2\n      0xffffffff\n      and\n      0xe0\n      shl\n      dup2\n      mstore\n      0x04\n      add\n      0x20\n      mload(0x40)\n      dup1\n      dup4\n      sub\n      dup2\n      0x00\n      dup8\n      gas\n      call\n      iszero\n      dup1\n      iszero\n      tag_59\n      jumpi\n      returndatasize\n      0x00\n      dup1\n      returndatacopy\n      revert(0x00, returndatasize)\n    tag_59:\n      pop\n      pop\n      pop\n      pop\n      mload(0x40)\n      returndatasize\n      not(0x1f)\n      0x1f\n      dup3\n      add\n      and\n      dup3\n      add\n      dup1\n      0x40\n      mstore\n      pop\n      dup2\n      add\n      swap1\n      tag_60\n      swap2\n      swap1\n      tag_61\n      jump\t// in\n    tag_60:\n        /* \"ERC6551RegistryAndAccount.sol\":2984:3027  return IERC6551Account(accountAddr).owner() */\n      swap1\n      pop\n        /* \"ERC6551RegistryAndAccount.sol\":2920:3034  function checkOwnerAccount() public returns (address) {... */\n      swap1\n      jump\t// out\n        /* \"ERC6551RegistryAndAccount.sol\":740:1768  function createAccount(... */\n    tag_38:\n        /* \"ERC6551RegistryAndAccount.sol\":955:962  address */\n      0x00\n        /* \"ERC6551RegistryAndAccount.sol\":974:991  bytes memory code */\n      dup1\n        /* \"ERC6551RegistryAndAccount.sol\":994:1132  _creationCode(... */\n      tag_63\n        /* \"ERC6551RegistryAndAccount.sol\":1021:1035  implementation */\n      dup10\n        /* \"ERC6551RegistryAndAccount.sol\":1049:1056  chainId */\n      dup10\n        /* \"ERC6551RegistryAndAccount.sol\":1070:1083  tokenContract */\n      dup10\n        /* \"ERC6551RegistryAndAccount.sol\":1097:1104  tokenId */\n      dup10\n        /* \"ERC6551RegistryAndAccount.sol\":1118:1122  salt */\n      dup10\n        /* \"ERC6551RegistryAndAccount.sol\":994:1007  _creationCode */\n      tag_54\n        /* \"ERC6551RegistryAndAccount.sol\":994:1132  _creationCode(... */\n      jump\t// in\n    tag_63:\n        /* \"ERC6551RegistryAndAccount.sol\":974:1132  bytes memory code = _creationCode(... */\n      swap1\n      pop\n        /* \"ERC6551RegistryAndAccount.sol\":1143:1159  address _account */\n      0x00\n        /* \"ERC6551RegistryAndAccount.sol\":1162:1250  Create2.computeAddress(... */\n      tag_64\n        /* \"ERC6551RegistryAndAccount.sol\":1206:1210  salt */\n      dup7\n        /* \"ERC6551RegistryAndAccount.sol\":1198:1211  bytes32(salt) */\n      0x00\n      shl\n        /* \"ERC6551RegistryAndAccount.sol\":1235:1239  code */\n      dup4\n        /* \"ERC6551RegistryAndAccount.sol\":1225:1240  keccak256(code) */\n      dup1\n      mload\n      swap1\n      0x20\n      add\n      keccak256\n        /* \"ERC6551RegistryAndAccount.sol\":1162:1184  Create2.computeAddress */\n      tag_56\n        /* \"ERC6551RegistryAndAccount.sol\":1162:1250  Create2.computeAddress(... */\n      jump\t// in\n    tag_64:\n        /* \"ERC6551RegistryAndAccount.sol\":1143:1250  address _account = Create2.computeAddress(... */\n      swap1\n      pop\n        /* \"ERC6551RegistryAndAccount.sol\":1289:1290  0 */\n      0x00\n        /* \"ERC6551RegistryAndAccount.sol\":1265:1273  _account */\n      dup2\n        /* \"ERC6551RegistryAndAccount.sol\":1265:1285  _account.code.length */\n      0xffffffffffffffffffffffffffffffffffffffff\n      and\n      extcodesize\n        /* \"ERC6551RegistryAndAccount.sol\":1265:1290  _account.code.length != 0 */\n      eq\n        /* \"ERC6551RegistryAndAccount.sol\":1261:1307  if (_account.code.length != 0) return _account */\n      tag_65\n      jumpi\n        /* \"ERC6551RegistryAndAccount.sol\":1299:1307  _account */\n      dup1\n        /* \"ERC6551RegistryAndAccount.sol\":1292:1307  return _account */\n      swap3\n      pop\n      pop\n      pop\n      jump(tag_62)\n        /* \"ERC6551RegistryAndAccount.sol\":1261:1307  if (_account.code.length != 0) return _account */\n    tag_65:\n        /* \"ERC6551RegistryAndAccount.sol\":1329:1367  Create2.deploy(0, bytes32(salt), code) */\n      tag_66\n        /* \"ERC6551RegistryAndAccount.sol\":1344:1345  0 */\n      0x00\n        /* \"ERC6551RegistryAndAccount.sol\":1355:1359  salt */\n      dup8\n        /* \"ERC6551RegistryAndAccount.sol\":1347:1360  bytes32(salt) */\n      0x00\n      shl\n        /* \"ERC6551RegistryAndAccount.sol\":1362:1366  code */\n      dup5\n        /* \"ERC6551RegistryAndAccount.sol\":1329:1343  Create2.deploy */\n      tag_67\n        /* \"ERC6551RegistryAndAccount.sol\":1329:1367  Create2.deploy(0, bytes32(salt), code) */\n      jump\t// in\n    tag_66:\n        /* \"ERC6551RegistryAndAccount.sol\":1318:1367  _account = Create2.deploy(0, bytes32(salt), code) */\n      swap1\n      pop\n        /* \"ERC6551RegistryAndAccount.sol\":1401:1402  0 */\n      0x00\n        /* \"ERC6551RegistryAndAccount.sol\":1382:1390  initData */\n      dup6\n      dup6\n        /* \"ERC6551RegistryAndAccount.sol\":1382:1397  initData.length */\n      swap1\n      pop\n        /* \"ERC6551RegistryAndAccount.sol\":1382:1402  initData.length != 0 */\n      eq\n        /* \"ERC6551RegistryAndAccount.sol\":1378:1528  if (initData.length != 0) {... */\n      tag_68\n      jumpi\n        /* \"ERC6551RegistryAndAccount.sol\":1419:1431  bool success */\n      0x00\n        /* \"ERC6551RegistryAndAccount.sol\":1437:1445  _account */\n      dup2\n        /* \"ERC6551RegistryAndAccount.sol\":1437:1450  _account.call */\n      0xffffffffffffffffffffffffffffffffffffffff\n      and\n        /* \"ERC6551RegistryAndAccount.sol\":1451:1459  initData */\n      dup7\n      dup7\n        /* \"ERC6551RegistryAndAccount.sol\":1437:1460  _account.call(initData) */\n      mload(0x40)\n      tag_69\n      swap3\n      swap2\n      swap1\n      tag_70\n      jump\t// in\n    tag_69:\n      0x00\n      mload(0x40)\n      dup1\n      dup4\n      sub\n      dup2\n      0x00\n      dup7\n      gas\n      call\n      swap2\n      pop\n      pop\n      returndatasize\n      dup1\n      0x00\n      dup2\n      eq\n      tag_73\n      jumpi\n      mload(0x40)\n      swap2\n      pop\n      and(add(returndatasize, 0x3f), not(0x1f))\n      dup3\n      add\n      0x40\n      mstore\n      returndatasize\n      dup3\n      mstore\n      returndatasize\n      0x00\n      0x20\n      dup5\n      add\n      returndatacopy\n      jump(tag_72)\n    tag_73:\n      0x60\n      swap2\n      pop\n    tag_72:\n      pop\n        /* \"ERC6551RegistryAndAccount.sol\":1418:1460  (bool success, ) = _account.call(initData) */\n      pop\n      swap1\n      pop\n        /* \"ERC6551RegistryAndAccount.sol\":1479:1486  success */\n      dup1\n        /* \"ERC6551RegistryAndAccount.sol\":1474:1517  if (!success) revert InitializationFailed() */\n      tag_74\n      jumpi\n        /* \"ERC6551RegistryAndAccount.sol\":1495:1517  InitializationFailed() */\n      mload(0x40)\n      0x19b991a800000000000000000000000000000000000000000000000000000000\n      dup2\n      mstore\n      0x04\n      add\n      mload(0x40)\n      dup1\n      swap2\n      sub\n      swap1\n      revert\n        /* \"ERC6551RegistryAndAccount.sol\":1474:1517  if (!success) revert InitializationFailed() */\n    tag_74:\n        /* \"ERC6551RegistryAndAccount.sol\":1404:1528  {... */\n      pop\n        /* \"ERC6551RegistryAndAccount.sol\":1378:1528  if (initData.length != 0) {... */\n    tag_68:\n        /* \"ERC6551RegistryAndAccount.sol\":1543:1704  AccountCreated(... */\n      0x07fba7bba1191da7ee1155dcfa0030701c9c9a9cc34a93b991fc6fd0c9268d8f\n        /* \"ERC6551RegistryAndAccount.sol\":1571:1579  _account */\n      dup2\n        /* \"ERC6551RegistryAndAccount.sol\":1593:1607  implementation */\n      dup12\n        /* \"ERC6551RegistryAndAccount.sol\":1621:1628  chainId */\n      dup12\n        /* \"ERC6551RegistryAndAccount.sol\":1642:1655  tokenContract */\n      dup12\n        /* \"ERC6551RegistryAndAccount.sol\":1669:1676  tokenId */\n      dup12\n        /* \"ERC6551RegistryAndAccount.sol\":1690:1694  salt */\n      dup12\n        /* \"ERC6551RegistryAndAccount.sol\":1543:1704  AccountCreated(... */\n      mload(0x40)\n      tag_75\n      swap7\n      swap6\n      swap5\n      swap4\n      swap3\n      swap2\n      swap1\n      tag_76\n      jump\t// in\n    tag_75:\n      mload(0x40)\n      dup1\n      swap2\n      sub\n      swap1\n      log1\n        /* \"ERC6551RegistryAndAccount.sol\":1728:1736  _account */\n      dup1\n        /* \"ERC6551RegistryAndAccount.sol\":1714:1725  accountAddr */\n      0x00\n      dup1\n        /* \"ERC6551RegistryAndAccount.sol\":1714:1736  accountAddr = _account */\n      0x0100\n      exp\n      dup2\n      sload\n      dup2\n      0xffffffffffffffffffffffffffffffffffffffff\n      mul\n      not\n      and\n      swap1\n      dup4\n      0xffffffffffffffffffffffffffffffffffffffff\n      and\n      mul\n      or\n      swap1\n      sstore\n      pop\n        /* \"ERC6551RegistryAndAccount.sol\":1753:1761  _account */\n      dup1\n        /* \"ERC6551RegistryAndAccount.sol\":1746:1761  return _account */\n      swap3\n      pop\n      pop\n      pop\n        /* \"ERC6551RegistryAndAccount.sol\":740:1768  function createAccount(... */\n    tag_62:\n      swap8\n      swap7\n      pop\n      pop\n      pop\n      pop\n      pop\n      pop\n      pop\n      jump\t// out\n        /* \"ERC6551RegistryAndAccount.sol\":2180:2672  function _creationCode(... */\n    tag_54:\n        /* \"ERC6551RegistryAndAccount.sol\":2372:2384  bytes memory */\n      0x60\n        /* \"ERC6551RegistryAndAccount.sol\":2512:2527  implementation_ */\n      dup6\n        /* \"ERC6551RegistryAndAccount.sol\":2609:2614  salt_ */\n      dup3\n        /* \"ERC6551RegistryAndAccount.sol\":2616:2624  chainId_ */\n      dup7\n        /* \"ERC6551RegistryAndAccount.sol\":2626:2640  tokenContract_ */\n      dup7\n        /* \"ERC6551RegistryAndAccount.sol\":2642:2650  tokenId_ */\n      dup7\n        /* \"ERC6551RegistryAndAccount.sol\":2598:2651  abi.encode(salt_, chainId_, tokenContract_, tokenId_) */\n      add(0x20, mload(0x40))\n      tag_78\n      swap5\n      swap4\n      swap3\n      swap2\n      swap1\n      tag_79\n      jump\t// in\n    tag_78:\n      mload(0x40)\n      0x20\n      dup2\n      dup4\n      sub\n      sub\n      dup2\n      mstore\n      swap1\n      0x40\n      mstore\n        /* \"ERC6551RegistryAndAccount.sol\":2415:2665  abi.encodePacked(... */\n      add(0x20, mload(0x40))\n      tag_80\n      swap3\n      swap2\n      swap1\n      tag_81\n      jump\t// in\n    tag_80:\n      mload(0x40)\n      0x20\n      dup2\n      dup4\n      sub\n      sub\n      dup2\n      mstore\n      swap1\n      0x40\n      mstore\n        /* \"ERC6551RegistryAndAccount.sol\":2396:2665  return... */\n      swap1\n      pop\n        /* \"ERC6551RegistryAndAccount.sol\":2180:2672  function _creationCode(... */\n      swap6\n      swap5\n      pop\n      pop\n      pop\n      pop\n      pop\n      jump\t// out\n        /* \"@openzeppelin/contracts/utils/Create2.sol\":1769:1934  function computeAddress(bytes32 salt, bytes32 bytecodeHash) internal view returns (address) {... */\n    tag_56:\n        /* \"@openzeppelin/contracts/utils/Create2.sol\":1852:1859  address */\n      0x00\n        /* \"@openzeppelin/contracts/utils/Create2.sol\":1878:1927  computeAddress(salt, bytecodeHash, address(this)) */\n      tag_83\n        /* \"@openzeppelin/contracts/utils/Create2.sol\":1893:1897  salt */\n      dup4\n        /* \"@openzeppelin/contracts/utils/Create2.sol\":1899:1911  bytecodeHash */\n      dup4\n        /* \"@openzeppelin/contracts/utils/Create2.sol\":1921:1925  this */\n      address\n        /* \"@openzeppelin/contracts/utils/Create2.sol\":1878:1892  computeAddress */\n      tag_84\n        /* \"@openzeppelin/contracts/utils/Create2.sol\":1878:1927  computeAddress(salt, bytecodeHash, address(this)) */\n      jump\t// in\n    tag_83:\n        /* \"@openzeppelin/contracts/utils/Create2.sol\":1871:1927  return computeAddress(salt, bytecodeHash, address(this)) */\n      swap1\n      pop\n        /* \"@openzeppelin/contracts/utils/Create2.sol\":1769:1934  function computeAddress(bytes32 salt, bytes32 bytecodeHash) internal view returns (address) {... */\n      swap3\n      swap2\n      pop\n      pop\n      jump\t// out\n        /* \"@openzeppelin/contracts/utils/Create2.sol\":1081:1565  function deploy(uint256 amount, bytes32 salt, bytes memory bytecode) internal returns (address addr) {... */\n    tag_67:\n        /* \"@openzeppelin/contracts/utils/Create2.sol\":1168:1180  address addr */\n      0x00\n        /* \"@openzeppelin/contracts/utils/Create2.sol\":1225:1231  amount */\n      dup4\n        /* \"@openzeppelin/contracts/utils/Create2.sol\":1200:1221  address(this).balance */\n      selfbalance\n        /* \"@openzeppelin/contracts/utils/Create2.sol\":1200:1231  address(this).balance >= amount */\n      lt\n      iszero\n        /* \"@openzeppelin/contracts/utils/Create2.sol\":1192:1265  require(address(this).balance >= amount, \"Create2: insufficient balance\") */\n      tag_86\n      jumpi\n      mload(0x40)\n      0x08c379a000000000000000000000000000000000000000000000000000000000\n      dup2\n      mstore\n      0x04\n      add\n      tag_87\n      swap1\n      tag_88\n      jump\t// in\n    tag_87:\n      mload(0x40)\n      dup1\n      swap2\n      sub\n      swap1\n      revert\n    tag_86:\n        /* \"@openzeppelin/contracts/utils/Create2.sol\":1302:1303  0 */\n      0x00\n        /* \"@openzeppelin/contracts/utils/Create2.sol\":1283:1291  bytecode */\n      dup3\n        /* \"@openzeppelin/contracts/utils/Create2.sol\":1283:1298  bytecode.length */\n      mload\n        /* \"@openzeppelin/contracts/utils/Create2.sol\":1283:1303  bytecode.length != 0 */\n      sub\n        /* \"@openzeppelin/contracts/utils/Create2.sol\":1275:1340  require(bytecode.length != 0, \"Create2: bytecode length is zero\") */\n      tag_89\n      jumpi\n      mload(0x40)\n      0x08c379a000000000000000000000000000000000000000000000000000000000\n      dup2\n      mstore\n      0x04\n      add\n      tag_90\n      swap1\n      tag_91\n      jump\t// in\n    tag_90:\n      mload(0x40)\n      dup1\n      swap2\n      sub\n      swap1\n      revert\n    tag_89:\n        /* \"@openzeppelin/contracts/utils/Create2.sol\":1478:1482  salt */\n      dup3\n        /* \"@openzeppelin/contracts/utils/Create2.sol\":1467:1475  bytecode */\n      dup3\n        /* \"@openzeppelin/contracts/utils/Create2.sol\":1461:1476  mload(bytecode) */\n      mload\n        /* \"@openzeppelin/contracts/utils/Create2.sol\":1454:1458  0x20 */\n      0x20\n        /* \"@openzeppelin/contracts/utils/Create2.sol\":1444:1452  bytecode */\n      dup5\n        /* \"@openzeppelin/contracts/utils/Create2.sol\":1440:1459  add(bytecode, 0x20) */\n      add\n        /* \"@openzeppelin/contracts/utils/Create2.sol\":1432:1438  amount */\n      dup7\n        /* \"@openzeppelin/contracts/utils/Create2.sol\":1424:1483  create2(amount, add(bytecode, 0x20), mload(bytecode), salt) */\n      create2\n        /* \"@openzeppelin/contracts/utils/Create2.sol\":1416:1483  addr := create2(amount, add(bytecode, 0x20), mload(bytecode), salt) */\n      swap1\n      pop\n        /* \"@openzeppelin/contracts/utils/Create2.sol\":1526:1527  0 */\n      0x00\n        /* \"@openzeppelin/contracts/utils/Create2.sol\":1510:1528  addr != address(0) */\n      0xffffffffffffffffffffffffffffffffffffffff\n      and\n        /* \"@openzeppelin/contracts/utils/Create2.sol\":1510:1514  addr */\n      dup2\n        /* \"@openzeppelin/contracts/utils/Create2.sol\":1510:1528  addr != address(0) */\n      0xffffffffffffffffffffffffffffffffffffffff\n      and\n      sub\n        /* \"@openzeppelin/contracts/utils/Create2.sol\":1502:1558  require(addr != address(0), \"Create2: Failed on deploy\") */\n      tag_92\n      jumpi\n      mload(0x40)\n      0x08c379a000000000000000000000000000000000000000000000000000000000\n      dup2\n      mstore\n      0x04\n      add\n      tag_93\n      swap1\n      tag_94\n      jump\t// in\n    tag_93:\n      mload(0x40)\n      dup1\n      swap2\n      sub\n      swap1\n      revert\n    tag_92:\n        /* \"@openzeppelin/contracts/utils/Create2.sol\":1081:1565  function deploy(uint256 amount, bytes32 salt, bytes memory bytecode) internal returns (address addr) {... */\n      swap4\n      swap3\n      pop\n      pop\n      pop\n      jump\t// out\n        /* \"@openzeppelin/contracts/utils/Create2.sol\":2177:3949  function computeAddress(bytes32 salt, bytes32 bytecodeHash, address deployer) internal pure returns (address addr) {... */\n    tag_84:\n        /* \"@openzeppelin/contracts/utils/Create2.sol\":2278:2290  address addr */\n      0x00\n        /* \"@openzeppelin/contracts/utils/Create2.sol\":2385:2389  0x40 */\n      0x40\n        /* \"@openzeppelin/contracts/utils/Create2.sol\":2379:2390  mload(0x40) */\n      mload\n        /* \"@openzeppelin/contracts/utils/Create2.sol\":3604:3616  bytecodeHash */\n      dup4\n        /* \"@openzeppelin/contracts/utils/Create2.sol\":3597:3601  0x40 */\n      0x40\n        /* \"@openzeppelin/contracts/utils/Create2.sol\":3592:3595  ptr */\n      dup3\n        /* \"@openzeppelin/contracts/utils/Create2.sol\":3588:3602  add(ptr, 0x40) */\n      add\n        /* \"@openzeppelin/contracts/utils/Create2.sol\":3581:3617  mstore(add(ptr, 0x40), bytecodeHash) */\n      mstore\n        /* \"@openzeppelin/contracts/utils/Create2.sol\":3653:3657  salt */\n      dup5\n        /* \"@openzeppelin/contracts/utils/Create2.sol\":3646:3650  0x20 */\n      0x20\n        /* \"@openzeppelin/contracts/utils/Create2.sol\":3641:3644  ptr */\n      dup3\n        /* \"@openzeppelin/contracts/utils/Create2.sol\":3637:3651  add(ptr, 0x20) */\n      add\n        /* \"@openzeppelin/contracts/utils/Create2.sol\":3630:3658  mstore(add(ptr, 0x20), salt) */\n      mstore\n        /* \"@openzeppelin/contracts/utils/Create2.sol\":3683:3691  deployer */\n      dup3\n        /* \"@openzeppelin/contracts/utils/Create2.sol\":3678:3681  ptr */\n      dup2\n        /* \"@openzeppelin/contracts/utils/Create2.sol\":3671:3692  mstore(ptr, deployer) */\n      mstore\n        /* \"@openzeppelin/contracts/utils/Create2.sol\":3776:3780  0x0b */\n      0x0b\n        /* \"@openzeppelin/contracts/utils/Create2.sol\":3771:3774  ptr */\n      dup2\n        /* \"@openzeppelin/contracts/utils/Create2.sol\":3767:3781  add(ptr, 0x0b) */\n      add\n        /* \"@openzeppelin/contracts/utils/Create2.sol\":3887:3891  0xff */\n      0xff\n        /* \"@openzeppelin/contracts/utils/Create2.sol\":3880:3885  start */\n      dup2\n        /* \"@openzeppelin/contracts/utils/Create2.sol\":3872:3892  mstore8(start, 0xff) */\n      mstore8\n        /* \"@openzeppelin/contracts/utils/Create2.sol\":3930:3932  85 */\n      0x55\n        /* \"@openzeppelin/contracts/utils/Create2.sol\":3923:3928  start */\n      dup2\n        /* \"@openzeppelin/contracts/utils/Create2.sol\":3913:3933  keccak256(start, 85) */\n      keccak256\n        /* \"@openzeppelin/contracts/utils/Create2.sol\":3905:3933  addr := keccak256(start, 85) */\n      swap3\n      pop\n        /* \"@openzeppelin/contracts/utils/Create2.sol\":2354:3943  {... */\n      pop\n      pop\n        /* \"@openzeppelin/contracts/utils/Create2.sol\":2177:3949  function computeAddress(bytes32 salt, bytes32 bytecodeHash, address deployer) internal pure returns (address addr) {... */\n      swap4\n      swap3\n      pop\n      pop\n      pop\n      jump\t// out\n        /* \"#utility.yul\":7:82   */\n    tag_96:\n        /* \"#utility.yul\":40:46   */\n      0x00\n        /* \"#utility.yul\":73:75   */\n      0x40\n        /* \"#utility.yul\":67:76   */\n      mload\n        /* \"#utility.yul\":57:76   */\n      swap1\n      pop\n        /* \"#utility.yul\":7:82   */\n      swap1\n      jump\t// out\n        /* \"#utility.yul\":88:205   */\n    tag_97:\n        /* \"#utility.yul\":197:198   */\n      0x00\n        /* \"#utility.yul\":194:195   */\n      dup1\n        /* \"#utility.yul\":187:199   */\n      revert\n        /* \"#utility.yul\":211:328   */\n    tag_98:\n        /* \"#utility.yul\":320:321   */\n      0x00\n        /* \"#utility.yul\":317:318   */\n      dup1\n        /* \"#utility.yul\":310:322   */\n      revert\n        /* \"#utility.yul\":334:460   */\n    tag_99:\n        /* \"#utility.yul\":371:378   */\n      0x00\n        /* \"#utility.yul\":411:453   */\n      0xffffffffffffffffffffffffffffffffffffffff\n        /* \"#utility.yul\":404:409   */\n      dup3\n        /* \"#utility.yul\":400:454   */\n      and\n        /* \"#utility.yul\":389:454   */\n      swap1\n      pop\n        /* \"#utility.yul\":334:460   */\n      swap2\n      swap1\n      pop\n      jump\t// out\n        /* \"#utility.yul\":466:562   */\n    tag_100:\n        /* \"#utility.yul\":503:510   */\n      0x00\n        /* \"#utility.yul\":532:556   */\n      tag_153\n        /* \"#utility.yul\":550:555   */\n      dup3\n        /* \"#utility.yul\":532:556   */\n      tag_99\n      jump\t// in\n    tag_153:\n        /* \"#utility.yul\":521:556   */\n      swap1\n      pop\n        /* \"#utility.yul\":466:562   */\n      swap2\n      swap1\n      pop\n      jump\t// out\n        /* \"#utility.yul\":568:690   */\n    tag_101:\n        /* \"#utility.yul\":641:665   */\n      tag_155\n        /* \"#utility.yul\":659:664   */\n      dup2\n        /* \"#utility.yul\":641:665   */\n      tag_100\n      jump\t// in\n    tag_155:\n        /* \"#utility.yul\":634:639   */\n      dup2\n        /* \"#utility.yul\":631:666   */\n      eq\n        /* \"#utility.yul\":621:684   */\n      tag_156\n      jumpi\n        /* \"#utility.yul\":680:681   */\n      0x00\n        /* \"#utility.yul\":677:678   */\n      dup1\n        /* \"#utility.yul\":670:682   */\n      revert\n        /* \"#utility.yul\":621:684   */\n    tag_156:\n        /* \"#utility.yul\":568:690   */\n      pop\n      jump\t// out\n        /* \"#utility.yul\":696:835   */\n    tag_102:\n        /* \"#utility.yul\":742:747   */\n      0x00\n        /* \"#utility.yul\":780:786   */\n      dup2\n        /* \"#utility.yul\":767:787   */\n      calldataload\n        /* \"#utility.yul\":758:787   */\n      swap1\n      pop\n        /* \"#utility.yul\":796:829   */\n      tag_158\n        /* \"#utility.yul\":823:828   */\n      dup2\n        /* \"#utility.yul\":796:829   */\n      tag_101\n      jump\t// in\n    tag_158:\n        /* \"#utility.yul\":696:835   */\n      swap3\n      swap2\n      pop\n      pop\n      jump\t// out\n        /* \"#utility.yul\":841:918   */\n    tag_103:\n        /* \"#utility.yul\":878:885   */\n      0x00\n        /* \"#utility.yul\":907:912   */\n      dup2\n        /* \"#utility.yul\":896:912   */\n      swap1\n      pop\n        /* \"#utility.yul\":841:918   */\n      swap2\n      swap1\n      pop\n      jump\t// out\n        /* \"#utility.yul\":924:1046   */\n    tag_104:\n        /* \"#utility.yul\":997:1021   */\n      tag_161\n        /* \"#utility.yul\":1015:1020   */\n      dup2\n        /* \"#utility.yul\":997:1021   */\n      tag_103\n      jump\t// in\n    tag_161:\n        /* \"#utility.yul\":990:995   */\n      dup2\n        /* \"#utility.yul\":987:1022   */\n      eq\n        /* \"#utility.yul\":977:1040   */\n      tag_162\n      jumpi\n        /* \"#utility.yul\":1036:1037   */\n      0x00\n        /* \"#utility.yul\":1033:1034   */\n      dup1\n        /* \"#utility.yul\":1026:1038   */\n      revert\n        /* \"#utility.yul\":977:1040   */\n    tag_162:\n        /* \"#utility.yul\":924:1046   */\n      pop\n      jump\t// out\n        /* \"#utility.yul\":1052:1191   */\n    tag_105:\n        /* \"#utility.yul\":1098:1103   */\n      0x00\n        /* \"#utility.yul\":1136:1142   */\n      dup2\n        /* \"#utility.yul\":1123:1143   */\n      calldataload\n        /* \"#utility.yul\":1114:1143   */\n      swap1\n      pop\n        /* \"#utility.yul\":1152:1185   */\n      tag_164\n        /* \"#utility.yul\":1179:1184   */\n      dup2\n        /* \"#utility.yul\":1152:1185   */\n      tag_104\n      jump\t// in\n    tag_164:\n        /* \"#utility.yul\":1052:1191   */\n      swap3\n      swap2\n      pop\n      pop\n      jump\t// out\n        /* \"#utility.yul\":1197:1314   */\n    tag_106:\n        /* \"#utility.yul\":1306:1307   */\n      0x00\n        /* \"#utility.yul\":1303:1304   */\n      dup1\n        /* \"#utility.yul\":1296:1308   */\n      revert\n        /* \"#utility.yul\":1320:1437   */\n    tag_107:\n        /* \"#utility.yul\":1429:1430   */\n      0x00\n        /* \"#utility.yul\":1426:1427   */\n      dup1\n        /* \"#utility.yul\":1419:1431   */\n      revert\n        /* \"#utility.yul\":1443:1560   */\n    tag_108:\n        /* \"#utility.yul\":1552:1553   */\n      0x00\n        /* \"#utility.yul\":1549:1550   */\n      dup1\n        /* \"#utility.yul\":1542:1554   */\n      revert\n        /* \"#utility.yul\":1579:2131   */\n    tag_109:\n        /* \"#utility.yul\":1636:1644   */\n      0x00\n        /* \"#utility.yul\":1646:1652   */\n      dup1\n        /* \"#utility.yul\":1696:1699   */\n      dup4\n        /* \"#utility.yul\":1689:1693   */\n      0x1f\n        /* \"#utility.yul\":1681:1687   */\n      dup5\n        /* \"#utility.yul\":1677:1694   */\n      add\n        /* \"#utility.yul\":1673:1700   */\n      slt\n        /* \"#utility.yul\":1663:1785   */\n      tag_169\n      jumpi\n        /* \"#utility.yul\":1704:1783   */\n      tag_170\n      tag_106\n      jump\t// in\n    tag_170:\n        /* \"#utility.yul\":1663:1785   */\n    tag_169:\n        /* \"#utility.yul\":1817:1823   */\n      dup3\n        /* \"#utility.yul\":1804:1824   */\n      calldataload\n        /* \"#utility.yul\":1794:1824   */\n      swap1\n      pop\n        /* \"#utility.yul\":1847:1865   */\n      0xffffffffffffffff\n        /* \"#utility.yul\":1839:1845   */\n      dup2\n        /* \"#utility.yul\":1836:1866   */\n      gt\n        /* \"#utility.yul\":1833:1950   */\n      iszero\n      tag_171\n      jumpi\n        /* \"#utility.yul\":1869:1948   */\n      tag_172\n      tag_107\n      jump\t// in\n    tag_172:\n        /* \"#utility.yul\":1833:1950   */\n    tag_171:\n        /* \"#utility.yul\":1983:1987   */\n      0x20\n        /* \"#utility.yul\":1975:1981   */\n      dup4\n        /* \"#utility.yul\":1971:1988   */\n      add\n        /* \"#utility.yul\":1959:1988   */\n      swap2\n      pop\n        /* \"#utility.yul\":2037:2040   */\n      dup4\n        /* \"#utility.yul\":2029:2033   */\n      0x01\n        /* \"#utility.yul\":2021:2027   */\n      dup3\n        /* \"#utility.yul\":2017:2034   */\n      mul\n        /* \"#utility.yul\":2007:2015   */\n      dup4\n        /* \"#utility.yul\":2003:2035   */\n      add\n        /* \"#utility.yul\":2000:2041   */\n      gt\n        /* \"#utility.yul\":1997:2125   */\n      iszero\n      tag_173\n      jumpi\n        /* \"#utility.yul\":2044:2123   */\n      tag_174\n      tag_108\n      jump\t// in\n    tag_174:\n        /* \"#utility.yul\":1997:2125   */\n    tag_173:\n        /* \"#utility.yul\":1579:2131   */\n      swap3\n      pop\n      swap3\n      swap1\n      pop\n      jump\t// out\n        /* \"#utility.yul\":2137:2954   */\n    tag_10:\n        /* \"#utility.yul\":2225:2231   */\n      0x00\n        /* \"#utility.yul\":2233:2239   */\n      dup1\n        /* \"#utility.yul\":2241:2247   */\n      0x00\n        /* \"#utility.yul\":2249:2255   */\n      dup1\n        /* \"#utility.yul\":2298:2300   */\n      0x60\n        /* \"#utility.yul\":2286:2295   */\n      dup6\n        /* \"#utility.yul\":2277:2284   */\n      dup8\n        /* \"#utility.yul\":2273:2296   */\n      sub\n        /* \"#utility.yul\":2269:2301   */\n      slt\n        /* \"#utility.yul\":2266:2385   */\n      iszero\n      tag_176\n      jumpi\n        /* \"#utility.yul\":2304:2383   */\n      tag_177\n      tag_97\n      jump\t// in\n    tag_177:\n        /* \"#utility.yul\":2266:2385   */\n    tag_176:\n        /* \"#utility.yul\":2424:2425   */\n      0x00\n        /* \"#utility.yul\":2449:2502   */\n      tag_178\n        /* \"#utility.yul\":2494:2501   */\n      dup8\n        /* \"#utility.yul\":2485:2491   */\n      dup3\n        /* \"#utility.yul\":2474:2483   */\n      dup9\n        /* \"#utility.yul\":2470:2492   */\n      add\n        /* \"#utility.yul\":2449:2502   */\n      tag_102\n      jump\t// in\n    tag_178:\n        /* \"#utility.yul\":2439:2502   */\n      swap5\n      pop\n        /* \"#utility.yul\":2395:2512   */\n      pop\n        /* \"#utility.yul\":2551:2553   */\n      0x20\n        /* \"#utility.yul\":2577:2630   */\n      tag_179\n        /* \"#utility.yul\":2622:2629   */\n      dup8\n        /* \"#utility.yul\":2613:2619   */\n      dup3\n        /* \"#utility.yul\":2602:2611   */\n      dup9\n        /* \"#utility.yul\":2598:2620   */\n      add\n        /* \"#utility.yul\":2577:2630   */\n      tag_105\n      jump\t// in\n    tag_179:\n        /* \"#utility.yul\":2567:2630   */\n      swap4\n      pop\n        /* \"#utility.yul\":2522:2640   */\n      pop\n        /* \"#utility.yul\":2707:2709   */\n      0x40\n        /* \"#utility.yul\":2696:2705   */\n      dup6\n        /* \"#utility.yul\":2692:2710   */\n      add\n        /* \"#utility.yul\":2679:2711   */\n      calldataload\n        /* \"#utility.yul\":2738:2756   */\n      0xffffffffffffffff\n        /* \"#utility.yul\":2730:2736   */\n      dup2\n        /* \"#utility.yul\":2727:2757   */\n      gt\n        /* \"#utility.yul\":2724:2841   */\n      iszero\n      tag_180\n      jumpi\n        /* \"#utility.yul\":2760:2839   */\n      tag_181\n      tag_98\n      jump\t// in\n    tag_181:\n        /* \"#utility.yul\":2724:2841   */\n    tag_180:\n        /* \"#utility.yul\":2873:2937   */\n      tag_182\n        /* \"#utility.yul\":2929:2936   */\n      dup8\n        /* \"#utility.yul\":2920:2926   */\n      dup3\n        /* \"#utility.yul\":2909:2918   */\n      dup9\n        /* \"#utility.yul\":2905:2927   */\n      add\n        /* \"#utility.yul\":2873:2937   */\n      tag_109\n      jump\t// in\n    tag_182:\n        /* \"#utility.yul\":2855:2937   */\n      swap3\n      pop\n      swap3\n      pop\n        /* \"#utility.yul\":2650:2947   */\n      pop\n        /* \"#utility.yul\":2137:2954   */\n      swap3\n      swap6\n      swap2\n      swap5\n      pop\n      swap3\n      pop\n      jump\t// out\n        /* \"#utility.yul\":2960:3058   */\n    tag_110:\n        /* \"#utility.yul\":3011:3017   */\n      0x00\n        /* \"#utility.yul\":3045:3050   */\n      dup2\n        /* \"#utility.yul\":3039:3051   */\n      mload\n        /* \"#utility.yul\":3029:3051   */\n      swap1\n      pop\n        /* \"#utility.yul\":2960:3058   */\n      swap2\n      swap1\n      pop\n      jump\t// out\n        /* \"#utility.yul\":3064:3232   */\n    tag_111:\n        /* \"#utility.yul\":3147:3158   */\n      0x00\n        /* \"#utility.yul\":3181:3187   */\n      dup3\n        /* \"#utility.yul\":3176:3179   */\n      dup3\n        /* \"#utility.yul\":3169:3188   */\n      mstore\n        /* \"#utility.yul\":3221:3225   */\n      0x20\n        /* \"#utility.yul\":3216:3219   */\n      dup3\n        /* \"#utility.yul\":3212:3226   */\n      add\n        /* \"#utility.yul\":3197:3226   */\n      swap1\n      pop\n        /* \"#utility.yul\":3064:3232   */\n      swap3\n      swap2\n      pop\n      pop\n      jump\t// out\n        /* \"#utility.yul\":3238:3484   */\n    tag_112:\n        /* \"#utility.yul\":3319:3320   */\n      0x00\n        /* \"#utility.yul\":3329:3442   */\n    tag_186:\n        /* \"#utility.yul\":3343:3349   */\n      dup4\n        /* \"#utility.yul\":3340:3341   */\n      dup2\n        /* \"#utility.yul\":3337:3350   */\n      lt\n        /* \"#utility.yul\":3329:3442   */\n      iszero\n      tag_188\n      jumpi\n        /* \"#utility.yul\":3428:3429   */\n      dup1\n        /* \"#utility.yul\":3423:3426   */\n      dup3\n        /* \"#utility.yul\":3419:3430   */\n      add\n        /* \"#utility.yul\":3413:3431   */\n      mload\n        /* \"#utility.yul\":3409:3410   */\n      dup2\n        /* \"#utility.yul\":3404:3407   */\n      dup5\n        /* \"#utility.yul\":3400:3411   */\n      add\n        /* \"#utility.yul\":3393:3432   */\n      mstore\n        /* \"#utility.yul\":3365:3367   */\n      0x20\n        /* \"#utility.yul\":3362:3363   */\n      dup2\n        /* \"#utility.yul\":3358:3368   */\n      add\n        /* \"#utility.yul\":3353:3368   */\n      swap1\n      pop\n        /* \"#utility.yul\":3329:3442   */\n      jump(tag_186)\n    tag_188:\n        /* \"#utility.yul\":3476:3477   */\n      0x00\n        /* \"#utility.yul\":3467:3473   */\n      dup5\n        /* \"#utility.yul\":3462:3465   */\n      dup5\n        /* \"#utility.yul\":3458:3474   */\n      add\n        /* \"#utility.yul\":3451:3478   */\n      mstore\n        /* \"#utility.yul\":3300:3484   */\n      pop\n        /* \"#utility.yul\":3238:3484   */\n      pop\n      pop\n      pop\n      jump\t// out\n        /* \"#utility.yul\":3490:3592   */\n    tag_113:\n        /* \"#utility.yul\":3531:3537   */\n      0x00\n        /* \"#utility.yul\":3582:3584   */\n      0x1f\n        /* \"#utility.yul\":3578:3585   */\n      not\n        /* \"#utility.yul\":3573:3575   */\n      0x1f\n        /* \"#utility.yul\":3566:3571   */\n      dup4\n        /* \"#utility.yul\":3562:3576   */\n      add\n        /* \"#utility.yul\":3558:3586   */\n      and\n        /* \"#utility.yul\":3548:3586   */\n      swap1\n      pop\n        /* \"#utility.yul\":3490:3592   */\n      swap2\n      swap1\n      pop\n      jump\t// out\n        /* \"#utility.yul\":3598:3971   */\n    tag_114:\n        /* \"#utility.yul\":3684:3687   */\n      0x00\n        /* \"#utility.yul\":3712:3750   */\n      tag_191\n        /* \"#utility.yul\":3744:3749   */\n      dup3\n        /* \"#utility.yul\":3712:3750   */\n      tag_110\n      jump\t// in\n    tag_191:\n        /* \"#utility.yul\":3766:3836   */\n      tag_192\n        /* \"#utility.yul\":3829:3835   */\n      dup2\n        /* \"#utility.yul\":3824:3827   */\n      dup6\n        /* \"#utility.yul\":3766:3836   */\n      tag_111\n      jump\t// in\n    tag_192:\n        /* \"#utility.yul\":3759:3836   */\n      swap4\n      pop\n        /* \"#utility.yul\":3845:3910   */\n      tag_193\n        /* \"#utility.yul\":3903:3909   */\n      dup2\n        /* \"#utility.yul\":3898:3901   */\n      dup6\n        /* \"#utility.yul\":3891:3895   */\n      0x20\n        /* \"#utility.yul\":3884:3889   */\n      dup7\n        /* \"#utility.yul\":3880:3896   */\n      add\n        /* \"#utility.yul\":3845:3910   */\n      tag_112\n      jump\t// in\n    tag_193:\n        /* \"#utility.yul\":3935:3964   */\n      tag_194\n        /* \"#utility.yul\":3957:3963   */\n      dup2\n        /* \"#utility.yul\":3935:3964   */\n      tag_113\n      jump\t// in\n    tag_194:\n        /* \"#utility.yul\":3930:3933   */\n      dup5\n        /* \"#utility.yul\":3926:3965   */\n      add\n        /* \"#utility.yul\":3919:3965   */\n      swap2\n      pop\n        /* \"#utility.yul\":3688:3971   */\n      pop\n        /* \"#utility.yul\":3598:3971   */\n      swap3\n      swap2\n      pop\n      pop\n      jump\t// out\n        /* \"#utility.yul\":3977:4286   */\n    tag_13:\n        /* \"#utility.yul\":4088:4092   */\n      0x00\n        /* \"#utility.yul\":4126:4128   */\n      0x20\n        /* \"#utility.yul\":4115:4124   */\n      dup3\n        /* \"#utility.yul\":4111:4129   */\n      add\n        /* \"#utility.yul\":4103:4129   */\n      swap1\n      pop\n        /* \"#utility.yul\":4175:4184   */\n      dup2\n        /* \"#utility.yul\":4169:4173   */\n      dup2\n        /* \"#utility.yul\":4165:4185   */\n      sub\n        /* \"#utility.yul\":4161:4162   */\n      0x00\n        /* \"#utility.yul\":4150:4159   */\n      dup4\n        /* \"#utility.yul\":4146:4163   */\n      add\n        /* \"#utility.yul\":4139:4186   */\n      mstore\n        /* \"#utility.yul\":4203:4279   */\n      tag_196\n        /* \"#utility.yul\":4274:4278   */\n      dup2\n        /* \"#utility.yul\":4265:4271   */\n      dup5\n        /* \"#utility.yul\":4203:4279   */\n      tag_114\n      jump\t// in\n    tag_196:\n        /* \"#utility.yul\":4195:4279   */\n      swap1\n      pop\n        /* \"#utility.yul\":3977:4286   */\n      swap3\n      swap2\n      pop\n      pop\n      jump\t// out\n        /* \"#utility.yul\":4292:4410   */\n    tag_115:\n        /* \"#utility.yul\":4379:4403   */\n      tag_198\n        /* \"#utility.yul\":4397:4402   */\n      dup2\n        /* \"#utility.yul\":4379:4403   */\n      tag_103\n      jump\t// in\n    tag_198:\n        /* \"#utility.yul\":4374:4377   */\n      dup3\n        /* \"#utility.yul\":4367:4404   */\n      mstore\n        /* \"#utility.yul\":4292:4410   */\n      pop\n      pop\n      jump\t// out\n        /* \"#utility.yul\":4416:4534   */\n    tag_116:\n        /* \"#utility.yul\":4503:4527   */\n      tag_200\n        /* \"#utility.yul\":4521:4526   */\n      dup2\n        /* \"#utility.yul\":4503:4527   */\n      tag_100\n      jump\t// in\n    tag_200:\n        /* \"#utility.yul\":4498:4501   */\n      dup3\n        /* \"#utility.yul\":4491:4528   */\n      mstore\n        /* \"#utility.yul\":4416:4534   */\n      pop\n      pop\n      jump\t// out\n        /* \"#utility.yul\":4540:4982   */\n    tag_18:\n        /* \"#utility.yul\":4689:4693   */\n      0x00\n        /* \"#utility.yul\":4727:4729   */\n      0x60\n        /* \"#utility.yul\":4716:4725   */\n      dup3\n        /* \"#utility.yul\":4712:4730   */\n      add\n        /* \"#utility.yul\":4704:4730   */\n      swap1\n      pop\n        /* \"#utility.yul\":4740:4811   */\n      tag_202\n        /* \"#utility.yul\":4808:4809   */\n      0x00\n        /* \"#utility.yul\":4797:4806   */\n      dup4\n        /* \"#utility.yul\":4793:4810   */\n      add\n        /* \"#utility.yul\":4784:4790   */\n      dup7\n        /* \"#utility.yul\":4740:4811   */\n      tag_115\n      jump\t// in\n    tag_202:\n        /* \"#utility.yul\":4821:4893   */\n      tag_203\n        /* \"#utility.yul\":4889:4891   */\n      0x20\n        /* \"#utility.yul\":4878:4887   */\n      dup4\n        /* \"#utility.yul\":4874:4892   */\n      add\n        /* \"#utility.yul\":4865:4871   */\n      dup6\n        /* \"#utility.yul\":4821:4893   */\n      tag_116\n      jump\t// in\n    tag_203:\n        /* \"#utility.yul\":4903:4975   */\n      tag_204\n        /* \"#utility.yul\":4971:4973   */\n      0x40\n        /* \"#utility.yul\":4960:4969   */\n      dup4\n        /* \"#utility.yul\":4956:4974   */\n      add\n        /* \"#utility.yul\":4947:4953   */\n      dup5\n        /* \"#utility.yul\":4903:4975   */\n      tag_115\n      jump\t// in\n    tag_204:\n        /* \"#utility.yul\":4540:4982   */\n      swap5\n      swap4\n      pop\n      pop\n      pop\n      pop\n      jump\t// out\n        /* \"#utility.yul\":4988:5899   */\n    tag_22:\n        /* \"#utility.yul\":5083:5089   */\n      0x00\n        /* \"#utility.yul\":5091:5097   */\n      dup1\n        /* \"#utility.yul\":5099:5105   */\n      0x00\n        /* \"#utility.yul\":5107:5113   */\n      dup1\n        /* \"#utility.yul\":5115:5121   */\n      0x00\n        /* \"#utility.yul\":5164:5167   */\n      0xa0\n        /* \"#utility.yul\":5152:5161   */\n      dup7\n        /* \"#utility.yul\":5143:5150   */\n      dup9\n        /* \"#utility.yul\":5139:5162   */\n      sub\n        /* \"#utility.yul\":5135:5168   */\n      slt\n        /* \"#utility.yul\":5132:5252   */\n      iszero\n      tag_206\n      jumpi\n        /* \"#utility.yul\":5171:5250   */\n      tag_207\n      tag_97\n      jump\t// in\n    tag_207:\n        /* \"#utility.yul\":5132:5252   */\n    tag_206:\n        /* \"#utility.yul\":5291:5292   */\n      0x00\n        /* \"#utility.yul\":5316:5369   */\n      tag_208\n        /* \"#utility.yul\":5361:5368   */\n      dup9\n        /* \"#utility.yul\":5352:5358   */\n      dup3\n        /* \"#utility.yul\":5341:5350   */\n      dup10\n        /* \"#utility.yul\":5337:5359   */\n      add\n        /* \"#utility.yul\":5316:5369   */\n      tag_102\n      jump\t// in\n    tag_208:\n        /* \"#utility.yul\":5306:5369   */\n      swap6\n      pop\n        /* \"#utility.yul\":5262:5379   */\n      pop\n        /* \"#utility.yul\":5418:5420   */\n      0x20\n        /* \"#utility.yul\":5444:5497   */\n      tag_209\n        /* \"#utility.yul\":5489:5496   */\n      dup9\n        /* \"#utility.yul\":5480:5486   */\n      dup3\n        /* \"#utility.yul\":5469:5478   */\n      dup10\n        /* \"#utility.yul\":5465:5487   */\n      add\n        /* \"#utility.yul\":5444:5497   */\n      tag_105\n      jump\t// in\n    tag_209:\n        /* \"#utility.yul\":5434:5497   */\n      swap5\n      pop\n        /* \"#utility.yul\":5389:5507   */\n      pop\n        /* \"#utility.yul\":5546:5548   */\n      0x40\n        /* \"#utility.yul\":5572:5625   */\n      tag_210\n        /* \"#utility.yul\":5617:5624   */\n      dup9\n        /* \"#utility.yul\":5608:5614   */\n      dup3\n        /* \"#utility.yul\":5597:5606   */\n      dup10\n        /* \"#utility.yul\":5593:5615   */\n      add\n        /* \"#utility.yul\":5572:5625   */\n      tag_102\n      jump\t// in\n    tag_210:\n        /* \"#utility.yul\":5562:5625   */\n      swap4\n      pop\n        /* \"#utility.yul\":5517:5635   */\n      pop\n        /* \"#utility.yul\":5674:5676   */\n      0x60\n        /* \"#utility.yul\":5700:5753   */\n      tag_211\n        /* \"#utility.yul\":5745:5752   */\n      dup9\n        /* \"#utility.yul\":5736:5742   */\n      dup3\n        /* \"#utility.yul\":5725:5734   */\n      dup10\n        /* \"#utility.yul\":5721:5743   */\n      add\n        /* \"#utility.yul\":5700:5753   */\n      tag_105\n      jump\t// in\n    tag_211:\n        /* \"#utility.yul\":5690:5753   */\n      swap3\n      pop\n        /* \"#utility.yul\":5645:5763   */\n      pop\n        /* \"#utility.yul\":5802:5805   */\n      0x80\n        /* \"#utility.yul\":5829:5882   */\n      tag_212\n        /* \"#utility.yul\":5874:5881   */\n      dup9\n        /* \"#utility.yul\":5865:5871   */\n      dup3\n        /* \"#utility.yul\":5854:5863   */\n      dup10\n        /* \"#utility.yul\":5850:5872   */\n      add\n        /* \"#utility.yul\":5829:5882   */\n      tag_105\n      jump\t// in\n    tag_212:\n        /* \"#utility.yul\":5819:5882   */\n      swap2\n      pop\n        /* \"#utility.yul\":5773:5892   */\n      pop\n        /* \"#utility.yul\":4988:5899   */\n      swap3\n      swap6\n      pop\n      swap3\n      swap6\n      swap1\n      swap4\n      pop\n      jump\t// out\n        /* \"#utility.yul\":5905:6127   */\n    tag_25:\n        /* \"#utility.yul\":5998:6002   */\n      0x00\n        /* \"#utility.yul\":6036:6038   */\n      0x20\n        /* \"#utility.yul\":6025:6034   */\n      dup3\n        /* \"#utility.yul\":6021:6039   */\n      add\n        /* \"#utility.yul\":6013:6039   */\n      swap1\n      pop\n        /* \"#utility.yul\":6049:6120   */\n      tag_214\n        /* \"#utility.yul\":6117:6118   */\n      0x00\n        /* \"#utility.yul\":6106:6115   */\n      dup4\n        /* \"#utility.yul\":6102:6119   */\n      add\n        /* \"#utility.yul\":6093:6099   */\n      dup5\n        /* \"#utility.yul\":6049:6120   */\n      tag_116\n      jump\t// in\n    tag_214:\n        /* \"#utility.yul\":5905:6127   */\n      swap3\n      swap2\n      pop\n      pop\n      jump\t// out\n        /* \"#utility.yul\":6133:7388   */\n    tag_37:\n        /* \"#utility.yul\":6248:6254   */\n      0x00\n        /* \"#utility.yul\":6256:6262   */\n      dup1\n        /* \"#utility.yul\":6264:6270   */\n      0x00\n        /* \"#utility.yul\":6272:6278   */\n      dup1\n        /* \"#utility.yul\":6280:6286   */\n      0x00\n        /* \"#utility.yul\":6288:6294   */\n      dup1\n        /* \"#utility.yul\":6296:6302   */\n      0x00\n        /* \"#utility.yul\":6345:6348   */\n      0xc0\n        /* \"#utility.yul\":6333:6342   */\n      dup9\n        /* \"#utility.yul\":6324:6331   */\n      dup11\n        /* \"#utility.yul\":6320:6343   */\n      sub\n        /* \"#utility.yul\":6316:6349   */\n      slt\n        /* \"#utility.yul\":6313:6433   */\n      iszero\n      tag_216\n      jumpi\n        /* \"#utility.yul\":6352:6431   */\n      tag_217\n      tag_97\n      jump\t// in\n    tag_217:\n        /* \"#utility.yul\":6313:6433   */\n    tag_216:\n        /* \"#utility.yul\":6472:6473   */\n      0x00\n        /* \"#utility.yul\":6497:6550   */\n      tag_218\n        /* \"#utility.yul\":6542:6549   */\n      dup11\n        /* \"#utility.yul\":6533:6539   */\n      dup3\n        /* \"#utility.yul\":6522:6531   */\n      dup12\n        /* \"#utility.yul\":6518:6540   */\n      add\n        /* \"#utility.yul\":6497:6550   */\n      tag_102\n      jump\t// in\n    tag_218:\n        /* \"#utility.yul\":6487:6550   */\n      swap8\n      pop\n        /* \"#utility.yul\":6443:6560   */\n      pop\n        /* \"#utility.yul\":6599:6601   */\n      0x20\n        /* \"#utility.yul\":6625:6678   */\n      tag_219\n        /* \"#utility.yul\":6670:6677   */\n      dup11\n        /* \"#utility.yul\":6661:6667   */\n      dup3\n        /* \"#utility.yul\":6650:6659   */\n      dup12\n        /* \"#utility.yul\":6646:6668   */\n      add\n        /* \"#utility.yul\":6625:6678   */\n      tag_105\n      jump\t// in\n    tag_219:\n        /* \"#utility.yul\":6615:6678   */\n      swap7\n      pop\n        /* \"#utility.yul\":6570:6688   */\n      pop\n        /* \"#utility.yul\":6727:6729   */\n      0x40\n        /* \"#utility.yul\":6753:6806   */\n      tag_220\n        /* \"#utility.yul\":6798:6805   */\n      dup11\n        /* \"#utility.yul\":6789:6795   */\n      dup3\n        /* \"#utility.yul\":6778:6787   */\n      dup12\n        /* \"#utility.yul\":6774:6796   */\n      add\n        /* \"#utility.yul\":6753:6806   */\n      tag_102\n      jump\t// in\n    tag_220:\n        /* \"#utility.yul\":6743:6806   */\n      swap6\n      pop\n        /* \"#utility.yul\":6698:6816   */\n      pop\n        /* \"#utility.yul\":6855:6857   */\n      0x60\n        /* \"#utility.yul\":6881:6934   */\n      tag_221\n        /* \"#utility.yul\":6926:6933   */\n      dup11\n        /* \"#utility.yul\":6917:6923   */\n      dup3\n        /* \"#utility.yul\":6906:6915   */\n      dup12\n        /* \"#utility.yul\":6902:6924   */\n      add\n        /* \"#utility.yul\":6881:6934   */\n      tag_105\n      jump\t// in\n    tag_221:\n        /* \"#utility.yul\":6871:6934   */\n      swap5\n      pop\n        /* \"#utility.yul\":6826:6944   */\n      pop\n        /* \"#utility.yul\":6983:6986   */\n      0x80\n        /* \"#utility.yul\":7010:7063   */\n      tag_222\n        /* \"#utility.yul\":7055:7062   */\n      dup11\n        /* \"#utility.yul\":7046:7052   */\n      dup3\n        /* \"#utility.yul\":7035:7044   */\n      dup12\n        /* \"#utility.yul\":7031:7053   */\n      add\n        /* \"#utility.yul\":7010:7063   */\n      tag_105\n      jump\t// in\n    tag_222:\n        /* \"#utility.yul\":7000:7063   */\n      swap4\n      pop\n        /* \"#utility.yul\":6954:7073   */\n      pop\n        /* \"#utility.yul\":7140:7143   */\n      0xa0\n        /* \"#utility.yul\":7129:7138   */\n      dup9\n        /* \"#utility.yul\":7125:7144   */\n      add\n        /* \"#utility.yul\":7112:7145   */\n      calldataload\n        /* \"#utility.yul\":7172:7190   */\n      0xffffffffffffffff\n        /* \"#utility.yul\":7164:7170   */\n      dup2\n        /* \"#utility.yul\":7161:7191   */\n      gt\n        /* \"#utility.yul\":7158:7275   */\n      iszero\n      tag_223\n      jumpi\n        /* \"#utility.yul\":7194:7273   */\n      tag_224\n      tag_98\n      jump\t// in\n    tag_224:\n        /* \"#utility.yul\":7158:7275   */\n    tag_223:\n        /* \"#utility.yul\":7307:7371   */\n      tag_225\n        /* \"#utility.yul\":7363:7370   */\n      dup11\n        /* \"#utility.yul\":7354:7360   */\n      dup3\n        /* \"#utility.yul\":7343:7352   */\n      dup12\n        /* \"#utility.yul\":7339:7361   */\n      add\n        /* \"#utility.yul\":7307:7371   */\n      tag_109\n      jump\t// in\n    tag_225:\n        /* \"#utility.yul\":7289:7371   */\n      swap3\n      pop\n      swap3\n      pop\n        /* \"#utility.yul\":7083:7381   */\n      pop\n        /* \"#utility.yul\":6133:7388   */\n      swap3\n      swap6\n      swap9\n      swap2\n      swap5\n      swap8\n      pop\n      swap3\n      swap6\n      pop\n      jump\t// out\n        /* \"#utility.yul\":7394:7540   */\n    tag_117:\n        /* \"#utility.yul\":7491:7497   */\n      dup3\n        /* \"#utility.yul\":7486:7489   */\n      dup2\n        /* \"#utility.yul\":7481:7484   */\n      dup4\n        /* \"#utility.yul\":7468:7498   */\n      calldatacopy\n        /* \"#utility.yul\":7532:7533   */\n      0x00\n        /* \"#utility.yul\":7523:7529   */\n      dup4\n        /* \"#utility.yul\":7518:7521   */\n      dup4\n        /* \"#utility.yul\":7514:7530   */\n      add\n        /* \"#utility.yul\":7507:7534   */\n      mstore\n        /* \"#utility.yul\":7394:7540   */\n      pop\n      pop\n      pop\n      jump\t// out\n        /* \"#utility.yul\":7568:7882   */\n    tag_118:\n        /* \"#utility.yul\":7664:7667   */\n      0x00\n        /* \"#utility.yul\":7685:7755   */\n      tag_228\n        /* \"#utility.yul\":7748:7754   */\n      dup4\n        /* \"#utility.yul\":7743:7746   */\n      dup6\n        /* \"#utility.yul\":7685:7755   */\n      tag_111\n      jump\t// in\n    tag_228:\n        /* \"#utility.yul\":7678:7755   */\n      swap4\n      pop\n        /* \"#utility.yul\":7765:7821   */\n      tag_229\n        /* \"#utility.yul\":7814:7820   */\n      dup4\n        /* \"#utility.yul\":7809:7812   */\n      dup6\n        /* \"#utility.yul\":7802:7807   */\n      dup5\n        /* \"#utility.yul\":7765:7821   */\n      tag_117\n      jump\t// in\n    tag_229:\n        /* \"#utility.yul\":7846:7875   */\n      tag_230\n        /* \"#utility.yul\":7868:7874   */\n      dup4\n        /* \"#utility.yul\":7846:7875   */\n      tag_113\n      jump\t// in\n    tag_230:\n        /* \"#utility.yul\":7841:7844   */\n      dup5\n        /* \"#utility.yul\":7837:7876   */\n      add\n        /* \"#utility.yul\":7830:7876   */\n      swap1\n      pop\n        /* \"#utility.yul\":7568:7882   */\n      swap4\n      swap3\n      pop\n      pop\n      pop\n      jump\t// out\n        /* \"#utility.yul\":7888:8437   */\n    tag_42:\n        /* \"#utility.yul\":8065:8069   */\n      0x00\n        /* \"#utility.yul\":8103:8105   */\n      0x60\n        /* \"#utility.yul\":8092:8101   */\n      dup3\n        /* \"#utility.yul\":8088:8106   */\n      add\n        /* \"#utility.yul\":8080:8106   */\n      swap1\n      pop\n        /* \"#utility.yul\":8116:8187   */\n      tag_232\n        /* \"#utility.yul\":8184:8185   */\n      0x00\n        /* \"#utility.yul\":8173:8182   */\n      dup4\n        /* \"#utility.yul\":8169:8186   */\n      add\n        /* \"#utility.yul\":8160:8166   */\n      dup8\n        /* \"#utility.yul\":8116:8187   */\n      tag_116\n      jump\t// in\n    tag_232:\n        /* \"#utility.yul\":8197:8269   */\n      tag_233\n        /* \"#utility.yul\":8265:8267   */\n      0x20\n        /* \"#utility.yul\":8254:8263   */\n      dup4\n        /* \"#utility.yul\":8250:8268   */\n      add\n        /* \"#utility.yul\":8241:8247   */\n      dup7\n        /* \"#utility.yul\":8197:8269   */\n      tag_115\n      jump\t// in\n    tag_233:\n        /* \"#utility.yul\":8316:8325   */\n      dup2\n        /* \"#utility.yul\":8310:8314   */\n      dup2\n        /* \"#utility.yul\":8306:8326   */\n      sub\n        /* \"#utility.yul\":8301:8303   */\n      0x40\n        /* \"#utility.yul\":8290:8299   */\n      dup4\n        /* \"#utility.yul\":8286:8304   */\n      add\n        /* \"#utility.yul\":8279:8327   */\n      mstore\n        /* \"#utility.yul\":8344:8430   */\n      tag_234\n        /* \"#utility.yul\":8425:8429   */\n      dup2\n        /* \"#utility.yul\":8416:8422   */\n      dup5\n        /* \"#utility.yul\":8408:8414   */\n      dup7\n        /* \"#utility.yul\":8344:8430   */\n      tag_118\n      jump\t// in\n    tag_234:\n        /* \"#utility.yul\":8336:8430   */\n      swap1\n      pop\n        /* \"#utility.yul\":7888:8437   */\n      swap6\n      swap5\n      pop\n      pop\n      pop\n      pop\n      pop\n      jump\t// out\n        /* \"#utility.yul\":8443:8560   */\n    tag_119:\n        /* \"#utility.yul\":8552:8553   */\n      0x00\n        /* \"#utility.yul\":8549:8550   */\n      dup1\n        /* \"#utility.yul\":8542:8554   */\n      revert\n        /* \"#utility.yul\":8566:8746   */\n    tag_120:\n        /* \"#utility.yul\":8614:8691   */\n      0x4e487b7100000000000000000000000000000000000000000000000000000000\n        /* \"#utility.yul\":8611:8612   */\n      0x00\n        /* \"#utility.yul\":8604:8692   */\n      mstore\n        /* \"#utility.yul\":8711:8715   */\n      0x41\n        /* \"#utility.yul\":8708:8709   */\n      0x04\n        /* \"#utility.yul\":8701:8716   */\n      mstore\n        /* \"#utility.yul\":8735:8739   */\n      0x24\n        /* \"#utility.yul\":8732:8733   */\n      0x00\n        /* \"#utility.yul\":8725:8740   */\n      revert\n        /* \"#utility.yul\":8752:9033   */\n    tag_121:\n        /* \"#utility.yul\":8835:8862   */\n      tag_238\n        /* \"#utility.yul\":8857:8861   */\n      dup3\n        /* \"#utility.yul\":8835:8862   */\n      tag_113\n      jump\t// in\n    tag_238:\n        /* \"#utility.yul\":8827:8833   */\n      dup2\n        /* \"#utility.yul\":8823:8863   */\n      add\n        /* \"#utility.yul\":8965:8971   */\n      dup2\n        /* \"#utility.yul\":8953:8963   */\n      dup2\n        /* \"#utility.yul\":8950:8972   */\n      lt\n        /* \"#utility.yul\":8929:8947   */\n      0xffffffffffffffff\n        /* \"#utility.yul\":8917:8927   */\n      dup3\n        /* \"#utility.yul\":8914:8948   */\n      gt\n        /* \"#utility.yul\":8911:8973   */\n      or\n        /* \"#utility.yul\":8908:8996   */\n      iszero\n      tag_239\n      jumpi\n        /* \"#utility.yul\":8976:8994   */\n      tag_240\n      tag_120\n      jump\t// in\n    tag_240:\n        /* \"#utility.yul\":8908:8996   */\n    tag_239:\n        /* \"#utility.yul\":9016:9026   */\n      dup1\n        /* \"#utility.yul\":9012:9014   */\n      0x40\n        /* \"#utility.yul\":9005:9027   */\n      mstore\n        /* \"#utility.yul\":8795:9033   */\n      pop\n        /* \"#utility.yul\":8752:9033   */\n      pop\n      pop\n      jump\t// out\n        /* \"#utility.yul\":9039:9168   */\n    tag_122:\n        /* \"#utility.yul\":9073:9079   */\n      0x00\n        /* \"#utility.yul\":9100:9120   */\n      tag_242\n      tag_96\n      jump\t// in\n    tag_242:\n        /* \"#utility.yul\":9090:9120   */\n      swap1\n      pop\n        /* \"#utility.yul\":9129:9162   */\n      tag_243\n        /* \"#utility.yul\":9157:9161   */\n      dup3\n        /* \"#utility.yul\":9149:9155   */\n      dup3\n        /* \"#utility.yul\":9129:9162   */\n      tag_121\n      jump\t// in\n    tag_243:\n        /* \"#utility.yul\":9039:9168   */\n      swap2\n      swap1\n      pop\n      jump\t// out\n        /* \"#utility.yul\":9174:9481   */\n    tag_123:\n        /* \"#utility.yul\":9235:9239   */\n      0x00\n        /* \"#utility.yul\":9325:9343   */\n      0xffffffffffffffff\n        /* \"#utility.yul\":9317:9323   */\n      dup3\n        /* \"#utility.yul\":9314:9344   */\n      gt\n        /* \"#utility.yul\":9311:9367   */\n      iszero\n      tag_245\n      jumpi\n        /* \"#utility.yul\":9347:9365   */\n      tag_246\n      tag_120\n      jump\t// in\n    tag_246:\n        /* \"#utility.yul\":9311:9367   */\n    tag_245:\n        /* \"#utility.yul\":9385:9414   */\n      tag_247\n        /* \"#utility.yul\":9407:9413   */\n      dup3\n        /* \"#utility.yul\":9385:9414   */\n      tag_113\n      jump\t// in\n    tag_247:\n        /* \"#utility.yul\":9377:9414   */\n      swap1\n      pop\n        /* \"#utility.yul\":9469:9473   */\n      0x20\n        /* \"#utility.yul\":9463:9467   */\n      dup2\n        /* \"#utility.yul\":9459:9474   */\n      add\n        /* \"#utility.yul\":9451:9474   */\n      swap1\n      pop\n        /* \"#utility.yul\":9174:9481   */\n      swap2\n      swap1\n      pop\n      jump\t// out\n        /* \"#utility.yul\":9487:9919   */\n    tag_124:\n        /* \"#utility.yul\":9575:9580   */\n      0x00\n        /* \"#utility.yul\":9600:9665   */\n      tag_249\n        /* \"#utility.yul\":9616:9664   */\n      tag_250\n        /* \"#utility.yul\":9657:9663   */\n      dup5\n        /* \"#utility.yul\":9616:9664   */\n      tag_123\n      jump\t// in\n    tag_250:\n        /* \"#utility.yul\":9600:9665   */\n      tag_122\n      jump\t// in\n    tag_249:\n        /* \"#utility.yul\":9591:9665   */\n      swap1\n      pop\n        /* \"#utility.yul\":9688:9694   */\n      dup3\n        /* \"#utility.yul\":9681:9686   */\n      dup2\n        /* \"#utility.yul\":9674:9695   */\n      mstore\n        /* \"#utility.yul\":9726:9730   */\n      0x20\n        /* \"#utility.yul\":9719:9724   */\n      dup2\n        /* \"#utility.yul\":9715:9731   */\n      add\n        /* \"#utility.yul\":9764:9767   */\n      dup5\n        /* \"#utility.yul\":9755:9761   */\n      dup5\n        /* \"#utility.yul\":9750:9753   */\n      dup5\n        /* \"#utility.yul\":9746:9762   */\n      add\n        /* \"#utility.yul\":9743:9768   */\n      gt\n        /* \"#utility.yul\":9740:9852   */\n      iszero\n      tag_251\n      jumpi\n        /* \"#utility.yul\":9771:9850   */\n      tag_252\n      tag_119\n      jump\t// in\n    tag_252:\n        /* \"#utility.yul\":9740:9852   */\n    tag_251:\n        /* \"#utility.yul\":9861:9913   */\n      tag_253\n        /* \"#utility.yul\":9906:9912   */\n      dup5\n        /* \"#utility.yul\":9901:9904   */\n      dup3\n        /* \"#utility.yul\":9896:9899   */\n      dup6\n        /* \"#utility.yul\":9861:9913   */\n      tag_112\n      jump\t// in\n    tag_253:\n        /* \"#utility.yul\":9581:9919   */\n      pop\n        /* \"#utility.yul\":9487:9919   */\n      swap4\n      swap3\n      pop\n      pop\n      pop\n      jump\t// out\n        /* \"#utility.yul\":9938:10291   */\n    tag_125:\n        /* \"#utility.yul\":10004:10009   */\n      0x00\n        /* \"#utility.yul\":10053:10056   */\n      dup3\n        /* \"#utility.yul\":10046:10050   */\n      0x1f\n        /* \"#utility.yul\":10038:10044   */\n      dup4\n        /* \"#utility.yul\":10034:10051   */\n      add\n        /* \"#utility.yul\":10030:10057   */\n      slt\n        /* \"#utility.yul\":10020:10142   */\n      tag_255\n      jumpi\n        /* \"#utility.yul\":10061:10140   */\n      tag_256\n      tag_106\n      jump\t// in\n    tag_256:\n        /* \"#utility.yul\":10020:10142   */\n    tag_255:\n        /* \"#utility.yul\":10171:10177   */\n      dup2\n        /* \"#utility.yul\":10165:10178   */\n      mload\n        /* \"#utility.yul\":10196:10285   */\n      tag_257\n        /* \"#utility.yul\":10281:10284   */\n      dup5\n        /* \"#utility.yul\":10273:10279   */\n      dup3\n        /* \"#utility.yul\":10266:10270   */\n      0x20\n        /* \"#utility.yul\":10258:10264   */\n      dup7\n        /* \"#utility.yul\":10254:10271   */\n      add\n        /* \"#utility.yul\":10196:10285   */\n      tag_124\n      jump\t// in\n    tag_257:\n        /* \"#utility.yul\":10187:10285   */\n      swap2\n      pop\n        /* \"#utility.yul\":10010:10291   */\n      pop\n        /* \"#utility.yul\":9938:10291   */\n      swap3\n      swap2\n      pop\n      pop\n      jump\t// out\n        /* \"#utility.yul\":10297:10819   */\n    tag_46:\n        /* \"#utility.yul\":10376:10382   */\n      0x00\n        /* \"#utility.yul\":10425:10427   */\n      0x20\n        /* \"#utility.yul\":10413:10422   */\n      dup3\n        /* \"#utility.yul\":10404:10411   */\n      dup5\n        /* \"#utility.yul\":10400:10423   */\n      sub\n        /* \"#utility.yul\":10396:10428   */\n      slt\n        /* \"#utility.yul\":10393:10512   */\n      iszero\n      tag_259\n      jumpi\n        /* \"#utility.yul\":10431:10510   */\n      tag_260\n      tag_97\n      jump\t// in\n    tag_260:\n        /* \"#utility.yul\":10393:10512   */\n    tag_259:\n        /* \"#utility.yul\":10572:10573   */\n      0x00\n        /* \"#utility.yul\":10561:10570   */\n      dup3\n        /* \"#utility.yul\":10557:10574   */\n      add\n        /* \"#utility.yul\":10551:10575   */\n      mload\n        /* \"#utility.yul\":10602:10620   */\n      0xffffffffffffffff\n        /* \"#utility.yul\":10594:10600   */\n      dup2\n        /* \"#utility.yul\":10591:10621   */\n      gt\n        /* \"#utility.yul\":10588:10705   */\n      iszero\n      tag_261\n      jumpi\n        /* \"#utility.yul\":10624:10703   */\n      tag_262\n      tag_98\n      jump\t// in\n    tag_262:\n        /* \"#utility.yul\":10588:10705   */\n    tag_261:\n        /* \"#utility.yul\":10729:10802   */\n      tag_263\n        /* \"#utility.yul\":10794:10801   */\n      dup5\n        /* \"#utility.yul\":10785:10791   */\n      dup3\n        /* \"#utility.yul\":10774:10783   */\n      dup6\n        /* \"#utility.yul\":10770:10792   */\n      add\n        /* \"#utility.yul\":10729:10802   */\n      tag_125\n      jump\t// in\n    tag_263:\n        /* \"#utility.yul\":10719:10802   */\n      swap2\n      pop\n        /* \"#utility.yul\":10522:10812   */\n      pop\n        /* \"#utility.yul\":10297:10819   */\n      swap3\n      swap2\n      pop\n      pop\n      jump\t// out\n        /* \"#utility.yul\":10825:10968   */\n    tag_126:\n        /* \"#utility.yul\":10882:10887   */\n      0x00\n        /* \"#utility.yul\":10913:10919   */\n      dup2\n        /* \"#utility.yul\":10907:10920   */\n      mload\n        /* \"#utility.yul\":10898:10920   */\n      swap1\n      pop\n        /* \"#utility.yul\":10929:10962   */\n      tag_265\n        /* \"#utility.yul\":10956:10961   */\n      dup2\n        /* \"#utility.yul\":10929:10962   */\n      tag_104\n      jump\t// in\n    tag_265:\n        /* \"#utility.yul\":10825:10968   */\n      swap3\n      swap2\n      pop\n      pop\n      jump\t// out\n        /* \"#utility.yul\":10974:11117   */\n    tag_127:\n        /* \"#utility.yul\":11031:11036   */\n      0x00\n        /* \"#utility.yul\":11062:11068   */\n      dup2\n        /* \"#utility.yul\":11056:11069   */\n      mload\n        /* \"#utility.yul\":11047:11069   */\n      swap1\n      pop\n        /* \"#utility.yul\":11078:11111   */\n      tag_267\n        /* \"#utility.yul\":11105:11110   */\n      dup2\n        /* \"#utility.yul\":11078:11111   */\n      tag_101\n      jump\t// in\n    tag_267:\n        /* \"#utility.yul\":10974:11117   */\n      swap3\n      swap2\n      pop\n      pop\n      jump\t// out\n        /* \"#utility.yul\":11123:11786   */\n    tag_51:\n        /* \"#utility.yul\":11211:11217   */\n      0x00\n        /* \"#utility.yul\":11219:11225   */\n      dup1\n        /* \"#utility.yul\":11227:11233   */\n      0x00\n        /* \"#utility.yul\":11276:11278   */\n      0x60\n        /* \"#utility.yul\":11264:11273   */\n      dup5\n        /* \"#utility.yul\":11255:11262   */\n      dup7\n        /* \"#utility.yul\":11251:11274   */\n      sub\n        /* \"#utility.yul\":11247:11279   */\n      slt\n        /* \"#utility.yul\":11244:11363   */\n      iszero\n      tag_269\n      jumpi\n        /* \"#utility.yul\":11282:11361   */\n      tag_270\n      tag_97\n      jump\t// in\n    tag_270:\n        /* \"#utility.yul\":11244:11363   */\n    tag_269:\n        /* \"#utility.yul\":11402:11403   */\n      0x00\n        /* \"#utility.yul\":11427:11491   */\n      tag_271\n        /* \"#utility.yul\":11483:11490   */\n      dup7\n        /* \"#utility.yul\":11474:11480   */\n      dup3\n        /* \"#utility.yul\":11463:11472   */\n      dup8\n        /* \"#utility.yul\":11459:11481   */\n      add\n        /* \"#utility.yul\":11427:11491   */\n      tag_126\n      jump\t// in\n    tag_271:\n        /* \"#utility.yul\":11417:11491   */\n      swap4\n      pop\n        /* \"#utility.yul\":11373:11501   */\n      pop\n        /* \"#utility.yul\":11540:11542   */\n      0x20\n        /* \"#utility.yul\":11566:11630   */\n      tag_272\n        /* \"#utility.yul\":11622:11629   */\n      dup7\n        /* \"#utility.yul\":11613:11619   */\n      dup3\n        /* \"#utility.yul\":11602:11611   */\n      dup8\n        /* \"#utility.yul\":11598:11620   */\n      add\n        /* \"#utility.yul\":11566:11630   */\n      tag_127\n      jump\t// in\n    tag_272:\n        /* \"#utility.yul\":11556:11630   */\n      swap3\n      pop\n        /* \"#utility.yul\":11511:11640   */\n      pop\n        /* \"#utility.yul\":11679:11681   */\n      0x40\n        /* \"#utility.yul\":11705:11769   */\n      tag_273\n        /* \"#utility.yul\":11761:11768   */\n      dup7\n        /* \"#utility.yul\":11752:11758   */\n      dup3\n        /* \"#utility.yul\":11741:11750   */\n      dup8\n        /* \"#utility.yul\":11737:11759   */\n      add\n        /* \"#utility.yul\":11705:11769   */\n      tag_126\n      jump\t// in\n    tag_273:\n        /* \"#utility.yul\":11695:11769   */\n      swap2\n      pop\n        /* \"#utility.yul\":11650:11779   */\n      pop\n        /* \"#utility.yul\":11123:11786   */\n      swap3\n      pop\n      swap3\n      pop\n      swap3\n      jump\t// out\n        /* \"#utility.yul\":11792:12143   */\n    tag_61:\n        /* \"#utility.yul\":11862:11868   */\n      0x00\n        /* \"#utility.yul\":11911:11913   */\n      0x20\n        /* \"#utility.yul\":11899:11908   */\n      dup3\n        /* \"#utility.yul\":11890:11897   */\n      dup5\n        /* \"#utility.yul\":11886:11909   */\n      sub\n        /* \"#utility.yul\":11882:11914   */\n      slt\n        /* \"#utility.yul\":11879:11998   */\n      iszero\n      tag_275\n      jumpi\n        /* \"#utility.yul\":11917:11996   */\n      tag_276\n      tag_97\n      jump\t// in\n    tag_276:\n        /* \"#utility.yul\":11879:11998   */\n    tag_275:\n        /* \"#utility.yul\":12037:12038   */\n      0x00\n        /* \"#utility.yul\":12062:12126   */\n      tag_277\n        /* \"#utility.yul\":12118:12125   */\n      dup5\n        /* \"#utility.yul\":12109:12115   */\n      dup3\n        /* \"#utility.yul\":12098:12107   */\n      dup6\n        /* \"#utility.yul\":12094:12116   */\n      add\n        /* \"#utility.yul\":12062:12126   */\n      tag_127\n      jump\t// in\n    tag_277:\n        /* \"#utility.yul\":12052:12126   */\n      swap2\n      pop\n        /* \"#utility.yul\":12008:12136   */\n      pop\n        /* \"#utility.yul\":11792:12143   */\n      swap3\n      swap2\n      pop\n      pop\n      jump\t// out\n        /* \"#utility.yul\":12149:12296   */\n    tag_128:\n        /* \"#utility.yul\":12250:12261   */\n      0x00\n        /* \"#utility.yul\":12287:12290   */\n      dup2\n        /* \"#utility.yul\":12272:12290   */\n      swap1\n      pop\n        /* \"#utility.yul\":12149:12296   */\n      swap3\n      swap2\n      pop\n      pop\n      jump\t// out\n        /* \"#utility.yul\":12324:12651   */\n    tag_129:\n        /* \"#utility.yul\":12438:12441   */\n      0x00\n        /* \"#utility.yul\":12459:12547   */\n      tag_280\n        /* \"#utility.yul\":12540:12546   */\n      dup4\n        /* \"#utility.yul\":12535:12538   */\n      dup6\n        /* \"#utility.yul\":12459:12547   */\n      tag_128\n      jump\t// in\n    tag_280:\n        /* \"#utility.yul\":12452:12547   */\n      swap4\n      pop\n        /* \"#utility.yul\":12557:12613   */\n      tag_281\n        /* \"#utility.yul\":12606:12612   */\n      dup4\n        /* \"#utility.yul\":12601:12604   */\n      dup6\n        /* \"#utility.yul\":12594:12599   */\n      dup5\n        /* \"#utility.yul\":12557:12613   */\n      tag_117\n      jump\t// in\n    tag_281:\n        /* \"#utility.yul\":12638:12644   */\n      dup3\n        /* \"#utility.yul\":12633:12636   */\n      dup5\n        /* \"#utility.yul\":12629:12645   */\n      add\n        /* \"#utility.yul\":12622:12645   */\n      swap1\n      pop\n        /* \"#utility.yul\":12324:12651   */\n      swap4\n      swap3\n      pop\n      pop\n      pop\n      jump\t// out\n        /* \"#utility.yul\":12657:12948   */\n    tag_70:\n        /* \"#utility.yul\":12797:12800   */\n      0x00\n        /* \"#utility.yul\":12819:12922   */\n      tag_283\n        /* \"#utility.yul\":12918:12921   */\n      dup3\n        /* \"#utility.yul\":12909:12915   */\n      dup5\n        /* \"#utility.yul\":12901:12907   */\n      dup7\n        /* \"#utility.yul\":12819:12922   */\n      tag_129\n      jump\t// in\n    tag_283:\n        /* \"#utility.yul\":12812:12922   */\n      swap2\n      pop\n        /* \"#utility.yul\":12939:12942   */\n      dup2\n        /* \"#utility.yul\":12932:12942   */\n      swap1\n      pop\n        /* \"#utility.yul\":12657:12948   */\n      swap4\n      swap3\n      pop\n      pop\n      pop\n      jump\t// out\n        /* \"#utility.yul\":12954:13729   */\n    tag_76:\n        /* \"#utility.yul\":13187:13191   */\n      0x00\n        /* \"#utility.yul\":13225:13228   */\n      0xc0\n        /* \"#utility.yul\":13214:13223   */\n      dup3\n        /* \"#utility.yul\":13210:13229   */\n      add\n        /* \"#utility.yul\":13202:13229   */\n      swap1\n      pop\n        /* \"#utility.yul\":13239:13310   */\n      tag_285\n        /* \"#utility.yul\":13307:13308   */\n      0x00\n        /* \"#utility.yul\":13296:13305   */\n      dup4\n        /* \"#utility.yul\":13292:13309   */\n      add\n        /* \"#utility.yul\":13283:13289   */\n      dup10\n        /* \"#utility.yul\":13239:13310   */\n      tag_116\n      jump\t// in\n    tag_285:\n        /* \"#utility.yul\":13320:13392   */\n      tag_286\n        /* \"#utility.yul\":13388:13390   */\n      0x20\n        /* \"#utility.yul\":13377:13386   */\n      dup4\n        /* \"#utility.yul\":13373:13391   */\n      add\n        /* \"#utility.yul\":13364:13370   */\n      dup9\n        /* \"#utility.yul\":13320:13392   */\n      tag_116\n      jump\t// in\n    tag_286:\n        /* \"#utility.yul\":13402:13474   */\n      tag_287\n        /* \"#utility.yul\":13470:13472   */\n      0x40\n        /* \"#utility.yul\":13459:13468   */\n      dup4\n        /* \"#utility.yul\":13455:13473   */\n      add\n        /* \"#utility.yul\":13446:13452   */\n      dup8\n        /* \"#utility.yul\":13402:13474   */\n      tag_115\n      jump\t// in\n    tag_287:\n        /* \"#utility.yul\":13484:13556   */\n      tag_288\n        /* \"#utility.yul\":13552:13554   */\n      0x60\n        /* \"#utility.yul\":13541:13550   */\n      dup4\n        /* \"#utility.yul\":13537:13555   */\n      add\n        /* \"#utility.yul\":13528:13534   */\n      dup7\n        /* \"#utility.yul\":13484:13556   */\n      tag_116\n      jump\t// in\n    tag_288:\n        /* \"#utility.yul\":13566:13639   */\n      tag_289\n        /* \"#utility.yul\":13634:13637   */\n      0x80\n        /* \"#utility.yul\":13623:13632   */\n      dup4\n        /* \"#utility.yul\":13619:13638   */\n      add\n        /* \"#utility.yul\":13610:13616   */\n      dup6\n        /* \"#utility.yul\":13566:13639   */\n      tag_115\n      jump\t// in\n    tag_289:\n        /* \"#utility.yul\":13649:13722   */\n      tag_290\n        /* \"#utility.yul\":13717:13720   */\n      0xa0\n        /* \"#utility.yul\":13706:13715   */\n      dup4\n        /* \"#utility.yul\":13702:13721   */\n      add\n        /* \"#utility.yul\":13693:13699   */\n      dup5\n        /* \"#utility.yul\":13649:13722   */\n      tag_115\n      jump\t// in\n    tag_290:\n        /* \"#utility.yul\":12954:13729   */\n      swap8\n      swap7\n      pop\n      pop\n      pop\n      pop\n      pop\n      pop\n      pop\n      jump\t// out\n        /* \"#utility.yul\":13735:14288   */\n    tag_79:\n        /* \"#utility.yul\":13912:13916   */\n      0x00\n        /* \"#utility.yul\":13950:13953   */\n      0x80\n        /* \"#utility.yul\":13939:13948   */\n      dup3\n        /* \"#utility.yul\":13935:13954   */\n      add\n        /* \"#utility.yul\":13927:13954   */\n      swap1\n      pop\n        /* \"#utility.yul\":13964:14035   */\n      tag_292\n        /* \"#utility.yul\":14032:14033   */\n      0x00\n        /* \"#utility.yul\":14021:14030   */\n      dup4\n        /* \"#utility.yul\":14017:14034   */\n      add\n        /* \"#utility.yul\":14008:14014   */\n      dup8\n        /* \"#utility.yul\":13964:14035   */\n      tag_115\n      jump\t// in\n    tag_292:\n        /* \"#utility.yul\":14045:14117   */\n      tag_293\n        /* \"#utility.yul\":14113:14115   */\n      0x20\n        /* \"#utility.yul\":14102:14111   */\n      dup4\n        /* \"#utility.yul\":14098:14116   */\n      add\n        /* \"#utility.yul\":14089:14095   */\n      dup7\n        /* \"#utility.yul\":14045:14117   */\n      tag_115\n      jump\t// in\n    tag_293:\n        /* \"#utility.yul\":14127:14199   */\n      tag_294\n        /* \"#utility.yul\":14195:14197   */\n      0x40\n        /* \"#utility.yul\":14184:14193   */\n      dup4\n        /* \"#utility.yul\":14180:14198   */\n      add\n        /* \"#utility.yul\":14171:14177   */\n      dup6\n        /* \"#utility.yul\":14127:14199   */\n      tag_116\n      jump\t// in\n    tag_294:\n        /* \"#utility.yul\":14209:14281   */\n      tag_295\n        /* \"#utility.yul\":14277:14279   */\n      0x60\n        /* \"#utility.yul\":14266:14275   */\n      dup4\n        /* \"#utility.yul\":14262:14280   */\n      add\n        /* \"#utility.yul\":14253:14259   */\n      dup5\n        /* \"#utility.yul\":14209:14281   */\n      tag_115\n      jump\t// in\n    tag_295:\n        /* \"#utility.yul\":13735:14288   */\n      swap6\n      swap5\n      pop\n      pop\n      pop\n      pop\n      pop\n      jump\t// out\n        /* \"#utility.yul\":14294:14442   */\n    tag_130:\n        /* \"#utility.yul\":14396:14407   */\n      0x00\n        /* \"#utility.yul\":14433:14436   */\n      dup2\n        /* \"#utility.yul\":14418:14436   */\n      swap1\n      pop\n        /* \"#utility.yul\":14294:14442   */\n      swap3\n      swap2\n      pop\n      pop\n      jump\t// out\n        /* \"#utility.yul\":14448:14662   */\n    tag_131:\n        /* \"#utility.yul\":14588:14654   */\n      0x3d60ad80600a3d3981f3363d3d373d3d3d363d73000000000000000000000000\n        /* \"#utility.yul\":14584:14585   */\n      0x00\n        /* \"#utility.yul\":14576:14582   */\n      dup3\n        /* \"#utility.yul\":14572:14586   */\n      add\n        /* \"#utility.yul\":14565:14655   */\n      mstore\n        /* \"#utility.yul\":14448:14662   */\n      pop\n      jump\t// out\n        /* \"#utility.yul\":14668:15070   */\n    tag_132:\n        /* \"#utility.yul\":14828:14831   */\n      0x00\n        /* \"#utility.yul\":14849:14934   */\n      tag_299\n        /* \"#utility.yul\":14931:14933   */\n      0x14\n        /* \"#utility.yul\":14926:14929   */\n      dup4\n        /* \"#utility.yul\":14849:14934   */\n      tag_130\n      jump\t// in\n    tag_299:\n        /* \"#utility.yul\":14842:14934   */\n      swap2\n      pop\n        /* \"#utility.yul\":14943:15036   */\n      tag_300\n        /* \"#utility.yul\":15032:15035   */\n      dup3\n        /* \"#utility.yul\":14943:15036   */\n      tag_131\n      jump\t// in\n    tag_300:\n        /* \"#utility.yul\":15061:15063   */\n      0x14\n        /* \"#utility.yul\":15056:15059   */\n      dup3\n        /* \"#utility.yul\":15052:15064   */\n      add\n        /* \"#utility.yul\":15045:15064   */\n      swap1\n      pop\n        /* \"#utility.yul\":14668:15070   */\n      swap2\n      swap1\n      pop\n      jump\t// out\n        /* \"#utility.yul\":15076:15170   */\n    tag_133:\n        /* \"#utility.yul\":15109:15117   */\n      0x00\n        /* \"#utility.yul\":15157:15162   */\n      dup2\n        /* \"#utility.yul\":15153:15155   */\n      0x60\n        /* \"#utility.yul\":15149:15163   */\n      shl\n        /* \"#utility.yul\":15128:15163   */\n      swap1\n      pop\n        /* \"#utility.yul\":15076:15170   */\n      swap2\n      swap1\n      pop\n      jump\t// out\n        /* \"#utility.yul\":15176:15270   */\n    tag_134:\n        /* \"#utility.yul\":15215:15222   */\n      0x00\n        /* \"#utility.yul\":15244:15264   */\n      tag_303\n        /* \"#utility.yul\":15258:15263   */\n      dup3\n        /* \"#utility.yul\":15244:15264   */\n      tag_133\n      jump\t// in\n    tag_303:\n        /* \"#utility.yul\":15233:15264   */\n      swap1\n      pop\n        /* \"#utility.yul\":15176:15270   */\n      swap2\n      swap1\n      pop\n      jump\t// out\n        /* \"#utility.yul\":15276:15376   */\n    tag_135:\n        /* \"#utility.yul\":15315:15322   */\n      0x00\n        /* \"#utility.yul\":15344:15370   */\n      tag_305\n        /* \"#utility.yul\":15364:15369   */\n      dup3\n        /* \"#utility.yul\":15344:15370   */\n      tag_134\n      jump\t// in\n    tag_305:\n        /* \"#utility.yul\":15333:15370   */\n      swap1\n      pop\n        /* \"#utility.yul\":15276:15376   */\n      swap2\n      swap1\n      pop\n      jump\t// out\n        /* \"#utility.yul\":15382:15539   */\n    tag_136:\n        /* \"#utility.yul\":15487:15532   */\n      tag_307\n        /* \"#utility.yul\":15507:15531   */\n      tag_308\n        /* \"#utility.yul\":15525:15530   */\n      dup3\n        /* \"#utility.yul\":15507:15531   */\n      tag_100\n      jump\t// in\n    tag_308:\n        /* \"#utility.yul\":15487:15532   */\n      tag_135\n      jump\t// in\n    tag_307:\n        /* \"#utility.yul\":15482:15485   */\n      dup3\n        /* \"#utility.yul\":15475:15533   */\n      mstore\n        /* \"#utility.yul\":15382:15539   */\n      pop\n      pop\n      jump\t// out\n        /* \"#utility.yul\":15545:15759   */\n    tag_137:\n        /* \"#utility.yul\":15685:15751   */\n      0x5af43d82803e903d91602b57fd5bf30000000000000000000000000000000000\n        /* \"#utility.yul\":15681:15682   */\n      0x00\n        /* \"#utility.yul\":15673:15679   */\n      dup3\n        /* \"#utility.yul\":15669:15683   */\n      add\n        /* \"#utility.yul\":15662:15752   */\n      mstore\n        /* \"#utility.yul\":15545:15759   */\n      pop\n      jump\t// out\n        /* \"#utility.yul\":15765:16167   */\n    tag_138:\n        /* \"#utility.yul\":15925:15928   */\n      0x00\n        /* \"#utility.yul\":15946:16031   */\n      tag_311\n        /* \"#utility.yul\":16028:16030   */\n      0x0f\n        /* \"#utility.yul\":16023:16026   */\n      dup4\n        /* \"#utility.yul\":15946:16031   */\n      tag_130\n      jump\t// in\n    tag_311:\n        /* \"#utility.yul\":15939:16031   */\n      swap2\n      pop\n        /* \"#utility.yul\":16040:16133   */\n      tag_312\n        /* \"#utility.yul\":16129:16132   */\n      dup3\n        /* \"#utility.yul\":16040:16133   */\n      tag_137\n      jump\t// in\n    tag_312:\n        /* \"#utility.yul\":16158:16160   */\n      0x0f\n        /* \"#utility.yul\":16153:16156   */\n      dup3\n        /* \"#utility.yul\":16149:16161   */\n      add\n        /* \"#utility.yul\":16142:16161   */\n      swap1\n      pop\n        /* \"#utility.yul\":15765:16167   */\n      swap2\n      swap1\n      pop\n      jump\t// out\n        /* \"#utility.yul\":16173:16559   */\n    tag_139:\n        /* \"#utility.yul\":16277:16280   */\n      0x00\n        /* \"#utility.yul\":16305:16343   */\n      tag_314\n        /* \"#utility.yul\":16337:16342   */\n      dup3\n        /* \"#utility.yul\":16305:16343   */\n      tag_110\n      jump\t// in\n    tag_314:\n        /* \"#utility.yul\":16359:16447   */\n      tag_315\n        /* \"#utility.yul\":16440:16446   */\n      dup2\n        /* \"#utility.yul\":16435:16438   */\n      dup6\n        /* \"#utility.yul\":16359:16447   */\n      tag_128\n      jump\t// in\n    tag_315:\n        /* \"#utility.yul\":16352:16447   */\n      swap4\n      pop\n        /* \"#utility.yul\":16456:16521   */\n      tag_316\n        /* \"#utility.yul\":16514:16520   */\n      dup2\n        /* \"#utility.yul\":16509:16512   */\n      dup6\n        /* \"#utility.yul\":16502:16506   */\n      0x20\n        /* \"#utility.yul\":16495:16500   */\n      dup7\n        /* \"#utility.yul\":16491:16507   */\n      add\n        /* \"#utility.yul\":16456:16521   */\n      tag_112\n      jump\t// in\n    tag_316:\n        /* \"#utility.yul\":16546:16552   */\n      dup1\n        /* \"#utility.yul\":16541:16544   */\n      dup5\n        /* \"#utility.yul\":16537:16553   */\n      add\n        /* \"#utility.yul\":16530:16553   */\n      swap2\n      pop\n        /* \"#utility.yul\":16281:16559   */\n      pop\n        /* \"#utility.yul\":16173:16559   */\n      swap3\n      swap2\n      pop\n      pop\n      jump\t// out\n        /* \"#utility.yul\":16565:17509   */\n    tag_81:\n        /* \"#utility.yul\":16925:16928   */\n      0x00\n        /* \"#utility.yul\":16947:17095   */\n      tag_318\n        /* \"#utility.yul\":17091:17094   */\n      dup3\n        /* \"#utility.yul\":16947:17095   */\n      tag_132\n      jump\t// in\n    tag_318:\n        /* \"#utility.yul\":16940:17095   */\n      swap2\n      pop\n        /* \"#utility.yul\":17105:17180   */\n      tag_319\n        /* \"#utility.yul\":17176:17179   */\n      dup3\n        /* \"#utility.yul\":17167:17173   */\n      dup6\n        /* \"#utility.yul\":17105:17180   */\n      tag_136\n      jump\t// in\n    tag_319:\n        /* \"#utility.yul\":17205:17207   */\n      0x14\n        /* \"#utility.yul\":17200:17203   */\n      dup3\n        /* \"#utility.yul\":17196:17208   */\n      add\n        /* \"#utility.yul\":17189:17208   */\n      swap2\n      pop\n        /* \"#utility.yul\":17225:17373   */\n      tag_320\n        /* \"#utility.yul\":17369:17372   */\n      dup3\n        /* \"#utility.yul\":17225:17373   */\n      tag_138\n      jump\t// in\n    tag_320:\n        /* \"#utility.yul\":17218:17373   */\n      swap2\n      pop\n        /* \"#utility.yul\":17390:17483   */\n      tag_321\n        /* \"#utility.yul\":17479:17482   */\n      dup3\n        /* \"#utility.yul\":17470:17476   */\n      dup5\n        /* \"#utility.yul\":17390:17483   */\n      tag_139\n      jump\t// in\n    tag_321:\n        /* \"#utility.yul\":17383:17483   */\n      swap2\n      pop\n        /* \"#utility.yul\":17500:17503   */\n      dup2\n        /* \"#utility.yul\":17493:17503   */\n      swap1\n      pop\n        /* \"#utility.yul\":16565:17509   */\n      swap4\n      swap3\n      pop\n      pop\n      pop\n      jump\t// out\n        /* \"#utility.yul\":17515:17684   */\n    tag_140:\n        /* \"#utility.yul\":17599:17610   */\n      0x00\n        /* \"#utility.yul\":17633:17639   */\n      dup3\n        /* \"#utility.yul\":17628:17631   */\n      dup3\n        /* \"#utility.yul\":17621:17640   */\n      mstore\n        /* \"#utility.yul\":17673:17677   */\n      0x20\n        /* \"#utility.yul\":17668:17671   */\n      dup3\n        /* \"#utility.yul\":17664:17678   */\n      add\n        /* \"#utility.yul\":17649:17678   */\n      swap1\n      pop\n        /* \"#utility.yul\":17515:17684   */\n      swap3\n      swap2\n      pop\n      pop\n      jump\t// out\n        /* \"#utility.yul\":17690:17869   */\n    tag_141:\n        /* \"#utility.yul\":17830:17861   */\n      0x437265617465323a20696e73756666696369656e742062616c616e6365000000\n        /* \"#utility.yul\":17826:17827   */\n      0x00\n        /* \"#utility.yul\":17818:17824   */\n      dup3\n        /* \"#utility.yul\":17814:17828   */\n      add\n        /* \"#utility.yul\":17807:17862   */\n      mstore\n        /* \"#utility.yul\":17690:17869   */\n      pop\n      jump\t// out\n        /* \"#utility.yul\":17875:18241   */\n    tag_142:\n        /* \"#utility.yul\":18017:18020   */\n      0x00\n        /* \"#utility.yul\":18038:18105   */\n      tag_325\n        /* \"#utility.yul\":18102:18104   */\n      0x1d\n        /* \"#utility.yul\":18097:18100   */\n      dup4\n        /* \"#utility.yul\":18038:18105   */\n      tag_140\n      jump\t// in\n    tag_325:\n        /* \"#utility.yul\":18031:18105   */\n      swap2\n      pop\n        /* \"#utility.yul\":18114:18207   */\n      tag_326\n        /* \"#utility.yul\":18203:18206   */\n      dup3\n        /* \"#utility.yul\":18114:18207   */\n      tag_141\n      jump\t// in\n    tag_326:\n        /* \"#utility.yul\":18232:18234   */\n      0x20\n        /* \"#utility.yul\":18227:18230   */\n      dup3\n        /* \"#utility.yul\":18223:18235   */\n      add\n        /* \"#utility.yul\":18216:18235   */\n      swap1\n      pop\n        /* \"#utility.yul\":17875:18241   */\n      swap2\n      swap1\n      pop\n      jump\t// out\n        /* \"#utility.yul\":18247:18666   */\n    tag_88:\n        /* \"#utility.yul\":18413:18417   */\n      0x00\n        /* \"#utility.yul\":18451:18453   */\n      0x20\n        /* \"#utility.yul\":18440:18449   */\n      dup3\n        /* \"#utility.yul\":18436:18454   */\n      add\n        /* \"#utility.yul\":18428:18454   */\n      swap1\n      pop\n        /* \"#utility.yul\":18500:18509   */\n      dup2\n        /* \"#utility.yul\":18494:18498   */\n      dup2\n        /* \"#utility.yul\":18490:18510   */\n      sub\n        /* \"#utility.yul\":18486:18487   */\n      0x00\n        /* \"#utility.yul\":18475:18484   */\n      dup4\n        /* \"#utility.yul\":18471:18488   */\n      add\n        /* \"#utility.yul\":18464:18511   */\n      mstore\n        /* \"#utility.yul\":18528:18659   */\n      tag_328\n        /* \"#utility.yul\":18654:18658   */\n      dup2\n        /* \"#utility.yul\":18528:18659   */\n      tag_142\n      jump\t// in\n    tag_328:\n        /* \"#utility.yul\":18520:18659   */\n      swap1\n      pop\n        /* \"#utility.yul\":18247:18666   */\n      swap2\n      swap1\n      pop\n      jump\t// out\n        /* \"#utility.yul\":18672:18854   */\n    tag_143:\n        /* \"#utility.yul\":18812:18846   */\n      0x437265617465323a2062797465636f6465206c656e677468206973207a65726f\n        /* \"#utility.yul\":18808:18809   */\n      0x00\n        /* \"#utility.yul\":18800:18806   */\n      dup3\n        /* \"#utility.yul\":18796:18810   */\n      add\n        /* \"#utility.yul\":18789:18847   */\n      mstore\n        /* \"#utility.yul\":18672:18854   */\n      pop\n      jump\t// out\n        /* \"#utility.yul\":18860:19226   */\n    tag_144:\n        /* \"#utility.yul\":19002:19005   */\n      0x00\n        /* \"#utility.yul\":19023:19090   */\n      tag_331\n        /* \"#utility.yul\":19087:19089   */\n      0x20\n        /* \"#utility.yul\":19082:19085   */\n      dup4\n        /* \"#utility.yul\":19023:19090   */\n      tag_140\n      jump\t// in\n    tag_331:\n        /* \"#utility.yul\":19016:19090   */\n      swap2\n      pop\n        /* \"#utility.yul\":19099:19192   */\n      tag_332\n        /* \"#utility.yul\":19188:19191   */\n      dup3\n        /* \"#utility.yul\":19099:19192   */\n      tag_143\n      jump\t// in\n    tag_332:\n        /* \"#utility.yul\":19217:19219   */\n      0x20\n        /* \"#utility.yul\":19212:19215   */\n      dup3\n        /* \"#utility.yul\":19208:19220   */\n      add\n        /* \"#utility.yul\":19201:19220   */\n      swap1\n      pop\n        /* \"#utility.yul\":18860:19226   */\n      swap2\n      swap1\n      pop\n      jump\t// out\n        /* \"#utility.yul\":19232:19651   */\n    tag_91:\n        /* \"#utility.yul\":19398:19402   */\n      0x00\n        /* \"#utility.yul\":19436:19438   */\n      0x20\n        /* \"#utility.yul\":19425:19434   */\n      dup3\n        /* \"#utility.yul\":19421:19439   */\n      add\n        /* \"#utility.yul\":19413:19439   */\n      swap1\n      pop\n        /* \"#utility.yul\":19485:19494   */\n      dup2\n        /* \"#utility.yul\":19479:19483   */\n      dup2\n        /* \"#utility.yul\":19475:19495   */\n      sub\n        /* \"#utility.yul\":19471:19472   */\n      0x00\n        /* \"#utility.yul\":19460:19469   */\n      dup4\n        /* \"#utility.yul\":19456:19473   */\n      add\n        /* \"#utility.yul\":19449:19496   */\n      mstore\n        /* \"#utility.yul\":19513:19644   */\n      tag_334\n        /* \"#utility.yul\":19639:19643   */\n      dup2\n        /* \"#utility.yul\":19513:19644   */\n      tag_144\n      jump\t// in\n    tag_334:\n        /* \"#utility.yul\":19505:19644   */\n      swap1\n      pop\n        /* \"#utility.yul\":19232:19651   */\n      swap2\n      swap1\n      pop\n      jump\t// out\n        /* \"#utility.yul\":19657:19832   */\n    tag_145:\n        /* \"#utility.yul\":19797:19824   */\n      0x437265617465323a204661696c6564206f6e206465706c6f7900000000000000\n        /* \"#utility.yul\":19793:19794   */\n      0x00\n        /* \"#utility.yul\":19785:19791   */\n      dup3\n        /* \"#utility.yul\":19781:19795   */\n      add\n        /* \"#utility.yul\":19774:19825   */\n      mstore\n        /* \"#utility.yul\":19657:19832   */\n      pop\n      jump\t// out\n        /* \"#utility.yul\":19838:20204   */\n    tag_146:\n        /* \"#utility.yul\":19980:19983   */\n      0x00\n        /* \"#utility.yul\":20001:20068   */\n      tag_337\n        /* \"#utility.yul\":20065:20067   */\n      0x19\n        /* \"#utility.yul\":20060:20063   */\n      dup4\n        /* \"#utility.yul\":20001:20068   */\n      tag_140\n      jump\t// in\n    tag_337:\n        /* \"#utility.yul\":19994:20068   */\n      swap2\n      pop\n        /* \"#utility.yul\":20077:20170   */\n      tag_338\n        /* \"#utility.yul\":20166:20169   */\n      dup3\n        /* \"#utility.yul\":20077:20170   */\n      tag_145\n      jump\t// in\n    tag_338:\n        /* \"#utility.yul\":20195:20197   */\n      0x20\n        /* \"#utility.yul\":20190:20193   */\n      dup3\n        /* \"#utility.yul\":20186:20198   */\n      add\n        /* \"#utility.yul\":20179:20198   */\n      swap1\n      pop\n        /* \"#utility.yul\":19838:20204   */\n      swap2\n      swap1\n      pop\n      jump\t// out\n        /* \"#utility.yul\":20210:20629   */\n    tag_94:\n        /* \"#utility.yul\":20376:20380   */\n      0x00\n        /* \"#utility.yul\":20414:20416   */\n      0x20\n        /* \"#utility.yul\":20403:20412   */\n      dup3\n        /* \"#utility.yul\":20399:20417   */\n      add\n        /* \"#utility.yul\":20391:20417   */\n      swap1\n      pop\n        /* \"#utility.yul\":20463:20472   */\n      dup2\n        /* \"#utility.yul\":20457:20461   */\n      dup2\n        /* \"#utility.yul\":20453:20473   */\n      sub\n        /* \"#utility.yul\":20449:20450   */\n      0x00\n        /* \"#utility.yul\":20438:20447   */\n      dup4\n        /* \"#utility.yul\":20434:20451   */\n      add\n        /* \"#utility.yul\":20427:20474   */\n      mstore\n        /* \"#utility.yul\":20491:20622   */\n      tag_340\n        /* \"#utility.yul\":20617:20621   */\n      dup2\n        /* \"#utility.yul\":20491:20622   */\n      tag_146\n      jump\t// in\n    tag_340:\n        /* \"#utility.yul\":20483:20622   */\n      swap1\n      pop\n        /* \"#utility.yul\":20210:20629   */\n      swap2\n      swap1\n      pop\n      jump\t// out\n\n    auxdata: 0xa26469706673582212209dd0c38d6d7d950f3c31de907270cff55db959fa21c4c75c46a565c7d35cd8b464736f6c63430008150033\n}\n",
				"bytecode": {
					"linkReferences": {},
					"object": "608060405234801561001057600080fd5b50611147806100206000396000f3fe6080604052600436106100555760003560e01c80632f5c13b51461005a5780635b6ff0961461008a5780635e9bc536146100b75780638fec5661146100f45780639dfc31491461011f578063da7323b31461014a575b600080fd5b610074600480360381019061006f9190610823565b610187565b6040516100819190610927565b60405180910390f35b34801561009657600080fd5b5061009f61023a565b6040516100ae93929190610967565b60405180910390f35b3480156100c357600080fd5b506100de60048036038101906100d9919061099e565b6102e0565b6040516100eb9190610a19565b60405180910390f35b34801561010057600080fd5b50610109610312565b6040516101169190610a19565b60405180910390f35b34801561012b57600080fd5b50610134610336565b6040516101419190610a19565b60405180910390f35b34801561015657600080fd5b50610171600480360381019061016c9190610a34565b6103cf565b60405161017e9190610a19565b60405180910390f35b606060008054906101000a900473ffffffffffffffffffffffffffffffffffffffff1673ffffffffffffffffffffffffffffffffffffffff16639e5d4c49868686866040518563ffffffff1660e01b81526004016101e89493929190610b1f565b6000604051808303816000875af1158015610207573d6000803e3d6000fd5b505050506040513d6000823e3d601f19601f820116820180604052508101906102309190610c80565b9050949350505050565b60008060008060009054906101000a900473ffffffffffffffffffffffffffffffffffffffff1673ffffffffffffffffffffffffffffffffffffffff1663fc0c546a6040518163ffffffff1660e01b8152600401606060405180830381865afa1580156102ab573d6000803e3d6000fd5b505050506040513d601f19601f820116820180604052508101906102cf9190610cf3565b809350819450829550505050909192565b6000806102f08787878787610578565b8051906020012090506103068360001b826105cc565b91505095945050505050565b60008054906101000a900473ffffffffffffffffffffffffffffffffffffffff1681565b60008060009054906101000a900473ffffffffffffffffffffffffffffffffffffffff1673ffffffffffffffffffffffffffffffffffffffff16638da5cb5b6040518163ffffffff1660e01b81526004016020604051808303816000875af11580156103a6573d6000803e3d6000fd5b505050506040513d601f19601f820116820180604052508101906103ca9190610d46565b905090565b6000806103df8989898989610578565b905060006103f78660001b83805190602001206105cc565b905060008173ffffffffffffffffffffffffffffffffffffffff163b1461042257809250505061056d565b61043160008760001b846105e1565b9050600085859050146104e65760008173ffffffffffffffffffffffffffffffffffffffff168686604051610467929190610da3565b6000604051808303816000865af19150503d80600081146104a4576040519150601f19603f3d011682016040523d82523d6000602084013e6104a9565b606091505b50509050806104e4576040517f19b991a800000000000000000000000000000000000000000000000000000000815260040160405180910390fd5b505b7f07fba7bba1191da7ee1155dcfa0030701c9c9a9cc34a93b991fc6fd0c9268d8f818b8b8b8b8b60405161051f96959493929190610dbc565b60405180910390a1806000806101000a81548173ffffffffffffffffffffffffffffffffffffffff021916908373ffffffffffffffffffffffffffffffffffffffff16021790555080925050505b979650505050505050565b606085828686866040516020016105929493929190610e1d565b6040516020818303038152906040526040516020016105b2929190610f7e565b604051602081830303815290604052905095945050505050565b60006105d98383306106eb565b905092915050565b600083471015610626576040517f08c379a000000000000000000000000000000000000000000000000000000000815260040161061d90611019565b60405180910390fd5b600082510361066a576040517f08c379a000000000000000000000000000000000000000000000000000000000815260040161066190611085565b60405180910390fd5b8282516020840186f59050600073ffffffffffffffffffffffffffffffffffffffff168173ffffffffffffffffffffffffffffffffffffffff16036106e4576040517f08c379a00000000000000000000000000000000000000000000000000000000081526004016106db906110f1565b60405180910390fd5b9392505050565b6000604051836040820152846020820152828152600b810160ff815360558120925050509392505050565b6000604051905090565b600080fd5b600080fd5b600073ffffffffffffffffffffffffffffffffffffffff82169050919050565b60006107558261072a565b9050919050565b6107658161074a565b811461077057600080fd5b50565b6000813590506107828161075c565b92915050565b6000819050919050565b61079b81610788565b81146107a657600080fd5b50565b6000813590506107b881610792565b92915050565b600080fd5b600080fd5b600080fd5b60008083601f8401126107e3576107e26107be565b5b8235905067ffffffffffffffff811115610800576107ff6107c3565b5b60208301915083600182028301111561081c5761081b6107c8565b5b9250929050565b6000806000806060858703121561083d5761083c610720565b5b600061084b87828801610773565b945050602061085c878288016107a9565b935050604085013567ffffffffffffffff81111561087d5761087c610725565b5b610889878288016107cd565b925092505092959194509250565b600081519050919050565b600082825260208201905092915050565b60005b838110156108d15780820151818401526020810190506108b6565b60008484015250505050565b6000601f19601f8301169050919050565b60006108f982610897565b61090381856108a2565b93506109138185602086016108b3565b61091c816108dd565b840191505092915050565b6000602082019050818103600083015261094181846108ee565b905092915050565b61095281610788565b82525050565b6109618161074a565b82525050565b600060608201905061097c6000830186610949565b6109896020830185610958565b6109966040830184610949565b949350505050565b600080600080600060a086880312156109ba576109b9610720565b5b60006109c888828901610773565b95505060206109d9888289016107a9565b94505060406109ea88828901610773565b93505060606109fb888289016107a9565b9250506080610a0c888289016107a9565b9150509295509295909350565b6000602082019050610a2e6000830184610958565b92915050565b600080600080600080600060c0888a031215610a5357610a52610720565b5b6000610a618a828b01610773565b9750506020610a728a828b016107a9565b9650506040610a838a828b01610773565b9550506060610a948a828b016107a9565b9450506080610aa58a828b016107a9565b93505060a088013567ffffffffffffffff811115610ac657610ac5610725565b5b610ad28a828b016107cd565b925092505092959891949750929550565b82818337600083830152505050565b6000610afe83856108a2565b9350610b0b838584610ae3565b610b14836108dd565b840190509392505050565b6000606082019050610b346000830187610958565b610b416020830186610949565b8181036040830152610b54818486610af2565b905095945050505050565b600080fd5b7f4e487b7100000000000000000000000000000000000000000000000000000000600052604160045260246000fd5b610b9c826108dd565b810181811067ffffffffffffffff82111715610bbb57610bba610b64565b5b80604052505050565b6000610bce610716565b9050610bda8282610b93565b919050565b600067ffffffffffffffff821115610bfa57610bf9610b64565b5b610c03826108dd565b9050602081019050919050565b6000610c23610c1e84610bdf565b610bc4565b905082815260208101848484011115610c3f57610c3e610b5f565b5b610c4a8482856108b3565b509392505050565b600082601f830112610c6757610c666107be565b5b8151610c77848260208601610c10565b91505092915050565b600060208284031215610c9657610c95610720565b5b600082015167ffffffffffffffff811115610cb457610cb3610725565b5b610cc084828501610c52565b91505092915050565b600081519050610cd881610792565b92915050565b600081519050610ced8161075c565b92915050565b600080600060608486031215610d0c57610d0b610720565b5b6000610d1a86828701610cc9565b9350506020610d2b86828701610cde565b9250506040610d3c86828701610cc9565b9150509250925092565b600060208284031215610d5c57610d5b610720565b5b6000610d6a84828501610cde565b91505092915050565b600081905092915050565b6000610d8a8385610d73565b9350610d97838584610ae3565b82840190509392505050565b6000610db0828486610d7e565b91508190509392505050565b600060c082019050610dd16000830189610958565b610dde6020830188610958565b610deb6040830187610949565b610df86060830186610958565b610e056080830185610949565b610e1260a0830184610949565b979650505050505050565b6000608082019050610e326000830187610949565b610e3f6020830186610949565b610e4c6040830185610958565b610e596060830184610949565b95945050505050565b600081905092915050565b7f3d60ad80600a3d3981f3363d3d373d3d3d363d73000000000000000000000000600082015250565b6000610ea3601483610e62565b9150610eae82610e6d565b601482019050919050565b60008160601b9050919050565b6000610ed182610eb9565b9050919050565b6000610ee382610ec6565b9050919050565b610efb610ef68261074a565b610ed8565b82525050565b7f5af43d82803e903d91602b57fd5bf30000000000000000000000000000000000600082015250565b6000610f37600f83610e62565b9150610f4282610f01565b600f82019050919050565b6000610f5882610897565b610f628185610d73565b9350610f728185602086016108b3565b80840191505092915050565b6000610f8982610e96565b9150610f958285610eea565b601482019150610fa482610f2a565b9150610fb08284610f4d565b91508190509392505050565b600082825260208201905092915050565b7f437265617465323a20696e73756666696369656e742062616c616e6365000000600082015250565b6000611003601d83610fbc565b915061100e82610fcd565b602082019050919050565b6000602082019050818103600083015261103281610ff6565b9050919050565b7f437265617465323a2062797465636f6465206c656e677468206973207a65726f600082015250565b600061106f602083610fbc565b915061107a82611039565b602082019050919050565b6000602082019050818103600083015261109e81611062565b9050919050565b7f437265617465323a204661696c6564206f6e206465706c6f7900000000000000600082015250565b60006110db601983610fbc565b91506110e6826110a5565b602082019050919050565b6000602082019050818103600083015261110a816110ce565b905091905056fea26469706673582212209dd0c38d6d7d950f3c31de907270cff55db959fa21c4c75c46a565c7d35cd8b464736f6c63430008150033",
					"opcodes": "PUSH1 0x80 PUSH1 0x40 MSTORE CALLVALUE DUP1 ISZERO PUSH2 0x10 JUMPI PUSH1 0x0 DUP1 REVERT JUMPDEST POP PUSH2 0x1147 DUP1 PUSH2 0x20 PUSH1 0x0 CODECOPY PUSH1 0x0 RETURN INVALID PUSH1 0x80 PUSH1 0x40 MSTORE PUSH1 0x4 CALLDATASIZE LT PUSH2 0x55 JUMPI PUSH1 0x0 CALLDATALOAD PUSH1 0xE0 SHR DUP1 PUSH4 0x2F5C13B5 EQ PUSH2 0x5A JUMPI DUP1 PUSH4 0x5B6FF096 EQ PUSH2 0x8A JUMPI DUP1 PUSH4 0x5E9BC536 EQ PUSH2 0xB7 JUMPI DUP1 PUSH4 0x8FEC5661 EQ PUSH2 0xF4 JUMPI DUP1 PUSH4 0x9DFC3149 EQ PUSH2 0x11F JUMPI DUP1 PUSH4 0xDA7323B3 EQ PUSH2 0x14A JUMPI JUMPDEST PUSH1 0x0 DUP1 REVERT JUMPDEST PUSH2 0x74 PUSH1 0x4 DUP1 CALLDATASIZE SUB DUP2 ADD SWAP1 PUSH2 0x6F SWAP2 SWAP1 PUSH2 0x823 JUMP JUMPDEST PUSH2 0x187 JUMP JUMPDEST PUSH1 0x40 MLOAD PUSH2 0x81 SWAP2 SWAP1 PUSH2 0x927 JUMP JUMPDEST PUSH1 0x40 MLOAD DUP1 SWAP2 SUB SWAP1 RETURN JUMPDEST CALLVALUE DUP1 ISZERO PUSH2 0x96 JUMPI PUSH1 0x0 DUP1 REVERT JUMPDEST POP PUSH2 0x9F PUSH2 0x23A JUMP JUMPDEST PUSH1 0x40 MLOAD PUSH2 0xAE SWAP4 SWAP3 SWAP2 SWAP1 PUSH2 0x967 JUMP JUMPDEST PUSH1 0x40 MLOAD DUP1 SWAP2 SUB SWAP1 RETURN JUMPDEST CALLVALUE DUP1 ISZERO PUSH2 0xC3 JUMPI PUSH1 0x0 DUP1 REVERT JUMPDEST POP PUSH2 0xDE PUSH1 0x4 DUP1 CALLDATASIZE SUB DUP2 ADD SWAP1 PUSH2 0xD9 SWAP2 SWAP1 PUSH2 0x99E JUMP JUMPDEST PUSH2 0x2E0 JUMP JUMPDEST PUSH1 0x40 MLOAD PUSH2 0xEB SWAP2 SWAP1 PUSH2 0xA19 JUMP JUMPDEST PUSH1 0x40 MLOAD DUP1 SWAP2 SUB SWAP1 RETURN JUMPDEST CALLVALUE DUP1 ISZERO PUSH2 0x100 JUMPI PUSH1 0x0 DUP1 REVERT JUMPDEST POP PUSH2 0x109 PUSH2 0x312 JUMP JUMPDEST PUSH1 0x40 MLOAD PUSH2 0x116 SWAP2 SWAP1 PUSH2 0xA19 JUMP JUMPDEST PUSH1 0x40 MLOAD DUP1 SWAP2 SUB SWAP1 RETURN JUMPDEST CALLVALUE DUP1 ISZERO PUSH2 0x12B JUMPI PUSH1 0x0 DUP1 REVERT JUMPDEST POP PUSH2 0x134 PUSH2 0x336 JUMP JUMPDEST PUSH1 0x40 MLOAD PUSH2 0x141 SWAP2 SWAP1 PUSH2 0xA19 JUMP JUMPDEST PUSH1 0x40 MLOAD DUP1 SWAP2 SUB SWAP1 RETURN JUMPDEST CALLVALUE DUP1 ISZERO PUSH2 0x156 JUMPI PUSH1 0x0 DUP1 REVERT JUMPDEST POP PUSH2 0x171 PUSH1 0x4 DUP1 CALLDATASIZE SUB DUP2 ADD SWAP1 PUSH2 0x16C SWAP2 SWAP1 PUSH2 0xA34 JUMP JUMPDEST PUSH2 0x3CF JUMP JUMPDEST PUSH1 0x40 MLOAD PUSH2 0x17E SWAP2 SWAP1 PUSH2 0xA19 JUMP JUMPDEST PUSH1 0x40 MLOAD DUP1 SWAP2 SUB SWAP1 RETURN JUMPDEST PUSH1 0x60 PUSH1 0x0 DUP1 SLOAD SWAP1 PUSH2 0x100 EXP SWAP1 DIV PUSH20 0xFFFFFFFFFFFFFFFFFFFFFFFFFFFFFFFFFFFFFFFF AND PUSH20 0xFFFFFFFFFFFFFFFFFFFFFFFFFFFFFFFFFFFFFFFF AND PUSH4 0x9E5D4C49 DUP7 DUP7 DUP7 DUP7 PUSH1 0x40 MLOAD DUP6 PUSH4 0xFFFFFFFF AND PUSH1 0xE0 SHL DUP2 MSTORE PUSH1 0x4 ADD PUSH2 0x1E8 SWAP5 SWAP4 SWAP3 SWAP2 SWAP1 PUSH2 0xB1F JUMP JUMPDEST PUSH1 0x0 PUSH1 0x40 MLOAD DUP1 DUP4 SUB DUP2 PUSH1 0x0 DUP8 GAS CALL ISZERO DUP1 ISZERO PUSH2 0x207 JUMPI RETURNDATASIZE PUSH1 0x0 DUP1 RETURNDATACOPY RETURNDATASIZE PUSH1 0x0 REVERT JUMPDEST POP POP POP POP PUSH1 0x40 MLOAD RETURNDATASIZE PUSH1 0x0 DUP3 RETURNDATACOPY RETURNDATASIZE PUSH1 0x1F NOT PUSH1 0x1F DUP3 ADD AND DUP3 ADD DUP1 PUSH1 0x40 MSTORE POP DUP2 ADD SWAP1 PUSH2 0x230 SWAP2 SWAP1 PUSH2 0xC80 JUMP JUMPDEST SWAP1 POP SWAP5 SWAP4 POP POP POP POP JUMP JUMPDEST PUSH1 0x0 DUP1 PUSH1 0x0 DUP1 PUSH1 0x0 SWAP1 SLOAD SWAP1 PUSH2 0x100 EXP SWAP1 DIV PUSH20 0xFFFFFFFFFFFFFFFFFFFFFFFFFFFFFFFFFFFFFFFF AND PUSH20 0xFFFFFFFFFFFFFFFFFFFFFFFFFFFFFFFFFFFFFFFF AND PUSH4 0xFC0C546A PUSH1 0x40 MLOAD DUP2 PUSH4 0xFFFFFFFF AND PUSH1 0xE0 SHL DUP2 MSTORE PUSH1 0x4 ADD PUSH1 0x60 PUSH1 0x40 MLOAD DUP1 DUP4 SUB DUP2 DUP7 GAS STATICCALL ISZERO DUP1 ISZERO PUSH2 0x2AB JUMPI RETURNDATASIZE PUSH1 0x0 DUP1 RETURNDATACOPY RETURNDATASIZE PUSH1 0x0 REVERT JUMPDEST POP POP POP POP PUSH1 0x40 MLOAD RETURNDATASIZE PUSH1 0x1F NOT PUSH1 0x1F DUP3 ADD AND DUP3 ADD DUP1 PUSH1 0x40 MSTORE POP DUP2 ADD SWAP1 PUSH2 0x2CF SWAP2 SWAP1 PUSH2 0xCF3 JUMP JUMPDEST DUP1 SWAP4 POP DUP2 SWAP5 POP DUP3 SWAP6 POP POP POP POP SWAP1 SWAP2 SWAP3 JUMP JUMPDEST PUSH1 0x0 DUP1 PUSH2 0x2F0 DUP8 DUP8 DUP8 DUP8 DUP8 PUSH2 0x578 JUMP JUMPDEST DUP1 MLOAD SWAP1 PUSH1 0x20 ADD KECCAK256 SWAP1 POP PUSH2 0x306 DUP4 PUSH1 0x0 SHL DUP3 PUSH2 0x5CC JUMP JUMPDEST SWAP2 POP POP SWAP6 SWAP5 POP POP POP POP POP JUMP JUMPDEST PUSH1 0x0 DUP1 SLOAD SWAP1 PUSH2 0x100 EXP SWAP1 DIV PUSH20 0xFFFFFFFFFFFFFFFFFFFFFFFFFFFFFFFFFFFFFFFF AND DUP2 JUMP JUMPDEST PUSH1 0x0 DUP1 PUSH1 0x0 SWAP1 SLOAD SWAP1 PUSH2 0x100 EXP SWAP1 DIV PUSH20 0xFFFFFFFFFFFFFFFFFFFFFFFFFFFFFFFFFFFFFFFF AND PUSH20 0xFFFFFFFFFFFFFFFFFFFFFFFFFFFFFFFFFFFFFFFF AND PUSH4 0x8DA5CB5B PUSH1 0x40 MLOAD DUP2 PUSH4 0xFFFFFFFF AND PUSH1 0xE0 SHL DUP2 MSTORE PUSH1 0x4 ADD PUSH1 0x20 PUSH1 0x40 MLOAD DUP1 DUP4 SUB DUP2 PUSH1 0x0 DUP8 GAS CALL ISZERO DUP1 ISZERO PUSH2 0x3A6 JUMPI RETURNDATASIZE PUSH1 0x0 DUP1 RETURNDATACOPY RETURNDATASIZE PUSH1 0x0 REVERT JUMPDEST POP POP POP POP PUSH1 0x40 MLOAD RETURNDATASIZE PUSH1 0x1F NOT PUSH1 0x1F DUP3 ADD AND DUP3 ADD DUP1 PUSH1 0x40 MSTORE POP DUP2 ADD SWAP1 PUSH2 0x3CA SWAP2 SWAP1 PUSH2 0xD46 JUMP JUMPDEST SWAP1 POP SWAP1 JUMP JUMPDEST PUSH1 0x0 DUP1 PUSH2 0x3DF DUP10 DUP10 DUP10 DUP10 DUP10 PUSH2 0x578 JUMP JUMPDEST SWAP1 POP PUSH1 0x0 PUSH2 0x3F7 DUP7 PUSH1 0x0 SHL DUP4 DUP1 MLOAD SWAP1 PUSH1 0x20 ADD KECCAK256 PUSH2 0x5CC JUMP JUMPDEST SWAP1 POP PUSH1 0x0 DUP2 PUSH20 0xFFFFFFFFFFFFFFFFFFFFFFFFFFFFFFFFFFFFFFFF AND EXTCODESIZE EQ PUSH2 0x422 JUMPI DUP1 SWAP3 POP POP POP PUSH2 0x56D JUMP JUMPDEST PUSH2 0x431 PUSH1 0x0 DUP8 PUSH1 0x0 SHL DUP5 PUSH2 0x5E1 JUMP JUMPDEST SWAP1 POP PUSH1 0x0 DUP6 DUP6 SWAP1 POP EQ PUSH2 0x4E6 JUMPI PUSH1 0x0 DUP2 PUSH20 0xFFFFFFFFFFFFFFFFFFFFFFFFFFFFFFFFFFFFFFFF AND DUP7 DUP7 PUSH1 0x40 MLOAD PUSH2 0x467 SWAP3 SWAP2 SWAP1 PUSH2 0xDA3 JUMP JUMPDEST PUSH1 0x0 PUSH1 0x40 MLOAD DUP1 DUP4 SUB DUP2 PUSH1 0x0 DUP7 GAS CALL SWAP2 POP POP RETURNDATASIZE DUP1 PUSH1 0x0 DUP2 EQ PUSH2 0x4A4 JUMPI PUSH1 0x40 MLOAD SWAP2 POP PUSH1 0x1F NOT PUSH1 0x3F RETURNDATASIZE ADD AND DUP3 ADD PUSH1 0x40 MSTORE RETURNDATASIZE DUP3 MSTORE RETURNDATASIZE PUSH1 0x0 PUSH1 0x20 DUP5 ADD RETURNDATACOPY PUSH2 0x4A9 JUMP JUMPDEST PUSH1 0x60 SWAP2 POP JUMPDEST POP POP SWAP1 POP DUP1 PUSH2 0x4E4 JUMPI PUSH1 0x40 MLOAD PUSH32 0x19B991A800000000000000000000000000000000000000000000000000000000 DUP2 MSTORE PUSH1 0x4 ADD PUSH1 0x40 MLOAD DUP1 SWAP2 SUB SWAP1 REVERT JUMPDEST POP JUMPDEST PUSH32 0x7FBA7BBA1191DA7EE1155DCFA0030701C9C9A9CC34A93B991FC6FD0C9268D8F DUP2 DUP12 DUP12 DUP12 DUP12 DUP12 PUSH1 0x40 MLOAD PUSH2 0x51F SWAP7 SWAP6 SWAP5 SWAP4 SWAP3 SWAP2 SWAP1 PUSH2 0xDBC JUMP JUMPDEST PUSH1 0x40 MLOAD DUP1 SWAP2 SUB SWAP1 LOG1 DUP1 PUSH1 0x0 DUP1 PUSH2 0x100 EXP DUP2 SLOAD DUP2 PUSH20 0xFFFFFFFFFFFFFFFFFFFFFFFFFFFFFFFFFFFFFFFF MUL NOT AND SWAP1 DUP4 PUSH20 0xFFFFFFFFFFFFFFFFFFFFFFFFFFFFFFFFFFFFFFFF AND MUL OR SWAP1 SSTORE POP DUP1 SWAP3 POP POP POP JUMPDEST SWAP8 SWAP7 POP POP POP POP POP POP POP JUMP JUMPDEST PUSH1 0x60 DUP6 DUP3 DUP7 DUP7 DUP7 PUSH1 0x40 MLOAD PUSH1 0x20 ADD PUSH2 0x592 SWAP5 SWAP4 SWAP3 SWAP2 SWAP1 PUSH2 0xE1D JUMP JUMPDEST PUSH1 0x40 MLOAD PUSH1 0x20 DUP2 DUP4 SUB SUB DUP2 MSTORE SWAP1 PUSH1 0x40 MSTORE PUSH1 0x40 MLOAD PUSH1 0x20 ADD PUSH2 0x5B2 SWAP3 SWAP2 SWAP1 PUSH2 0xF7E JUMP JUMPDEST PUSH1 0x40 MLOAD PUSH1 0x20 DUP2 DUP4 SUB SUB DUP2 MSTORE SWAP1 PUSH1 0x40 MSTORE SWAP1 POP SWAP6 SWAP5 POP POP POP POP POP JUMP JUMPDEST PUSH1 0x0 PUSH2 0x5D9 DUP4 DUP4 ADDRESS PUSH2 0x6EB JUMP JUMPDEST SWAP1 POP SWAP3 SWAP2 POP POP JUMP JUMPDEST PUSH1 0x0 DUP4 SELFBALANCE LT ISZERO PUSH2 0x626 JUMPI PUSH1 0x40 MLOAD PUSH32 0x8C379A000000000000000000000000000000000000000000000000000000000 DUP2 MSTORE PUSH1 0x4 ADD PUSH2 0x61D SWAP1 PUSH2 0x1019 JUMP JUMPDEST PUSH1 0x40 MLOAD DUP1 SWAP2 SUB SWAP1 REVERT JUMPDEST PUSH1 0x0 DUP3 MLOAD SUB PUSH2 0x66A JUMPI PUSH1 0x40 MLOAD PUSH32 0x8C379A000000000000000000000000000000000000000000000000000000000 DUP2 MSTORE PUSH1 0x4 ADD PUSH2 0x661 SWAP1 PUSH2 0x1085 JUMP JUMPDEST PUSH1 0x40 MLOAD DUP1 SWAP2 SUB SWAP1 REVERT JUMPDEST DUP3 DUP3 MLOAD PUSH1 0x20 DUP5 ADD DUP7 CREATE2 SWAP1 POP PUSH1 0x0 PUSH20 0xFFFFFFFFFFFFFFFFFFFFFFFFFFFFFFFFFFFFFFFF AND DUP2 PUSH20 0xFFFFFFFFFFFFFFFFFFFFFFFFFFFFFFFFFFFFFFFF AND SUB PUSH2 0x6E4 JUMPI PUSH1 0x40 MLOAD PUSH32 0x8C379A000000000000000000000000000000000000000000000000000000000 DUP2 MSTORE PUSH1 0x4 ADD PUSH2 0x6DB SWAP1 PUSH2 0x10F1 JUMP JUMPDEST PUSH1 0x40 MLOAD DUP1 SWAP2 SUB SWAP1 REVERT JUMPDEST SWAP4 SWAP3 POP POP POP JUMP JUMPDEST PUSH1 0x0 PUSH1 0x40 MLOAD DUP4 PUSH1 0x40 DUP3 ADD MSTORE DUP5 PUSH1 0x20 DUP3 ADD MSTORE DUP3 DUP2 MSTORE PUSH1 0xB DUP2 ADD PUSH1 0xFF DUP2 MSTORE8 PUSH1 0x55 DUP2 KECCAK256 SWAP3 POP POP POP SWAP4 SWAP3 POP POP POP JUMP JUMPDEST PUSH1 0x0 PUSH1 0x40 MLOAD SWAP1 POP SWAP1 JUMP JUMPDEST PUSH1 0x0 DUP1 REVERT JUMPDEST PUSH1 0x0 DUP1 REVERT JUMPDEST PUSH1 0x0 PUSH20 0xFFFFFFFFFFFFFFFFFFFFFFFFFFFFFFFFFFFFFFFF DUP3 AND SWAP1 POP SWAP2 SWAP1 POP JUMP JUMPDEST PUSH1 0x0 PUSH2 0x755 DUP3 PUSH2 0x72A JUMP JUMPDEST SWAP1 POP SWAP2 SWAP1 POP JUMP JUMPDEST PUSH2 0x765 DUP2 PUSH2 0x74A JUMP JUMPDEST DUP2 EQ PUSH2 0x770 JUMPI PUSH1 0x0 DUP1 REVERT JUMPDEST POP JUMP JUMPDEST PUSH1 0x0 DUP2 CALLDATALOAD SWAP1 POP PUSH2 0x782 DUP2 PUSH2 0x75C JUMP JUMPDEST SWAP3 SWAP2 POP POP JUMP JUMPDEST PUSH1 0x0 DUP2 SWAP1 POP SWAP2 SWAP1 POP JUMP JUMPDEST PUSH2 0x79B DUP2 PUSH2 0x788 JUMP JUMPDEST DUP2 EQ PUSH2 0x7A6 JUMPI PUSH1 0x0 DUP1 REVERT JUMPDEST POP JUMP JUMPDEST PUSH1 0x0 DUP2 CALLDATALOAD SWAP1 POP PUSH2 0x7B8 DUP2 PUSH2 0x792 JUMP JUMPDEST SWAP3 SWAP2 POP POP JUMP JUMPDEST PUSH1 0x0 DUP1 REVERT JUMPDEST PUSH1 0x0 DUP1 REVERT JUMPDEST PUSH1 0x0 DUP1 REVERT JUMPDEST PUSH1 0x0 DUP1 DUP4 PUSH1 0x1F DUP5 ADD SLT PUSH2 0x7E3 JUMPI PUSH2 0x7E2 PUSH2 0x7BE JUMP JUMPDEST JUMPDEST DUP3 CALLDATALOAD SWAP1 POP PUSH8 0xFFFFFFFFFFFFFFFF DUP2 GT ISZERO PUSH2 0x800 JUMPI PUSH2 0x7FF PUSH2 0x7C3 JUMP JUMPDEST JUMPDEST PUSH1 0x20 DUP4 ADD SWAP2 POP DUP4 PUSH1 0x1 DUP3 MUL DUP4 ADD GT ISZERO PUSH2 0x81C JUMPI PUSH2 0x81B PUSH2 0x7C8 JUMP JUMPDEST JUMPDEST SWAP3 POP SWAP3 SWAP1 POP JUMP JUMPDEST PUSH1 0x0 DUP1 PUSH1 0x0 DUP1 PUSH1 0x60 DUP6 DUP8 SUB SLT ISZERO PUSH2 0x83D JUMPI PUSH2 0x83C PUSH2 0x720 JUMP JUMPDEST JUMPDEST PUSH1 0x0 PUSH2 0x84B DUP8 DUP3 DUP9 ADD PUSH2 0x773 JUMP JUMPDEST SWAP5 POP POP PUSH1 0x20 PUSH2 0x85C DUP8 DUP3 DUP9 ADD PUSH2 0x7A9 JUMP JUMPDEST SWAP4 POP POP PUSH1 0x40 DUP6 ADD CALLDATALOAD PUSH8 0xFFFFFFFFFFFFFFFF DUP2 GT ISZERO PUSH2 0x87D JUMPI PUSH2 0x87C PUSH2 0x725 JUMP JUMPDEST JUMPDEST PUSH2 0x889 DUP8 DUP3 DUP9 ADD PUSH2 0x7CD JUMP JUMPDEST SWAP3 POP SWAP3 POP POP SWAP3 SWAP6 SWAP2 SWAP5 POP SWAP3 POP JUMP JUMPDEST PUSH1 0x0 DUP2 MLOAD SWAP1 POP SWAP2 SWAP1 POP JUMP JUMPDEST PUSH1 0x0 DUP3 DUP3 MSTORE PUSH1 0x20 DUP3 ADD SWAP1 POP SWAP3 SWAP2 POP POP JUMP JUMPDEST PUSH1 0x0 JUMPDEST DUP4 DUP2 LT ISZERO PUSH2 0x8D1 JUMPI DUP1 DUP3 ADD MLOAD DUP2 DUP5 ADD MSTORE PUSH1 0x20 DUP2 ADD SWAP1 POP PUSH2 0x8B6 JUMP JUMPDEST PUSH1 0x0 DUP5 DUP5 ADD MSTORE POP POP POP POP JUMP JUMPDEST PUSH1 0x0 PUSH1 0x1F NOT PUSH1 0x1F DUP4 ADD AND SWAP1 POP SWAP2 SWAP1 POP JUMP JUMPDEST PUSH1 0x0 PUSH2 0x8F9 DUP3 PUSH2 0x897 JUMP JUMPDEST PUSH2 0x903 DUP2 DUP6 PUSH2 0x8A2 JUMP JUMPDEST SWAP4 POP PUSH2 0x913 DUP2 DUP6 PUSH1 0x20 DUP7 ADD PUSH2 0x8B3 JUMP JUMPDEST PUSH2 0x91C DUP2 PUSH2 0x8DD JUMP JUMPDEST DUP5 ADD SWAP2 POP POP SWAP3 SWAP2 POP POP JUMP JUMPDEST PUSH1 0x0 PUSH1 0x20 DUP3 ADD SWAP1 POP DUP2 DUP2 SUB PUSH1 0x0 DUP4 ADD MSTORE PUSH2 0x941 DUP2 DUP5 PUSH2 0x8EE JUMP JUMPDEST SWAP1 POP SWAP3 SWAP2 POP POP JUMP JUMPDEST PUSH2 0x952 DUP2 PUSH2 0x788 JUMP JUMPDEST DUP3 MSTORE POP POP JUMP JUMPDEST PUSH2 0x961 DUP2 PUSH2 0x74A JUMP JUMPDEST DUP3 MSTORE POP POP JUMP JUMPDEST PUSH1 0x0 PUSH1 0x60 DUP3 ADD SWAP1 POP PUSH2 0x97C PUSH1 0x0 DUP4 ADD DUP7 PUSH2 0x949 JUMP JUMPDEST PUSH2 0x989 PUSH1 0x20 DUP4 ADD DUP6 PUSH2 0x958 JUMP JUMPDEST PUSH2 0x996 PUSH1 0x40 DUP4 ADD DUP5 PUSH2 0x949 JUMP JUMPDEST SWAP5 SWAP4 POP POP POP POP JUMP JUMPDEST PUSH1 0x0 DUP1 PUSH1 0x0 DUP1 PUSH1 0x0 PUSH1 0xA0 DUP7 DUP9 SUB SLT ISZERO PUSH2 0x9BA JUMPI PUSH2 0x9B9 PUSH2 0x720 JUMP JUMPDEST JUMPDEST PUSH1 0x0 PUSH2 0x9C8 DUP9 DUP3 DUP10 ADD PUSH2 0x773 JUMP JUMPDEST SWAP6 POP POP PUSH1 0x20 PUSH2 0x9D9 DUP9 DUP3 DUP10 ADD PUSH2 0x7A9 JUMP JUMPDEST SWAP5 POP POP PUSH1 0x40 PUSH2 0x9EA DUP9 DUP3 DUP10 ADD PUSH2 0x773 JUMP JUMPDEST SWAP4 POP POP PUSH1 0x60 PUSH2 0x9FB DUP9 DUP3 DUP10 ADD PUSH2 0x7A9 JUMP JUMPDEST SWAP3 POP POP PUSH1 0x80 PUSH2 0xA0C DUP9 DUP3 DUP10 ADD PUSH2 0x7A9 JUMP JUMPDEST SWAP2 POP POP SWAP3 SWAP6 POP SWAP3 SWAP6 SWAP1 SWAP4 POP JUMP JUMPDEST PUSH1 0x0 PUSH1 0x20 DUP3 ADD SWAP1 POP PUSH2 0xA2E PUSH1 0x0 DUP4 ADD DUP5 PUSH2 0x958 JUMP JUMPDEST SWAP3 SWAP2 POP POP JUMP JUMPDEST PUSH1 0x0 DUP1 PUSH1 0x0 DUP1 PUSH1 0x0 DUP1 PUSH1 0x0 PUSH1 0xC0 DUP9 DUP11 SUB SLT ISZERO PUSH2 0xA53 JUMPI PUSH2 0xA52 PUSH2 0x720 JUMP JUMPDEST JUMPDEST PUSH1 0x0 PUSH2 0xA61 DUP11 DUP3 DUP12 ADD PUSH2 0x773 JUMP JUMPDEST SWAP8 POP POP PUSH1 0x20 PUSH2 0xA72 DUP11 DUP3 DUP12 ADD PUSH2 0x7A9 JUMP JUMPDEST SWAP7 POP POP PUSH1 0x40 PUSH2 0xA83 DUP11 DUP3 DUP12 ADD PUSH2 0x773 JUMP JUMPDEST SWAP6 POP POP PUSH1 0x60 PUSH2 0xA94 DUP11 DUP3 DUP12 ADD PUSH2 0x7A9 JUMP JUMPDEST SWAP5 POP POP PUSH1 0x80 PUSH2 0xAA5 DUP11 DUP3 DUP12 ADD PUSH2 0x7A9 JUMP JUMPDEST SWAP4 POP POP PUSH1 0xA0 DUP9 ADD CALLDATALOAD PUSH8 0xFFFFFFFFFFFFFFFF DUP2 GT ISZERO PUSH2 0xAC6 JUMPI PUSH2 0xAC5 PUSH2 0x725 JUMP JUMPDEST JUMPDEST PUSH2 0xAD2 DUP11 DUP3 DUP12 ADD PUSH2 0x7CD JUMP JUMPDEST SWAP3 POP SWAP3 POP POP SWAP3 SWAP6 SWAP9 SWAP2 SWAP5 SWAP8 POP SWAP3 SWAP6 POP JUMP JUMPDEST DUP3 DUP2 DUP4 CALLDATACOPY PUSH1 0x0 DUP4 DUP4 ADD MSTORE POP POP POP JUMP JUMPDEST PUSH1 0x0 PUSH2 0xAFE DUP4 DUP6 PUSH2 0x8A2 JUMP JUMPDEST SWAP4 POP PUSH2 0xB0B DUP4 DUP6 DUP5 PUSH2 0xAE3 JUMP JUMPDEST PUSH2 0xB14 DUP4 PUSH2 0x8DD JUMP JUMPDEST DUP5 ADD SWAP1 POP SWAP4 SWAP3 POP POP POP JUMP JUMPDEST PUSH1 0x0 PUSH1 0x60 DUP3 ADD SWAP1 POP PUSH2 0xB34 PUSH1 0x0 DUP4 ADD DUP8 PUSH2 0x958 JUMP JUMPDEST PUSH2 0xB41 PUSH1 0x20 DUP4 ADD DUP7 PUSH2 0x949 JUMP JUMPDEST DUP2 DUP2 SUB PUSH1 0x40 DUP4 ADD MSTORE PUSH2 0xB54 DUP2 DUP5 DUP7 PUSH2 0xAF2 JUMP JUMPDEST SWAP1 POP SWAP6 SWAP5 POP POP POP POP POP JUMP JUMPDEST PUSH1 0x0 DUP1 REVERT JUMPDEST PUSH32 0x4E487B7100000000000000000000000000000000000000000000000000000000 PUSH1 0x0 MSTORE PUSH1 0x41 PUSH1 0x4 MSTORE PUSH1 0x24 PUSH1 0x0 REVERT JUMPDEST PUSH2 0xB9C DUP3 PUSH2 0x8DD JUMP JUMPDEST DUP2 ADD DUP2 DUP2 LT PUSH8 0xFFFFFFFFFFFFFFFF DUP3 GT OR ISZERO PUSH2 0xBBB JUMPI PUSH2 0xBBA PUSH2 0xB64 JUMP JUMPDEST JUMPDEST DUP1 PUSH1 0x40 MSTORE POP POP POP JUMP JUMPDEST PUSH1 0x0 PUSH2 0xBCE PUSH2 0x716 JUMP JUMPDEST SWAP1 POP PUSH2 0xBDA DUP3 DUP3 PUSH2 0xB93 JUMP JUMPDEST SWAP2 SWAP1 POP JUMP JUMPDEST PUSH1 0x0 PUSH8 0xFFFFFFFFFFFFFFFF DUP3 GT ISZERO PUSH2 0xBFA JUMPI PUSH2 0xBF9 PUSH2 0xB64 JUMP JUMPDEST JUMPDEST PUSH2 0xC03 DUP3 PUSH2 0x8DD JUMP JUMPDEST SWAP1 POP PUSH1 0x20 DUP2 ADD SWAP1 POP SWAP2 SWAP1 POP JUMP JUMPDEST PUSH1 0x0 PUSH2 0xC23 PUSH2 0xC1E DUP5 PUSH2 0xBDF JUMP JUMPDEST PUSH2 0xBC4 JUMP JUMPDEST SWAP1 POP DUP3 DUP2 MSTORE PUSH1 0x20 DUP2 ADD DUP5 DUP5 DUP5 ADD GT ISZERO PUSH2 0xC3F JUMPI PUSH2 0xC3E PUSH2 0xB5F JUMP JUMPDEST JUMPDEST PUSH2 0xC4A DUP5 DUP3 DUP6 PUSH2 0x8B3 JUMP JUMPDEST POP SWAP4 SWAP3 POP POP POP JUMP JUMPDEST PUSH1 0x0 DUP3 PUSH1 0x1F DUP4 ADD SLT PUSH2 0xC67 JUMPI PUSH2 0xC66 PUSH2 0x7BE JUMP JUMPDEST JUMPDEST DUP2 MLOAD PUSH2 0xC77 DUP5 DUP3 PUSH1 0x20 DUP7 ADD PUSH2 0xC10 JUMP JUMPDEST SWAP2 POP POP SWAP3 SWAP2 POP POP JUMP JUMPDEST PUSH1 0x0 PUSH1 0x20 DUP3 DUP5 SUB SLT ISZERO PUSH2 0xC96 JUMPI PUSH2 0xC95 PUSH2 0x720 JUMP JUMPDEST JUMPDEST PUSH1 0x0 DUP3 ADD MLOAD PUSH8 0xFFFFFFFFFFFFFFFF DUP2 GT ISZERO PUSH2 0xCB4 JUMPI PUSH2 0xCB3 PUSH2 0x725 JUMP JUMPDEST JUMPDEST PUSH2 0xCC0 DUP5 DUP3 DUP6 ADD PUSH2 0xC52 JUMP JUMPDEST SWAP2 POP POP SWAP3 SWAP2 POP POP JUMP JUMPDEST PUSH1 0x0 DUP2 MLOAD SWAP1 POP PUSH2 0xCD8 DUP2 PUSH2 0x792 JUMP JUMPDEST SWAP3 SWAP2 POP POP JUMP JUMPDEST PUSH1 0x0 DUP2 MLOAD SWAP1 POP PUSH2 0xCED DUP2 PUSH2 0x75C JUMP JUMPDEST SWAP3 SWAP2 POP POP JUMP JUMPDEST PUSH1 0x0 DUP1 PUSH1 0x0 PUSH1 0x60 DUP5 DUP7 SUB SLT ISZERO PUSH2 0xD0C JUMPI PUSH2 0xD0B PUSH2 0x720 JUMP JUMPDEST JUMPDEST PUSH1 0x0 PUSH2 0xD1A DUP7 DUP3 DUP8 ADD PUSH2 0xCC9 JUMP JUMPDEST SWAP4 POP POP PUSH1 0x20 PUSH2 0xD2B DUP7 DUP3 DUP8 ADD PUSH2 0xCDE JUMP JUMPDEST SWAP3 POP POP PUSH1 0x40 PUSH2 0xD3C DUP7 DUP3 DUP8 ADD PUSH2 0xCC9 JUMP JUMPDEST SWAP2 POP POP SWAP3 POP SWAP3 POP SWAP3 JUMP JUMPDEST PUSH1 0x0 PUSH1 0x20 DUP3 DUP5 SUB SLT ISZERO PUSH2 0xD5C JUMPI PUSH2 0xD5B PUSH2 0x720 JUMP JUMPDEST JUMPDEST PUSH1 0x0 PUSH2 0xD6A DUP5 DUP3 DUP6 ADD PUSH2 0xCDE JUMP JUMPDEST SWAP2 POP POP SWAP3 SWAP2 POP POP JUMP JUMPDEST PUSH1 0x0 DUP2 SWAP1 POP SWAP3 SWAP2 POP POP JUMP JUMPDEST PUSH1 0x0 PUSH2 0xD8A DUP4 DUP6 PUSH2 0xD73 JUMP JUMPDEST SWAP4 POP PUSH2 0xD97 DUP4 DUP6 DUP5 PUSH2 0xAE3 JUMP JUMPDEST DUP3 DUP5 ADD SWAP1 POP SWAP4 SWAP3 POP POP POP JUMP JUMPDEST PUSH1 0x0 PUSH2 0xDB0 DUP3 DUP5 DUP7 PUSH2 0xD7E JUMP JUMPDEST SWAP2 POP DUP2 SWAP1 POP SWAP4 SWAP3 POP POP POP JUMP JUMPDEST PUSH1 0x0 PUSH1 0xC0 DUP3 ADD SWAP1 POP PUSH2 0xDD1 PUSH1 0x0 DUP4 ADD DUP10 PUSH2 0x958 JUMP JUMPDEST PUSH2 0xDDE PUSH1 0x20 DUP4 ADD DUP9 PUSH2 0x958 JUMP JUMPDEST PUSH2 0xDEB PUSH1 0x40 DUP4 ADD DUP8 PUSH2 0x949 JUMP JUMPDEST PUSH2 0xDF8 PUSH1 0x60 DUP4 ADD DUP7 PUSH2 0x958 JUMP JUMPDEST PUSH2 0xE05 PUSH1 0x80 DUP4 ADD DUP6 PUSH2 0x949 JUMP JUMPDEST PUSH2 0xE12 PUSH1 0xA0 DUP4 ADD DUP5 PUSH2 0x949 JUMP JUMPDEST SWAP8 SWAP7 POP POP POP POP POP POP POP JUMP JUMPDEST PUSH1 0x0 PUSH1 0x80 DUP3 ADD SWAP1 POP PUSH2 0xE32 PUSH1 0x0 DUP4 ADD DUP8 PUSH2 0x949 JUMP JUMPDEST PUSH2 0xE3F PUSH1 0x20 DUP4 ADD DUP7 PUSH2 0x949 JUMP JUMPDEST PUSH2 0xE4C PUSH1 0x40 DUP4 ADD DUP6 PUSH2 0x958 JUMP JUMPDEST PUSH2 0xE59 PUSH1 0x60 DUP4 ADD DUP5 PUSH2 0x949 JUMP JUMPDEST SWAP6 SWAP5 POP POP POP POP POP JUMP JUMPDEST PUSH1 0x0 DUP2 SWAP1 POP SWAP3 SWAP2 POP POP JUMP JUMPDEST PUSH32 0x3D60AD80600A3D3981F3363D3D373D3D3D363D73000000000000000000000000 PUSH1 0x0 DUP3 ADD MSTORE POP JUMP JUMPDEST PUSH1 0x0 PUSH2 0xEA3 PUSH1 0x14 DUP4 PUSH2 0xE62 JUMP JUMPDEST SWAP2 POP PUSH2 0xEAE DUP3 PUSH2 0xE6D JUMP JUMPDEST PUSH1 0x14 DUP3 ADD SWAP1 POP SWAP2 SWAP1 POP JUMP JUMPDEST PUSH1 0x0 DUP2 PUSH1 0x60 SHL SWAP1 POP SWAP2 SWAP1 POP JUMP JUMPDEST PUSH1 0x0 PUSH2 0xED1 DUP3 PUSH2 0xEB9 JUMP JUMPDEST SWAP1 POP SWAP2 SWAP1 POP JUMP JUMPDEST PUSH1 0x0 PUSH2 0xEE3 DUP3 PUSH2 0xEC6 JUMP JUMPDEST SWAP1 POP SWAP2 SWAP1 POP JUMP JUMPDEST PUSH2 0xEFB PUSH2 0xEF6 DUP3 PUSH2 0x74A JUMP JUMPDEST PUSH2 0xED8 JUMP JUMPDEST DUP3 MSTORE POP POP JUMP JUMPDEST PUSH32 0x5AF43D82803E903D91602B57FD5BF30000000000000000000000000000000000 PUSH1 0x0 DUP3 ADD MSTORE POP JUMP JUMPDEST PUSH1 0x0 PUSH2 0xF37 PUSH1 0xF DUP4 PUSH2 0xE62 JUMP JUMPDEST SWAP2 POP PUSH2 0xF42 DUP3 PUSH2 0xF01 JUMP JUMPDEST PUSH1 0xF DUP3 ADD SWAP1 POP SWAP2 SWAP1 POP JUMP JUMPDEST PUSH1 0x0 PUSH2 0xF58 DUP3 PUSH2 0x897 JUMP JUMPDEST PUSH2 0xF62 DUP2 DUP6 PUSH2 0xD73 JUMP JUMPDEST SWAP4 POP PUSH2 0xF72 DUP2 DUP6 PUSH1 0x20 DUP7 ADD PUSH2 0x8B3 JUMP JUMPDEST DUP1 DUP5 ADD SWAP2 POP POP SWAP3 SWAP2 POP POP JUMP JUMPDEST PUSH1 0x0 PUSH2 0xF89 DUP3 PUSH2 0xE96 JUMP JUMPDEST SWAP2 POP PUSH2 0xF95 DUP3 DUP6 PUSH2 0xEEA JUMP JUMPDEST PUSH1 0x14 DUP3 ADD SWAP2 POP PUSH2 0xFA4 DUP3 PUSH2 0xF2A JUMP JUMPDEST SWAP2 POP PUSH2 0xFB0 DUP3 DUP5 PUSH2 0xF4D JUMP JUMPDEST SWAP2 POP DUP2 SWAP1 POP SWAP4 SWAP3 POP POP POP JUMP JUMPDEST PUSH1 0x0 DUP3 DUP3 MSTORE PUSH1 0x20 DUP3 ADD SWAP1 POP SWAP3 SWAP2 POP POP JUMP JUMPDEST PUSH32 0x437265617465323A20696E73756666696369656E742062616C616E6365000000 PUSH1 0x0 DUP3 ADD MSTORE POP JUMP JUMPDEST PUSH1 0x0 PUSH2 0x1003 PUSH1 0x1D DUP4 PUSH2 0xFBC JUMP JUMPDEST SWAP2 POP PUSH2 0x100E DUP3 PUSH2 0xFCD JUMP JUMPDEST PUSH1 0x20 DUP3 ADD SWAP1 POP SWAP2 SWAP1 POP JUMP JUMPDEST PUSH1 0x0 PUSH1 0x20 DUP3 ADD SWAP1 POP DUP2 DUP2 SUB PUSH1 0x0 DUP4 ADD MSTORE PUSH2 0x1032 DUP2 PUSH2 0xFF6 JUMP JUMPDEST SWAP1 POP SWAP2 SWAP1 POP JUMP JUMPDEST PUSH32 0x437265617465323A2062797465636F6465206C656E677468206973207A65726F PUSH1 0x0 DUP3 ADD MSTORE POP JUMP JUMPDEST PUSH1 0x0 PUSH2 0x106F PUSH1 0x20 DUP4 PUSH2 0xFBC JUMP JUMPDEST SWAP2 POP PUSH2 0x107A DUP3 PUSH2 0x1039 JUMP JUMPDEST PUSH1 0x20 DUP3 ADD SWAP1 POP SWAP2 SWAP1 POP JUMP JUMPDEST PUSH1 0x0 PUSH1 0x20 DUP3 ADD SWAP1 POP DUP2 DUP2 SUB PUSH1 0x0 DUP4 ADD MSTORE PUSH2 0x109E DUP2 PUSH2 0x1062 JUMP JUMPDEST SWAP1 POP SWAP2 SWAP1 POP JUMP JUMPDEST PUSH32 0x437265617465323A204661696C6564206F6E206465706C6F7900000000000000 PUSH1 0x0 DUP3 ADD MSTORE POP JUMP JUMPDEST PUSH1 0x0 PUSH2 0x10DB PUSH1 0x19 DUP4 PUSH2 0xFBC JUMP JUMPDEST SWAP2 POP PUSH2 0x10E6 DUP3 PUSH2 0x10A5 JUMP JUMPDEST PUSH1 0x20 DUP3 ADD SWAP1 POP SWAP2 SWAP1 POP JUMP JUMPDEST PUSH1 0x0 PUSH1 0x20 DUP3 ADD SWAP1 POP DUP2 DUP2 SUB PUSH1 0x0 DUP4 ADD MSTORE PUSH2 0x110A DUP2 PUSH2 0x10CE JUMP JUMPDEST SWAP1 POP SWAP2 SWAP1 POP JUMP INVALID LOG2 PUSH5 0x6970667358 0x22 SLT KECCAK256 SWAP14 0xD0 0xC3 DUP14 PUSH14 0x7D950F3C31DE907270CFF55DB959 STATICCALL 0x21 0xC4 0xC7 0x5C CHAINID 0xA5 PUSH6 0xC7D35CD8B464 PUSH20 0x6F6C634300081500330000000000000000000000 "
				},
				"gasEstimates": {
					"creation": {
						"codeDepositCost": "884600",
						"executionCost": "922",
						"totalCost": "885522"
					},
					"external": {
						"account(address,uint256,address,uint256,uint256)": "infinite",
						"accountAddr()": "2555",
						"checkOwnerAccount()": "infinite",
						"checkTokenInfo()": "infinite",
						"createAccount(address,uint256,address,uint256,uint256,bytes)": "infinite",
						"executeCallAccount(address,uint256,bytes)": "infinite"
					},
					"internal": {
						"_creationCode(address,uint256,address,uint256,uint256)": "infinite"
					}
				},
				"methodIdentifiers": {
					"account(address,uint256,address,uint256,uint256)": "5e9bc536",
					"accountAddr()": "8fec5661",
					"checkOwnerAccount()": "9dfc3149",
					"checkTokenInfo()": "5b6ff096",
					"createAccount(address,uint256,address,uint256,uint256,bytes)": "da7323b3",
					"executeCallAccount(address,uint256,bytes)": "2f5c13b5"
				}
			},
			"storageLayout": {
				"storage": [
					{
						"astId": 116,
						"contract": "ERC6551RegistryAndAccount.sol:ERC6551Registry",
						"label": "accountAddr",
						"offset": 0,
						"slot": "0",
						"type": "t_address"
					}
				],
				"types": {
					"t_address": {
						"encoding": "inplace",
						"label": "address",
						"numberOfBytes": "20"
					}
				}
			},
			"userdoc": {
				"kind": "user",
				"methods": {},
				"version": 1
			}
		}
	}
}